{"abi":[{"inputs":[{"internalType":"uint256","name":"minimum","type":"uint256"},{"internalType":"address","name":"creator","type":"address"}],"stateMutability":"nonpayable","type":"constructor"},{"inputs":[{"internalType":"uint256","name":"index","type":"uint256"}],"name":"approveRequest","outputs":[],"stateMutability":"nonpayable","type":"function"},{"inputs":[{"internalType":"address","name":"","type":"address"}],"name":"approvers","outputs":[{"internalType":"bool","name":"","type":"bool"}],"stateMutability":"view","type":"function"},{"inputs":[],"name":"approversCount","outputs":[{"internalType":"uint256","name":"","type":"uint256"}],"stateMutability":"view","type":"function"},{"inputs":[{"internalType":"uint256","name":"","type":"uint256"}],"name":"approversVoted","outputs":[{"internalType":"address","name":"","type":"address"}],"stateMutability":"view","type":"function"},{"inputs":[],"name":"contribute","outputs":[],"stateMutability":"payable","type":"function"},{"inputs":[{"internalType":"string","name":"description","type":"string"},{"internalType":"uint256","name":"value","type":"uint256"},{"internalType":"address payable","name":"recipient","type":"address"}],"name":"createRequest","outputs":[],"stateMutability":"nonpayable","type":"function"},{"inputs":[{"internalType":"uint256","name":"index","type":"uint256"}],"name":"finalizeRequest","outputs":[],"stateMutability":"nonpayable","type":"function"},{"inputs":[],"name":"getAllRequests","outputs":[{"components":[{"internalType":"string","name":"description","type":"string"},{"internalType":"uint256","name":"value","type":"uint256"},{"internalType":"address payable","name":"recipient","type":"address"},{"internalType":"bool","name":"complete","type":"bool"},{"internalType":"uint256","name":"approvalCount","type":"uint256"}],"internalType":"struct Campaign.Request[]","name":"","type":"tuple[]"}],"stateMutability":"view","type":"function"},{"inputs":[],"name":"getRequestsCount","outputs":[{"internalType":"uint256","name":"","type":"uint256"}],"stateMutability":"view","type":"function"},{"inputs":[],"name":"getSummary","outputs":[{"internalType":"uint256","name":"minimum","type":"uint256"},{"internalType":"uint256","name":"balance","type":"uint256"},{"internalType":"uint256","name":"requestsSize","type":"uint256"},{"internalType":"uint256","name":"approversSize","type":"uint256"},{"internalType":"address","name":"managerAdress","type":"address"}],"stateMutability":"view","type":"function"},{"inputs":[],"name":"manager","outputs":[{"internalType":"address","name":"","type":"address"}],"stateMutability":"view","type":"function"},{"inputs":[],"name":"minimumContribution","outputs":[{"internalType":"uint256","name":"","type":"uint256"}],"stateMutability":"view","type":"function"},{"inputs":[{"internalType":"uint256","name":"","type":"uint256"}],"name":"requests","outputs":[{"internalType":"string","name":"description","type":"string"},{"internalType":"uint256","name":"value","type":"uint256"},{"internalType":"address payable","name":"recipient","type":"address"},{"internalType":"bool","name":"complete","type":"bool"},{"internalType":"uint256","name":"approvalCount","type":"uint256"}],"stateMutability":"view","type":"function"}],"devdoc":{"kind":"dev","methods":{},"version":1},"evm":{"assembly":"    /* \"Campaign.sol\":61:2602  contract Campaign {... */\n  mstore(0x40, 0x80)\n    /* \"Campaign.sol\":605:721  constructor(uint minimum, address creator) {... */\n  callvalue\n  dup1\n  iszero\n  tag_1\n  jumpi\n  0x00\n  dup1\n  revert\ntag_1:\n  pop\n  mload(0x40)\n  sub(codesize, bytecodeSize)\n  dup1\n  bytecodeSize\n  dup4\n  codecopy\n  dup2\n  dup2\n  add\n  0x40\n  mstore\n  dup2\n  add\n  swap1\n  tag_2\n  swap2\n  swap1\n  tag_3\n  jump\t// in\ntag_2:\n    /* \"Campaign.sol\":668:675  creator */\n  dup1\n    /* \"Campaign.sol\":658:665  manager */\n  0x00\n  dup1\n    /* \"Campaign.sol\":658:675  manager = creator */\n  0x0100\n  exp\n  dup2\n  sload\n  dup2\n  0xffffffffffffffffffffffffffffffffffffffff\n  mul\n  not\n  and\n  swap1\n  dup4\n  0xffffffffffffffffffffffffffffffffffffffff\n  and\n  mul\n  or\n  swap1\n  sstore\n  pop\n    /* \"Campaign.sol\":707:714  minimum */\n  dup2\n    /* \"Campaign.sol\":685:704  minimumContribution */\n  0x01\n    /* \"Campaign.sol\":685:714  minimumContribution = minimum */\n  dup2\n  swap1\n  sstore\n  pop\n    /* \"Campaign.sol\":605:721  constructor(uint minimum, address creator) {... */\n  pop\n  pop\n    /* \"Campaign.sol\":61:2602  contract Campaign {... */\n  jump(tag_6)\n    /* \"#utility.yul\":7:150   */\ntag_8:\n  0x00\n    /* \"#utility.yul\":95:101   */\n  dup2\n    /* \"#utility.yul\":89:102   */\n  mload\n    /* \"#utility.yul\":80:102   */\n  swap1\n  pop\n    /* \"#utility.yul\":111:144   */\n  tag_10\n    /* \"#utility.yul\":138:143   */\n  dup2\n    /* \"#utility.yul\":111:144   */\n  tag_11\n  jump\t// in\ntag_10:\n    /* \"#utility.yul\":70:150   */\n  swap3\n  swap2\n  pop\n  pop\n  jump\t// out\n    /* \"#utility.yul\":156:299   */\ntag_12:\n  0x00\n    /* \"#utility.yul\":244:250   */\n  dup2\n    /* \"#utility.yul\":238:251   */\n  mload\n    /* \"#utility.yul\":229:251   */\n  swap1\n  pop\n    /* \"#utility.yul\":260:293   */\n  tag_14\n    /* \"#utility.yul\":287:292   */\n  dup2\n    /* \"#utility.yul\":260:293   */\n  tag_15\n  jump\t// in\ntag_14:\n    /* \"#utility.yul\":219:299   */\n  swap3\n  swap2\n  pop\n  pop\n  jump\t// out\n    /* \"#utility.yul\":305:745   */\ntag_3:\n  0x00\n  dup1\n    /* \"#utility.yul\":441:443   */\n  0x40\n    /* \"#utility.yul\":429:438   */\n  dup4\n    /* \"#utility.yul\":420:427   */\n  dup6\n    /* \"#utility.yul\":416:439   */\n  sub\n    /* \"#utility.yul\":412:444   */\n  slt\n    /* \"#utility.yul\":409:411   */\n  iszero\n  tag_17\n  jumpi\n    /* \"#utility.yul\":457:458   */\n  0x00\n    /* \"#utility.yul\":454:455   */\n  dup1\n    /* \"#utility.yul\":447:459   */\n  revert\n    /* \"#utility.yul\":409:411   */\ntag_17:\n    /* \"#utility.yul\":500:501   */\n  0x00\n    /* \"#utility.yul\":525:589   */\n  tag_18\n    /* \"#utility.yul\":581:588   */\n  dup6\n    /* \"#utility.yul\":572:578   */\n  dup3\n    /* \"#utility.yul\":561:570   */\n  dup7\n    /* \"#utility.yul\":557:579   */\n  add\n    /* \"#utility.yul\":525:589   */\n  tag_12\n  jump\t// in\ntag_18:\n    /* \"#utility.yul\":515:589   */\n  swap3\n  pop\n    /* \"#utility.yul\":471:599   */\n  pop\n    /* \"#utility.yul\":638:640   */\n  0x20\n    /* \"#utility.yul\":664:728   */\n  tag_19\n    /* \"#utility.yul\":720:727   */\n  dup6\n    /* \"#utility.yul\":711:717   */\n  dup3\n    /* \"#utility.yul\":700:709   */\n  dup7\n    /* \"#utility.yul\":696:718   */\n  add\n    /* \"#utility.yul\":664:728   */\n  tag_8\n  jump\t// in\ntag_19:\n    /* \"#utility.yul\":654:728   */\n  swap2\n  pop\n    /* \"#utility.yul\":609:738   */\n  pop\n    /* \"#utility.yul\":399:745   */\n  swap3\n  pop\n  swap3\n  swap1\n  pop\n  jump\t// out\n    /* \"#utility.yul\":751:847   */\ntag_20:\n  0x00\n    /* \"#utility.yul\":817:841   */\n  tag_22\n    /* \"#utility.yul\":835:840   */\n  dup3\n    /* \"#utility.yul\":817:841   */\n  tag_23\n  jump\t// in\ntag_22:\n    /* \"#utility.yul\":806:841   */\n  swap1\n  pop\n    /* \"#utility.yul\":796:847   */\n  swap2\n  swap1\n  pop\n  jump\t// out\n    /* \"#utility.yul\":853:979   */\ntag_23:\n  0x00\n    /* \"#utility.yul\":930:972   */\n  0xffffffffffffffffffffffffffffffffffffffff\n    /* \"#utility.yul\":923:928   */\n  dup3\n    /* \"#utility.yul\":919:973   */\n  and\n    /* \"#utility.yul\":908:973   */\n  swap1\n  pop\n    /* \"#utility.yul\":898:979   */\n  swap2\n  swap1\n  pop\n  jump\t// out\n    /* \"#utility.yul\":985:1062   */\ntag_25:\n  0x00\n    /* \"#utility.yul\":1051:1056   */\n  dup2\n    /* \"#utility.yul\":1040:1056   */\n  swap1\n  pop\n    /* \"#utility.yul\":1030:1062   */\n  swap2\n  swap1\n  pop\n  jump\t// out\n    /* \"#utility.yul\":1068:1190   */\ntag_11:\n    /* \"#utility.yul\":1141:1165   */\n  tag_28\n    /* \"#utility.yul\":1159:1164   */\n  dup2\n    /* \"#utility.yul\":1141:1165   */\n  tag_20\n  jump\t// in\ntag_28:\n    /* \"#utility.yul\":1134:1139   */\n  dup2\n    /* \"#utility.yul\":1131:1166   */\n  eq\n    /* \"#utility.yul\":1121:1123   */\n  tag_29\n  jumpi\n    /* \"#utility.yul\":1180:1181   */\n  0x00\n    /* \"#utility.yul\":1177:1178   */\n  dup1\n    /* \"#utility.yul\":1170:1182   */\n  revert\n    /* \"#utility.yul\":1121:1123   */\ntag_29:\n    /* \"#utility.yul\":1111:1190   */\n  pop\n  jump\t// out\n    /* \"#utility.yul\":1196:1318   */\ntag_15:\n    /* \"#utility.yul\":1269:1293   */\n  tag_31\n    /* \"#utility.yul\":1287:1292   */\n  dup2\n    /* \"#utility.yul\":1269:1293   */\n  tag_25\n  jump\t// in\ntag_31:\n    /* \"#utility.yul\":1262:1267   */\n  dup2\n    /* \"#utility.yul\":1259:1294   */\n  eq\n    /* \"#utility.yul\":1249:1251   */\n  tag_32\n  jumpi\n    /* \"#utility.yul\":1308:1309   */\n  0x00\n    /* \"#utility.yul\":1305:1306   */\n  dup1\n    /* \"#utility.yul\":1298:1310   */\n  revert\n    /* \"#utility.yul\":1249:1251   */\ntag_32:\n    /* \"#utility.yul\":1239:1318   */\n  pop\n  jump\t// out\n    /* \"Campaign.sol\":61:2602  contract Campaign {... */\ntag_6:\n  dataSize(sub_0)\n  dup1\n  dataOffset(sub_0)\n  0x00\n  codecopy\n  0x00\n  return\nstop\n\nsub_0: assembly {\n        /* \"Campaign.sol\":61:2602  contract Campaign {... */\n      mstore(0x40, 0x80)\n      jumpi(tag_1, lt(calldatasize, 0x04))\n      shr(0xe0, calldataload(0x00))\n      dup1\n      0x82fde093\n      gt\n      tag_15\n      jumpi\n      dup1\n      0x99395a0f\n      gt\n      tag_16\n      jumpi\n      dup1\n      0x99395a0f\n      eq\n      tag_11\n      jumpi\n      dup1\n      0xd7bb99ba\n      eq\n      tag_12\n      jumpi\n      dup1\n      0xd7d1bbdb\n      eq\n      tag_13\n      jumpi\n      dup1\n      0xfb1a002a\n      eq\n      tag_14\n      jumpi\n      jump(tag_1)\n    tag_16:\n      dup1\n      0x82fde093\n      eq\n      tag_8\n      jumpi\n      dup1\n      0x8a9cfd55\n      eq\n      tag_9\n      jumpi\n      dup1\n      0x937e09b1\n      eq\n      tag_10\n      jumpi\n      jump(tag_1)\n    tag_15:\n      dup1\n      0x03441006\n      eq\n      tag_2\n      jumpi\n      dup1\n      0x0a144391\n      eq\n      tag_3\n      jumpi\n      dup1\n      0x3410452a\n      eq\n      tag_4\n      jumpi\n      dup1\n      0x4051ddac\n      eq\n      tag_5\n      jumpi\n      dup1\n      0x481c6a75\n      eq\n      tag_6\n      jumpi\n      dup1\n      0x81d12c58\n      eq\n      tag_7\n      jumpi\n    tag_1:\n      0x00\n      dup1\n      revert\n        /* \"Campaign.sol\":1666:2028  function finalizeRequest(uint index) public onlyManager {... */\n    tag_2:\n      callvalue\n      dup1\n      iszero\n      tag_17\n      jumpi\n      0x00\n      dup1\n      revert\n    tag_17:\n      pop\n      tag_18\n      0x04\n      dup1\n      calldatasize\n      sub\n      dup2\n      add\n      swap1\n      tag_19\n      swap2\n      swap1\n      tag_20\n      jump\t// in\n    tag_19:\n      tag_21\n      jump\t// in\n    tag_18:\n      stop\n        /* \"Campaign.sol\":351:392  mapping(address => bool) public approvers */\n    tag_3:\n      callvalue\n      dup1\n      iszero\n      tag_22\n      jumpi\n      0x00\n      dup1\n      revert\n    tag_22:\n      pop\n      tag_23\n      0x04\n      dup1\n      calldatasize\n      sub\n      dup2\n      add\n      swap1\n      tag_24\n      swap2\n      swap1\n      tag_25\n      jump\t// in\n    tag_24:\n      tag_26\n      jump\t// in\n    tag_23:\n      mload(0x40)\n      tag_27\n      swap2\n      swap1\n      tag_28\n      jump\t// in\n    tag_27:\n      mload(0x40)\n      dup1\n      swap2\n      sub\n      swap1\n      return\n        /* \"Campaign.sol\":2399:2493  function getRequestsCount() public view returns (uint) {... */\n    tag_4:\n      callvalue\n      dup1\n      iszero\n      tag_29\n      jumpi\n      0x00\n      dup1\n      revert\n    tag_29:\n      pop\n      tag_30\n      tag_31\n      jump\t// in\n    tag_30:\n      mload(0x40)\n      tag_32\n      swap2\n      swap1\n      tag_33\n      jump\t// in\n    tag_32:\n      mload(0x40)\n      dup1\n      swap2\n      sub\n      swap1\n      return\n        /* \"Campaign.sol\":2034:2393  function getSummary() public view returns(uint minimum, uint balance, ... */\n    tag_5:\n      callvalue\n      dup1\n      iszero\n      tag_34\n      jumpi\n      0x00\n      dup1\n      revert\n    tag_34:\n      pop\n      tag_35\n      tag_36\n      jump\t// in\n    tag_35:\n      mload(0x40)\n      tag_37\n      swap6\n      swap5\n      swap4\n      swap3\n      swap2\n      swap1\n      tag_38\n      jump\t// in\n    tag_37:\n      mload(0x40)\n      dup1\n      swap2\n      sub\n      swap1\n      return\n        /* \"Campaign.sol\":251:273  address public manager */\n    tag_6:\n      callvalue\n      dup1\n      iszero\n      tag_39\n      jumpi\n      0x00\n      dup1\n      revert\n    tag_39:\n      pop\n      tag_40\n      tag_41\n      jump\t// in\n    tag_40:\n      mload(0x40)\n      tag_42\n      swap2\n      swap1\n      tag_43\n      jump\t// in\n    tag_42:\n      mload(0x40)\n      dup1\n      swap2\n      sub\n      swap1\n      return\n        /* \"Campaign.sol\":316:341  Request[] public requests */\n    tag_7:\n      callvalue\n      dup1\n      iszero\n      tag_44\n      jumpi\n      0x00\n      dup1\n      revert\n    tag_44:\n      pop\n      tag_45\n      0x04\n      dup1\n      calldatasize\n      sub\n      dup2\n      add\n      swap1\n      tag_46\n      swap2\n      swap1\n      tag_20\n      jump\t// in\n    tag_46:\n      tag_47\n      jump\t// in\n    tag_45:\n      mload(0x40)\n      tag_48\n      swap6\n      swap5\n      swap4\n      swap3\n      swap2\n      swap1\n      tag_49\n      jump\t// in\n    tag_48:\n      mload(0x40)\n      dup1\n      swap2\n      sub\n      swap1\n      return\n        /* \"Campaign.sol\":450:476  uint public approversCount */\n    tag_8:\n      callvalue\n      dup1\n      iszero\n      tag_50\n      jumpi\n      0x00\n      dup1\n      revert\n    tag_50:\n      pop\n      tag_51\n      tag_52\n      jump\t// in\n    tag_51:\n      mload(0x40)\n      tag_53\n      swap2\n      swap1\n      tag_33\n      jump\t// in\n    tag_53:\n      mload(0x40)\n      dup1\n      swap2\n      sub\n      swap1\n      return\n        /* \"Campaign.sol\":967:1325  function createRequest(string memory description, uint value, address payable recipient) public onlyManager {... */\n    tag_9:\n      callvalue\n      dup1\n      iszero\n      tag_54\n      jumpi\n      0x00\n      dup1\n      revert\n    tag_54:\n      pop\n      tag_55\n      0x04\n      dup1\n      calldatasize\n      sub\n      dup2\n      add\n      swap1\n      tag_56\n      swap2\n      swap1\n      tag_57\n      jump\t// in\n    tag_56:\n      tag_58\n      jump\t// in\n    tag_55:\n      stop\n        /* \"Campaign.sol\":279:310  uint public minimumContribution */\n    tag_10:\n      callvalue\n      dup1\n      iszero\n      tag_59\n      jumpi\n      0x00\n      dup1\n      revert\n    tag_59:\n      pop\n      tag_60\n      tag_61\n      jump\t// in\n    tag_60:\n      mload(0x40)\n      tag_62\n      swap2\n      swap1\n      tag_33\n      jump\t// in\n    tag_62:\n      mload(0x40)\n      dup1\n      swap2\n      sub\n      swap1\n      return\n        /* \"Campaign.sol\":398:444  mapping(uint => address) public approversVoted */\n    tag_11:\n      callvalue\n      dup1\n      iszero\n      tag_63\n      jumpi\n      0x00\n      dup1\n      revert\n    tag_63:\n      pop\n      tag_64\n      0x04\n      dup1\n      calldatasize\n      sub\n      dup2\n      add\n      swap1\n      tag_65\n      swap2\n      swap1\n      tag_20\n      jump\t// in\n    tag_65:\n      tag_66\n      jump\t// in\n    tag_64:\n      mload(0x40)\n      tag_67\n      swap2\n      swap1\n      tag_43\n      jump\t// in\n    tag_67:\n      mload(0x40)\n      dup1\n      swap2\n      sub\n      swap1\n      return\n        /* \"Campaign.sol\":731:957  function contribute() public payable {... */\n    tag_12:\n      tag_68\n      tag_69\n      jump\t// in\n    tag_68:\n      stop\n        /* \"Campaign.sol\":1335:1656  function approveRequest(uint index) public {... */\n    tag_13:\n      callvalue\n      dup1\n      iszero\n      tag_70\n      jumpi\n      0x00\n      dup1\n      revert\n    tag_70:\n      pop\n      tag_71\n      0x04\n      dup1\n      calldatasize\n      sub\n      dup2\n      add\n      swap1\n      tag_72\n      swap2\n      swap1\n      tag_20\n      jump\t// in\n    tag_72:\n      tag_73\n      jump\t// in\n    tag_71:\n      stop\n        /* \"Campaign.sol\":2503:2600  function getAllRequests() public view returns (Request[] memory) {... */\n    tag_14:\n      callvalue\n      dup1\n      iszero\n      tag_74\n      jumpi\n      0x00\n      dup1\n      revert\n    tag_74:\n      pop\n      tag_75\n      tag_76\n      jump\t// in\n    tag_75:\n      mload(0x40)\n      tag_77\n      swap2\n      swap1\n      tag_78\n      jump\t// in\n    tag_77:\n      mload(0x40)\n      dup1\n      swap2\n      sub\n      swap1\n      return\n        /* \"Campaign.sol\":1666:2028  function finalizeRequest(uint index) public onlyManager {... */\n    tag_21:\n        /* \"Campaign.sol\":547:554  manager */\n      0x00\n      dup1\n      sload\n      swap1\n      0x0100\n      exp\n      swap1\n      div\n      0xffffffffffffffffffffffffffffffffffffffff\n      and\n        /* \"Campaign.sol\":533:554  msg.sender == manager */\n      0xffffffffffffffffffffffffffffffffffffffff\n      and\n        /* \"Campaign.sol\":533:543  msg.sender */\n      caller\n        /* \"Campaign.sol\":533:554  msg.sender == manager */\n      0xffffffffffffffffffffffffffffffffffffffff\n      and\n      eq\n        /* \"Campaign.sol\":525:577  require(msg.sender == manager, \"Permission denied.\") */\n      tag_80\n      jumpi\n      mload(0x40)\n      0x08c379a000000000000000000000000000000000000000000000000000000000\n      dup2\n      mstore\n      0x04\n      add\n      tag_81\n      swap1\n      tag_82\n      jump\t// in\n    tag_81:\n      mload(0x40)\n      dup1\n      swap2\n      sub\n      swap1\n      revert\n    tag_80:\n        /* \"Campaign.sol\":1732:1755  Request storage request */\n      0x00\n        /* \"Campaign.sol\":1758:1766  requests */\n      0x02\n        /* \"Campaign.sol\":1767:1772  index */\n      dup3\n        /* \"Campaign.sol\":1758:1773  requests[index] */\n      dup2\n      sload\n      dup2\n      lt\n      tag_84\n      jumpi\n      mstore(0x00, 0x4e487b7100000000000000000000000000000000000000000000000000000000)\n      mstore(0x04, 0x32)\n      revert(0x00, 0x24)\n    tag_84:\n      swap1\n      0x00\n      mstore\n      keccak256(0x00, 0x20)\n      swap1\n      0x04\n      mul\n      add\n        /* \"Campaign.sol\":1732:1773  Request storage request = requests[index] */\n      swap1\n      pop\n        /* \"Campaign.sol\":1792:1799  request */\n      dup1\n        /* \"Campaign.sol\":1792:1808  request.complete */\n      0x02\n      add\n      0x14\n      swap1\n      sload\n      swap1\n      0x0100\n      exp\n      swap1\n      div\n      0xff\n      and\n        /* \"Campaign.sol\":1791:1808  !request.complete */\n      iszero\n        /* \"Campaign.sol\":1783:1841  require(!request.complete, \"Campaign has been finalized.\") */\n      tag_86\n      jumpi\n      mload(0x40)\n      0x08c379a000000000000000000000000000000000000000000000000000000000\n      dup2\n      mstore\n      0x04\n      add\n      tag_87\n      swap1\n      tag_88\n      jump\t// in\n    tag_87:\n      mload(0x40)\n      dup1\n      swap2\n      sub\n      swap1\n      revert\n    tag_86:\n        /* \"Campaign.sol\":1901:1902  2 */\n      0x02\n        /* \"Campaign.sol\":1884:1898  approversCount */\n      sload(0x05)\n        /* \"Campaign.sol\":1884:1902  approversCount / 2 */\n      tag_89\n      swap2\n      swap1\n      tag_90\n      jump\t// in\n    tag_89:\n        /* \"Campaign.sol\":1859:1866  request */\n      dup2\n        /* \"Campaign.sol\":1859:1880  request.approvalCount */\n      0x03\n      add\n      sload\n        /* \"Campaign.sol\":1859:1903  request.approvalCount > (approversCount / 2) */\n      gt\n        /* \"Campaign.sol\":1851:1928  require(request.approvalCount > (approversCount / 2), \"Request not approved\") */\n      tag_91\n      jumpi\n      mload(0x40)\n      0x08c379a000000000000000000000000000000000000000000000000000000000\n      dup2\n      mstore\n      0x04\n      add\n      tag_92\n      swap1\n      tag_93\n      jump\t// in\n    tag_92:\n      mload(0x40)\n      dup1\n      swap2\n      sub\n      swap1\n      revert\n    tag_91:\n        /* \"Campaign.sol\":1947:1954  request */\n      dup1\n        /* \"Campaign.sol\":1947:1964  request.recipient */\n      0x02\n      add\n      0x00\n      swap1\n      sload\n      swap1\n      0x0100\n      exp\n      swap1\n      div\n      0xffffffffffffffffffffffffffffffffffffffff\n      and\n        /* \"Campaign.sol\":1947:1973  request.recipient.transfer */\n      0xffffffffffffffffffffffffffffffffffffffff\n      and\n        /* \"Campaign.sol\":1947:1988  request.recipient.transfer(request.value) */\n      0x08fc\n        /* \"Campaign.sol\":1974:1981  request */\n      dup3\n        /* \"Campaign.sol\":1974:1987  request.value */\n      0x01\n      add\n      sload\n        /* \"Campaign.sol\":1947:1988  request.recipient.transfer(request.value) */\n      swap1\n      dup2\n      iszero\n      mul\n      swap1\n      mload(0x40)\n      0x00\n      mload(0x40)\n      dup1\n      dup4\n      sub\n      dup2\n      dup6\n      dup9\n      dup9\n      call\n      swap4\n      pop\n      pop\n      pop\n      pop\n      iszero\n      dup1\n      iszero\n      tag_95\n      jumpi\n      returndatasize\n      0x00\n      dup1\n      returndatacopy\n      revert(0x00, returndatasize)\n    tag_95:\n      pop\n        /* \"Campaign.sol\":2017:2021  true */\n      0x01\n        /* \"Campaign.sol\":1998:2005  request */\n      dup2\n        /* \"Campaign.sol\":1998:2014  request.complete */\n      0x02\n      add\n      0x14\n        /* \"Campaign.sol\":1998:2021  request.complete = true */\n      0x0100\n      exp\n      dup2\n      sload\n      dup2\n      0xff\n      mul\n      not\n      and\n      swap1\n      dup4\n      iszero\n      iszero\n      mul\n      or\n      swap1\n      sstore\n      pop\n        /* \"Campaign.sol\":587:588  _ */\n      pop\n        /* \"Campaign.sol\":1666:2028  function finalizeRequest(uint index) public onlyManager {... */\n      pop\n      jump\t// out\n        /* \"Campaign.sol\":351:392  mapping(address => bool) public approvers */\n    tag_26:\n      mstore(0x20, 0x03)\n      dup1\n      0x00\n      mstore\n      keccak256(0x00, 0x40)\n      0x00\n      swap2\n      pop\n      sload\n      swap1\n      0x0100\n      exp\n      swap1\n      div\n      0xff\n      and\n      dup2\n      jump\t// out\n        /* \"Campaign.sol\":2399:2493  function getRequestsCount() public view returns (uint) {... */\n    tag_31:\n        /* \"Campaign.sol\":2448:2452  uint */\n      0x00\n        /* \"Campaign.sol\":2471:2479  requests */\n      0x02\n        /* \"Campaign.sol\":2471:2486  requests.length */\n      dup1\n      sload\n      swap1\n      pop\n        /* \"Campaign.sol\":2464:2486  return requests.length */\n      swap1\n      pop\n        /* \"Campaign.sol\":2399:2493  function getRequestsCount() public view returns (uint) {... */\n      swap1\n      jump\t// out\n        /* \"Campaign.sol\":2034:2393  function getSummary() public view returns(uint minimum, uint balance, ... */\n    tag_36:\n        /* \"Campaign.sol\":2076:2088  uint minimum */\n      0x00\n        /* \"Campaign.sol\":2090:2102  uint balance */\n      dup1\n        /* \"Campaign.sol\":2153:2170  uint requestsSize */\n      0x00\n        /* \"Campaign.sol\":2172:2190  uint approversSize */\n      dup1\n        /* \"Campaign.sol\":2192:2213  address managerAdress */\n      0x00\n        /* \"Campaign.sol\":2244:2263  minimumContribution */\n      sload(0x01)\n        /* \"Campaign.sol\":2277:2298  address(this).balance */\n      selfbalance\n        /* \"Campaign.sol\":2312:2320  requests */\n      0x02\n        /* \"Campaign.sol\":2312:2327  requests.length */\n      dup1\n      sload\n      swap1\n      pop\n        /* \"Campaign.sol\":2341:2355  approversCount */\n      sload(0x05)\n        /* \"Campaign.sol\":2369:2376  manager */\n      0x00\n      dup1\n      sload\n      swap1\n      0x0100\n      exp\n      swap1\n      div\n      0xffffffffffffffffffffffffffffffffffffffff\n      and\n        /* \"Campaign.sol\":2224:2386  return(... */\n      swap5\n      pop\n      swap5\n      pop\n      swap5\n      pop\n      swap5\n      pop\n      swap5\n      pop\n        /* \"Campaign.sol\":2034:2393  function getSummary() public view returns(uint minimum, uint balance, ... */\n      swap1\n      swap2\n      swap3\n      swap4\n      swap5\n      jump\t// out\n        /* \"Campaign.sol\":251:273  address public manager */\n    tag_41:\n      0x00\n      dup1\n      sload\n      swap1\n      0x0100\n      exp\n      swap1\n      div\n      0xffffffffffffffffffffffffffffffffffffffff\n      and\n      dup2\n      jump\t// out\n        /* \"Campaign.sol\":316:341  Request[] public requests */\n    tag_47:\n      0x02\n      dup2\n      dup2\n      sload\n      dup2\n      lt\n      tag_98\n      jumpi\n      0x00\n      dup1\n      revert\n    tag_98:\n      swap1\n      0x00\n      mstore\n      keccak256(0x00, 0x20)\n      swap1\n      0x04\n      mul\n      add\n      0x00\n      swap2\n      pop\n      swap1\n      pop\n      dup1\n      0x00\n      add\n      dup1\n      sload\n      tag_100\n      swap1\n      tag_101\n      jump\t// in\n    tag_100:\n      dup1\n      0x1f\n      add\n      0x20\n      dup1\n      swap2\n      div\n      mul\n      0x20\n      add\n      mload(0x40)\n      swap1\n      dup2\n      add\n      0x40\n      mstore\n      dup1\n      swap3\n      swap2\n      swap1\n      dup2\n      dup2\n      mstore\n      0x20\n      add\n      dup3\n      dup1\n      sload\n      tag_102\n      swap1\n      tag_101\n      jump\t// in\n    tag_102:\n      dup1\n      iszero\n      tag_103\n      jumpi\n      dup1\n      0x1f\n      lt\n      tag_104\n      jumpi\n      0x0100\n      dup1\n      dup4\n      sload\n      div\n      mul\n      dup4\n      mstore\n      swap2\n      0x20\n      add\n      swap2\n      jump(tag_103)\n    tag_104:\n      dup3\n      add\n      swap2\n      swap1\n      0x00\n      mstore\n      keccak256(0x00, 0x20)\n      swap1\n    tag_105:\n      dup2\n      sload\n      dup2\n      mstore\n      swap1\n      0x01\n      add\n      swap1\n      0x20\n      add\n      dup1\n      dup4\n      gt\n      tag_105\n      jumpi\n      dup3\n      swap1\n      sub\n      0x1f\n      and\n      dup3\n      add\n      swap2\n    tag_103:\n      pop\n      pop\n      pop\n      pop\n      pop\n      swap1\n      dup1\n      0x01\n      add\n      sload\n      swap1\n      dup1\n      0x02\n      add\n      0x00\n      swap1\n      sload\n      swap1\n      0x0100\n      exp\n      swap1\n      div\n      0xffffffffffffffffffffffffffffffffffffffff\n      and\n      swap1\n      dup1\n      0x02\n      add\n      0x14\n      swap1\n      sload\n      swap1\n      0x0100\n      exp\n      swap1\n      div\n      0xff\n      and\n      swap1\n      dup1\n      0x03\n      add\n      sload\n      swap1\n      pop\n      dup6\n      jump\t// out\n        /* \"Campaign.sol\":450:476  uint public approversCount */\n    tag_52:\n      sload(0x05)\n      dup2\n      jump\t// out\n        /* \"Campaign.sol\":967:1325  function createRequest(string memory description, uint value, address payable recipient) public onlyManager {... */\n    tag_58:\n        /* \"Campaign.sol\":547:554  manager */\n      0x00\n      dup1\n      sload\n      swap1\n      0x0100\n      exp\n      swap1\n      div\n      0xffffffffffffffffffffffffffffffffffffffff\n      and\n        /* \"Campaign.sol\":533:554  msg.sender == manager */\n      0xffffffffffffffffffffffffffffffffffffffff\n      and\n        /* \"Campaign.sol\":533:543  msg.sender */\n      caller\n        /* \"Campaign.sol\":533:554  msg.sender == manager */\n      0xffffffffffffffffffffffffffffffffffffffff\n      and\n      eq\n        /* \"Campaign.sol\":525:577  require(msg.sender == manager, \"Permission denied.\") */\n      tag_107\n      jumpi\n      mload(0x40)\n      0x08c379a000000000000000000000000000000000000000000000000000000000\n      dup2\n      mstore\n      0x04\n      add\n      tag_108\n      swap1\n      tag_82\n      jump\t// in\n    tag_108:\n      mload(0x40)\n      dup1\n      swap2\n      sub\n      swap1\n      revert\n    tag_107:\n        /* \"Campaign.sol\":1085:1107  Request memory request */\n      0x00\n        /* \"Campaign.sol\":1110:1286  Request({... */\n      mload(0x40)\n      dup1\n      0xa0\n      add\n      0x40\n      mstore\n      dup1\n        /* \"Campaign.sol\":1145:1156  description */\n      dup6\n        /* \"Campaign.sol\":1110:1286  Request({... */\n      dup2\n      mstore\n      0x20\n      add\n        /* \"Campaign.sol\":1177:1182  value */\n      dup5\n        /* \"Campaign.sol\":1110:1286  Request({... */\n      dup2\n      mstore\n      0x20\n      add\n        /* \"Campaign.sol\":1207:1216  recipient */\n      dup4\n        /* \"Campaign.sol\":1110:1286  Request({... */\n      0xffffffffffffffffffffffffffffffffffffffff\n      and\n      dup2\n      mstore\n      0x20\n      add\n        /* \"Campaign.sol\":1240:1245  false */\n      0x00\n        /* \"Campaign.sol\":1110:1286  Request({... */\n      iszero\n      iszero\n      dup2\n      mstore\n      0x20\n      add\n        /* \"Campaign.sol\":1274:1275  0 */\n      0x00\n        /* \"Campaign.sol\":1110:1286  Request({... */\n      dup2\n      mstore\n      pop\n        /* \"Campaign.sol\":1085:1286  Request memory request = Request({... */\n      swap1\n      pop\n        /* \"Campaign.sol\":1296:1304  requests */\n      0x02\n        /* \"Campaign.sol\":1310:1317  request */\n      dup2\n        /* \"Campaign.sol\":1296:1318  requests.push(request) */\n      swap1\n      dup1\n      0x01\n      dup2\n      sload\n      add\n      dup1\n      dup3\n      sstore\n      dup1\n      swap2\n      pop\n      pop\n      0x01\n      swap1\n      sub\n      swap1\n      0x00\n      mstore\n      keccak256(0x00, 0x20)\n      swap1\n      0x04\n      mul\n      add\n      0x00\n      swap1\n      swap2\n      swap1\n      swap2\n      swap1\n      swap2\n      pop\n      0x00\n      dup3\n      add\n      mload\n      dup2\n      0x00\n      add\n      swap1\n      dup1\n      mload\n      swap1\n      0x20\n      add\n      swap1\n      tag_111\n      swap3\n      swap2\n      swap1\n      tag_112\n      jump\t// in\n    tag_111:\n      pop\n      0x20\n      dup3\n      add\n      mload\n      dup2\n      0x01\n      add\n      sstore\n      0x40\n      dup3\n      add\n      mload\n      dup2\n      0x02\n      add\n      exp(0x0100, 0x00)\n      dup2\n      sload\n      dup2\n      0xffffffffffffffffffffffffffffffffffffffff\n      mul\n      not\n      and\n      swap1\n      dup4\n      0xffffffffffffffffffffffffffffffffffffffff\n      and\n      mul\n      or\n      swap1\n      sstore\n      pop\n      0x60\n      dup3\n      add\n      mload\n      dup2\n      0x02\n      add\n      exp(0x0100, 0x14)\n      dup2\n      sload\n      dup2\n      0xff\n      mul\n      not\n      and\n      swap1\n      dup4\n      iszero\n      iszero\n      mul\n      or\n      swap1\n      sstore\n      pop\n      0x80\n      dup3\n      add\n      mload\n      dup2\n      0x03\n      add\n      sstore\n      pop\n      pop\n        /* \"Campaign.sol\":587:588  _ */\n      pop\n        /* \"Campaign.sol\":967:1325  function createRequest(string memory description, uint value, address payable recipient) public onlyManager {... */\n      pop\n      pop\n      pop\n      jump\t// out\n        /* \"Campaign.sol\":279:310  uint public minimumContribution */\n    tag_61:\n      sload(0x01)\n      dup2\n      jump\t// out\n        /* \"Campaign.sol\":398:444  mapping(uint => address) public approversVoted */\n    tag_66:\n      mstore(0x20, 0x04)\n      dup1\n      0x00\n      mstore\n      keccak256(0x00, 0x40)\n      0x00\n      swap2\n      pop\n      sload\n      swap1\n      0x0100\n      exp\n      swap1\n      div\n      0xffffffffffffffffffffffffffffffffffffffff\n      and\n      dup2\n      jump\t// out\n        /* \"Campaign.sol\":731:957  function contribute() public payable {... */\n    tag_69:\n        /* \"Campaign.sol\":799:818  minimumContribution */\n      sload(0x01)\n        /* \"Campaign.sol\":786:795  msg.value */\n      callvalue\n        /* \"Campaign.sol\":786:818  msg.value >= minimumContribution */\n      lt\n      iszero\n        /* \"Campaign.sol\":778:877  require(msg.value >= minimumContribution, \"Valor enviado menor que o valor minimo de contribuicao\") */\n      tag_114\n      jumpi\n      mload(0x40)\n      0x08c379a000000000000000000000000000000000000000000000000000000000\n      dup2\n      mstore\n      0x04\n      add\n      tag_115\n      swap1\n      tag_116\n      jump\t// in\n    tag_115:\n      mload(0x40)\n      dup1\n      swap2\n      sub\n      swap1\n      revert\n    tag_114:\n        /* \"Campaign.sol\":920:924  true */\n      0x01\n        /* \"Campaign.sol\":896:905  approvers */\n      0x03\n        /* \"Campaign.sol\":896:917  approvers[msg.sender] */\n      0x00\n        /* \"Campaign.sol\":906:916  msg.sender */\n      caller\n        /* \"Campaign.sol\":896:917  approvers[msg.sender] */\n      0xffffffffffffffffffffffffffffffffffffffff\n      and\n      0xffffffffffffffffffffffffffffffffffffffff\n      and\n      dup2\n      mstore\n      0x20\n      add\n      swap1\n      dup2\n      mstore\n      0x20\n      add\n      0x00\n      keccak256\n      0x00\n        /* \"Campaign.sol\":896:924  approvers[msg.sender] = true */\n      0x0100\n      exp\n      dup2\n      sload\n      dup2\n      0xff\n      mul\n      not\n      and\n      swap1\n      dup4\n      iszero\n      iszero\n      mul\n      or\n      swap1\n      sstore\n      pop\n        /* \"Campaign.sol\":934:948  approversCount */\n      0x05\n      0x00\n        /* \"Campaign.sol\":934:950  approversCount++ */\n      dup2\n      sload\n      dup1\n      swap3\n      swap2\n      swap1\n      tag_117\n      swap1\n      tag_118\n      jump\t// in\n    tag_117:\n      swap2\n      swap1\n      pop\n      sstore\n      pop\n        /* \"Campaign.sol\":731:957  function contribute() public payable {... */\n      jump\t// out\n        /* \"Campaign.sol\":1335:1656  function approveRequest(uint index) public {... */\n    tag_73:\n        /* \"Campaign.sol\":1396:1405  approvers */\n      0x03\n        /* \"Campaign.sol\":1396:1417  approvers[msg.sender] */\n      0x00\n        /* \"Campaign.sol\":1406:1416  msg.sender */\n      caller\n        /* \"Campaign.sol\":1396:1417  approvers[msg.sender] */\n      0xffffffffffffffffffffffffffffffffffffffff\n      and\n      0xffffffffffffffffffffffffffffffffffffffff\n      and\n      dup2\n      mstore\n      0x20\n      add\n      swap1\n      dup2\n      mstore\n      0x20\n      add\n      0x00\n      keccak256\n      0x00\n      swap1\n      sload\n      swap1\n      0x0100\n      exp\n      swap1\n      div\n      0xff\n      and\n        /* \"Campaign.sol\":1388:1468  require(approvers[msg.sender], \"Voca nao tem permissao para aprovar o projeto.\") */\n      tag_120\n      jumpi\n      mload(0x40)\n      0x08c379a000000000000000000000000000000000000000000000000000000000\n      dup2\n      mstore\n      0x04\n      add\n      tag_121\n      swap1\n      tag_122\n      jump\t// in\n    tag_121:\n      mload(0x40)\n      dup1\n      swap2\n      sub\n      swap1\n      revert\n    tag_120:\n        /* \"Campaign.sol\":1513:1523  msg.sender */\n      caller\n        /* \"Campaign.sol\":1488:1523  approversVoted[index] == msg.sender */\n      0xffffffffffffffffffffffffffffffffffffffff\n      and\n        /* \"Campaign.sol\":1488:1502  approversVoted */\n      0x04\n        /* \"Campaign.sol\":1488:1509  approversVoted[index] */\n      0x00\n        /* \"Campaign.sol\":1503:1508  index */\n      dup4\n        /* \"Campaign.sol\":1488:1509  approversVoted[index] */\n      dup2\n      mstore\n      0x20\n      add\n      swap1\n      dup2\n      mstore\n      0x20\n      add\n      0x00\n      keccak256\n      0x00\n      swap1\n      sload\n      swap1\n      0x0100\n      exp\n      swap1\n      div\n      0xffffffffffffffffffffffffffffffffffffffff\n      and\n        /* \"Campaign.sol\":1488:1523  approversVoted[index] == msg.sender */\n      0xffffffffffffffffffffffffffffffffffffffff\n      and\n      eq\n        /* \"Campaign.sol\":1486:1524  !(approversVoted[index] == msg.sender) */\n      iszero\n        /* \"Campaign.sol\":1478:1545  require(!(approversVoted[index] == msg.sender), \"Voce ja aprovou.\") */\n      tag_123\n      jumpi\n      mload(0x40)\n      0x08c379a000000000000000000000000000000000000000000000000000000000\n      dup2\n      mstore\n      0x04\n      add\n      tag_124\n      swap1\n      tag_125\n      jump\t// in\n    tag_124:\n      mload(0x40)\n      dup1\n      swap2\n      sub\n      swap1\n      revert\n    tag_123:\n        /* \"Campaign.sol\":1565:1573  requests */\n      0x02\n        /* \"Campaign.sol\":1574:1579  index */\n      dup2\n        /* \"Campaign.sol\":1565:1580  requests[index] */\n      dup2\n      sload\n      dup2\n      lt\n      tag_126\n      jumpi\n      mstore(0x00, 0x4e487b7100000000000000000000000000000000000000000000000000000000)\n      mstore(0x04, 0x32)\n      revert(0x00, 0x24)\n    tag_126:\n      swap1\n      0x00\n      mstore\n      keccak256(0x00, 0x20)\n      swap1\n      0x04\n      mul\n      add\n        /* \"Campaign.sol\":1565:1594  requests[index].approvalCount */\n      0x03\n      add\n      0x00\n        /* \"Campaign.sol\":1565:1596  requests[index].approvalCount++ */\n      dup2\n      sload\n      dup1\n      swap3\n      swap2\n      swap1\n      tag_128\n      swap1\n      tag_118\n      jump\t// in\n    tag_128:\n      swap2\n      swap1\n      pop\n      sstore\n      pop\n        /* \"Campaign.sol\":1630:1640  msg.sender */\n      caller\n        /* \"Campaign.sol\":1606:1620  approversVoted */\n      0x04\n        /* \"Campaign.sol\":1606:1627  approversVoted[index] */\n      0x00\n        /* \"Campaign.sol\":1621:1626  index */\n      dup4\n        /* \"Campaign.sol\":1606:1627  approversVoted[index] */\n      dup2\n      mstore\n      0x20\n      add\n      swap1\n      dup2\n      mstore\n      0x20\n      add\n      0x00\n      keccak256\n      0x00\n        /* \"Campaign.sol\":1606:1640  approversVoted[index] = msg.sender */\n      0x0100\n      exp\n      dup2\n      sload\n      dup2\n      0xffffffffffffffffffffffffffffffffffffffff\n      mul\n      not\n      and\n      swap1\n      dup4\n      0xffffffffffffffffffffffffffffffffffffffff\n      and\n      mul\n      or\n      swap1\n      sstore\n      pop\n        /* \"Campaign.sol\":1335:1656  function approveRequest(uint index) public {... */\n      pop\n      jump\t// out\n        /* \"Campaign.sol\":2503:2600  function getAllRequests() public view returns (Request[] memory) {... */\n    tag_76:\n        /* \"Campaign.sol\":2550:2566  Request[] memory */\n      0x60\n        /* \"Campaign.sol\":2585:2593  requests */\n      0x02\n        /* \"Campaign.sol\":2578:2593  return requests */\n      dup1\n      sload\n      dup1\n      0x20\n      mul\n      0x20\n      add\n      mload(0x40)\n      swap1\n      dup2\n      add\n      0x40\n      mstore\n      dup1\n      swap3\n      swap2\n      swap1\n      dup2\n      dup2\n      mstore\n      0x20\n      add\n      0x00\n      swap1\n    tag_130:\n      dup3\n      dup3\n      lt\n      iszero\n      tag_131\n      jumpi\n      dup4\n      dup3\n      swap1\n      0x00\n      mstore\n      keccak256(0x00, 0x20)\n      swap1\n      0x04\n      mul\n      add\n      mload(0x40)\n      dup1\n      0xa0\n      add\n      0x40\n      mstore\n      swap1\n      dup2\n      0x00\n      dup3\n      add\n      dup1\n      sload\n      tag_133\n      swap1\n      tag_101\n      jump\t// in\n    tag_133:\n      dup1\n      0x1f\n      add\n      0x20\n      dup1\n      swap2\n      div\n      mul\n      0x20\n      add\n      mload(0x40)\n      swap1\n      dup2\n      add\n      0x40\n      mstore\n      dup1\n      swap3\n      swap2\n      swap1\n      dup2\n      dup2\n      mstore\n      0x20\n      add\n      dup3\n      dup1\n      sload\n      tag_134\n      swap1\n      tag_101\n      jump\t// in\n    tag_134:\n      dup1\n      iszero\n      tag_135\n      jumpi\n      dup1\n      0x1f\n      lt\n      tag_136\n      jumpi\n      0x0100\n      dup1\n      dup4\n      sload\n      div\n      mul\n      dup4\n      mstore\n      swap2\n      0x20\n      add\n      swap2\n      jump(tag_135)\n    tag_136:\n      dup3\n      add\n      swap2\n      swap1\n      0x00\n      mstore\n      keccak256(0x00, 0x20)\n      swap1\n    tag_137:\n      dup2\n      sload\n      dup2\n      mstore\n      swap1\n      0x01\n      add\n      swap1\n      0x20\n      add\n      dup1\n      dup4\n      gt\n      tag_137\n      jumpi\n      dup3\n      swap1\n      sub\n      0x1f\n      and\n      dup3\n      add\n      swap2\n    tag_135:\n      pop\n      pop\n      pop\n      pop\n      pop\n      dup2\n      mstore\n      0x20\n      add\n      0x01\n      dup3\n      add\n      sload\n      dup2\n      mstore\n      0x20\n      add\n      0x02\n      dup3\n      add\n      0x00\n      swap1\n      sload\n      swap1\n      0x0100\n      exp\n      swap1\n      div\n      0xffffffffffffffffffffffffffffffffffffffff\n      and\n      0xffffffffffffffffffffffffffffffffffffffff\n      and\n      0xffffffffffffffffffffffffffffffffffffffff\n      and\n      dup2\n      mstore\n      0x20\n      add\n      0x02\n      dup3\n      add\n      0x14\n      swap1\n      sload\n      swap1\n      0x0100\n      exp\n      swap1\n      div\n      0xff\n      and\n      iszero\n      iszero\n      iszero\n      iszero\n      dup2\n      mstore\n      0x20\n      add\n      0x03\n      dup3\n      add\n      sload\n      dup2\n      mstore\n      pop\n      pop\n      dup2\n      mstore\n      0x20\n      add\n      swap1\n      0x01\n      add\n      swap1\n      jump(tag_130)\n    tag_131:\n      pop\n      pop\n      pop\n      pop\n      swap1\n      pop\n        /* \"Campaign.sol\":2503:2600  function getAllRequests() public view returns (Request[] memory) {... */\n      swap1\n      jump\t// out\n    tag_112:\n      dup3\n      dup1\n      sload\n      tag_138\n      swap1\n      tag_101\n      jump\t// in\n    tag_138:\n      swap1\n      0x00\n      mstore\n      keccak256(0x00, 0x20)\n      swap1\n      0x1f\n      add\n      0x20\n      swap1\n      div\n      dup2\n      add\n      swap3\n      dup3\n      tag_140\n      jumpi\n      0x00\n      dup6\n      sstore\n      jump(tag_139)\n    tag_140:\n      dup3\n      0x1f\n      lt\n      tag_141\n      jumpi\n      dup1\n      mload\n      not(0xff)\n      and\n      dup4\n      dup1\n      add\n      or\n      dup6\n      sstore\n      jump(tag_139)\n    tag_141:\n      dup3\n      dup1\n      add\n      0x01\n      add\n      dup6\n      sstore\n      dup3\n      iszero\n      tag_139\n      jumpi\n      swap2\n      dup3\n      add\n    tag_142:\n      dup3\n      dup2\n      gt\n      iszero\n      tag_143\n      jumpi\n      dup3\n      mload\n      dup3\n      sstore\n      swap2\n      0x20\n      add\n      swap2\n      swap1\n      0x01\n      add\n      swap1\n      jump(tag_142)\n    tag_143:\n    tag_139:\n      pop\n      swap1\n      pop\n      tag_144\n      swap2\n      swap1\n      tag_145\n      jump\t// in\n    tag_144:\n      pop\n      swap1\n      jump\t// out\n    tag_145:\n    tag_146:\n      dup1\n      dup3\n      gt\n      iszero\n      tag_147\n      jumpi\n      0x00\n      dup2\n      0x00\n      swap1\n      sstore\n      pop\n      0x01\n      add\n      jump(tag_146)\n    tag_147:\n      pop\n      swap1\n      jump\t// out\n        /* \"#utility.yul\":7:352   */\n    tag_149:\n      0x00\n        /* \"#utility.yul\":110:176   */\n      tag_151\n        /* \"#utility.yul\":126:175   */\n      tag_152\n        /* \"#utility.yul\":168:174   */\n      dup5\n        /* \"#utility.yul\":126:175   */\n      tag_153\n      jump\t// in\n    tag_152:\n        /* \"#utility.yul\":110:176   */\n      tag_154\n      jump\t// in\n    tag_151:\n        /* \"#utility.yul\":101:176   */\n      swap1\n      pop\n        /* \"#utility.yul\":199:205   */\n      dup3\n        /* \"#utility.yul\":192:197   */\n      dup2\n        /* \"#utility.yul\":185:206   */\n      mstore\n        /* \"#utility.yul\":237:241   */\n      0x20\n        /* \"#utility.yul\":230:235   */\n      dup2\n        /* \"#utility.yul\":226:242   */\n      add\n        /* \"#utility.yul\":275:278   */\n      dup5\n        /* \"#utility.yul\":266:272   */\n      dup5\n        /* \"#utility.yul\":261:264   */\n      dup5\n        /* \"#utility.yul\":257:273   */\n      add\n        /* \"#utility.yul\":254:279   */\n      gt\n        /* \"#utility.yul\":251:253   */\n      iszero\n      tag_155\n      jumpi\n        /* \"#utility.yul\":292:293   */\n      0x00\n        /* \"#utility.yul\":289:290   */\n      dup1\n        /* \"#utility.yul\":282:294   */\n      revert\n        /* \"#utility.yul\":251:253   */\n    tag_155:\n        /* \"#utility.yul\":305:346   */\n      tag_156\n        /* \"#utility.yul\":339:345   */\n      dup5\n        /* \"#utility.yul\":334:337   */\n      dup3\n        /* \"#utility.yul\":329:332   */\n      dup6\n        /* \"#utility.yul\":305:346   */\n      tag_157\n      jump\t// in\n    tag_156:\n        /* \"#utility.yul\":91:352   */\n      pop\n      swap4\n      swap3\n      pop\n      pop\n      pop\n      jump\t// out\n        /* \"#utility.yul\":358:497   */\n    tag_158:\n      0x00\n        /* \"#utility.yul\":442:448   */\n      dup2\n        /* \"#utility.yul\":429:449   */\n      calldataload\n        /* \"#utility.yul\":420:449   */\n      swap1\n      pop\n        /* \"#utility.yul\":458:491   */\n      tag_160\n        /* \"#utility.yul\":485:490   */\n      dup2\n        /* \"#utility.yul\":458:491   */\n      tag_161\n      jump\t// in\n    tag_160:\n        /* \"#utility.yul\":410:497   */\n      swap3\n      swap2\n      pop\n      pop\n      jump\t// out\n        /* \"#utility.yul\":503:658   */\n    tag_162:\n      0x00\n        /* \"#utility.yul\":595:601   */\n      dup2\n        /* \"#utility.yul\":582:602   */\n      calldataload\n        /* \"#utility.yul\":573:602   */\n      swap1\n      pop\n        /* \"#utility.yul\":611:652   */\n      tag_164\n        /* \"#utility.yul\":646:651   */\n      dup2\n        /* \"#utility.yul\":611:652   */\n      tag_165\n      jump\t// in\n    tag_164:\n        /* \"#utility.yul\":563:658   */\n      swap3\n      swap2\n      pop\n      pop\n      jump\t// out\n        /* \"#utility.yul\":678:951   */\n    tag_166:\n      0x00\n        /* \"#utility.yul\":783:786   */\n      dup3\n        /* \"#utility.yul\":776:780   */\n      0x1f\n        /* \"#utility.yul\":768:774   */\n      dup4\n        /* \"#utility.yul\":764:781   */\n      add\n        /* \"#utility.yul\":760:787   */\n      slt\n        /* \"#utility.yul\":750:752   */\n      tag_168\n      jumpi\n        /* \"#utility.yul\":801:802   */\n      0x00\n        /* \"#utility.yul\":798:799   */\n      dup1\n        /* \"#utility.yul\":791:803   */\n      revert\n        /* \"#utility.yul\":750:752   */\n    tag_168:\n        /* \"#utility.yul\":841:847   */\n      dup2\n        /* \"#utility.yul\":828:848   */\n      calldataload\n        /* \"#utility.yul\":866:945   */\n      tag_169\n        /* \"#utility.yul\":941:944   */\n      dup5\n        /* \"#utility.yul\":933:939   */\n      dup3\n        /* \"#utility.yul\":926:930   */\n      0x20\n        /* \"#utility.yul\":918:924   */\n      dup7\n        /* \"#utility.yul\":914:931   */\n      add\n        /* \"#utility.yul\":866:945   */\n      tag_149\n      jump\t// in\n    tag_169:\n        /* \"#utility.yul\":857:945   */\n      swap2\n      pop\n        /* \"#utility.yul\":740:951   */\n      pop\n      swap3\n      swap2\n      pop\n      pop\n      jump\t// out\n        /* \"#utility.yul\":957:1096   */\n    tag_170:\n      0x00\n        /* \"#utility.yul\":1041:1047   */\n      dup2\n        /* \"#utility.yul\":1028:1048   */\n      calldataload\n        /* \"#utility.yul\":1019:1048   */\n      swap1\n      pop\n        /* \"#utility.yul\":1057:1090   */\n      tag_172\n        /* \"#utility.yul\":1084:1089   */\n      dup2\n        /* \"#utility.yul\":1057:1090   */\n      tag_173\n      jump\t// in\n    tag_172:\n        /* \"#utility.yul\":1009:1096   */\n      swap3\n      swap2\n      pop\n      pop\n      jump\t// out\n        /* \"#utility.yul\":1102:1364   */\n    tag_25:\n      0x00\n        /* \"#utility.yul\":1210:1212   */\n      0x20\n        /* \"#utility.yul\":1198:1207   */\n      dup3\n        /* \"#utility.yul\":1189:1196   */\n      dup5\n        /* \"#utility.yul\":1185:1208   */\n      sub\n        /* \"#utility.yul\":1181:1213   */\n      slt\n        /* \"#utility.yul\":1178:1180   */\n      iszero\n      tag_175\n      jumpi\n        /* \"#utility.yul\":1226:1227   */\n      0x00\n        /* \"#utility.yul\":1223:1224   */\n      dup1\n        /* \"#utility.yul\":1216:1228   */\n      revert\n        /* \"#utility.yul\":1178:1180   */\n    tag_175:\n        /* \"#utility.yul\":1269:1270   */\n      0x00\n        /* \"#utility.yul\":1294:1347   */\n      tag_176\n        /* \"#utility.yul\":1339:1346   */\n      dup5\n        /* \"#utility.yul\":1330:1336   */\n      dup3\n        /* \"#utility.yul\":1319:1328   */\n      dup6\n        /* \"#utility.yul\":1315:1337   */\n      add\n        /* \"#utility.yul\":1294:1347   */\n      tag_158\n      jump\t// in\n    tag_176:\n        /* \"#utility.yul\":1284:1347   */\n      swap2\n      pop\n        /* \"#utility.yul\":1240:1357   */\n      pop\n        /* \"#utility.yul\":1168:1364   */\n      swap3\n      swap2\n      pop\n      pop\n      jump\t// out\n        /* \"#utility.yul\":1370:2051   */\n    tag_57:\n      0x00\n      dup1\n      0x00\n        /* \"#utility.yul\":1530:1532   */\n      0x60\n        /* \"#utility.yul\":1518:1527   */\n      dup5\n        /* \"#utility.yul\":1509:1516   */\n      dup7\n        /* \"#utility.yul\":1505:1528   */\n      sub\n        /* \"#utility.yul\":1501:1533   */\n      slt\n        /* \"#utility.yul\":1498:1500   */\n      iszero\n      tag_178\n      jumpi\n        /* \"#utility.yul\":1546:1547   */\n      0x00\n        /* \"#utility.yul\":1543:1544   */\n      dup1\n        /* \"#utility.yul\":1536:1548   */\n      revert\n        /* \"#utility.yul\":1498:1500   */\n    tag_178:\n        /* \"#utility.yul\":1617:1618   */\n      0x00\n        /* \"#utility.yul\":1606:1615   */\n      dup5\n        /* \"#utility.yul\":1602:1619   */\n      add\n        /* \"#utility.yul\":1589:1620   */\n      calldataload\n        /* \"#utility.yul\":1647:1665   */\n      0xffffffffffffffff\n        /* \"#utility.yul\":1639:1645   */\n      dup2\n        /* \"#utility.yul\":1636:1666   */\n      gt\n        /* \"#utility.yul\":1633:1635   */\n      iszero\n      tag_179\n      jumpi\n        /* \"#utility.yul\":1679:1680   */\n      0x00\n        /* \"#utility.yul\":1676:1677   */\n      dup1\n        /* \"#utility.yul\":1669:1681   */\n      revert\n        /* \"#utility.yul\":1633:1635   */\n    tag_179:\n        /* \"#utility.yul\":1707:1770   */\n      tag_180\n        /* \"#utility.yul\":1762:1769   */\n      dup7\n        /* \"#utility.yul\":1753:1759   */\n      dup3\n        /* \"#utility.yul\":1742:1751   */\n      dup8\n        /* \"#utility.yul\":1738:1760   */\n      add\n        /* \"#utility.yul\":1707:1770   */\n      tag_166\n      jump\t// in\n    tag_180:\n        /* \"#utility.yul\":1697:1770   */\n      swap4\n      pop\n        /* \"#utility.yul\":1560:1780   */\n      pop\n        /* \"#utility.yul\":1819:1821   */\n      0x20\n        /* \"#utility.yul\":1845:1898   */\n      tag_181\n        /* \"#utility.yul\":1890:1897   */\n      dup7\n        /* \"#utility.yul\":1881:1887   */\n      dup3\n        /* \"#utility.yul\":1870:1879   */\n      dup8\n        /* \"#utility.yul\":1866:1888   */\n      add\n        /* \"#utility.yul\":1845:1898   */\n      tag_170\n      jump\t// in\n    tag_181:\n        /* \"#utility.yul\":1835:1898   */\n      swap3\n      pop\n        /* \"#utility.yul\":1790:1908   */\n      pop\n        /* \"#utility.yul\":1947:1949   */\n      0x40\n        /* \"#utility.yul\":1973:2034   */\n      tag_182\n        /* \"#utility.yul\":2026:2033   */\n      dup7\n        /* \"#utility.yul\":2017:2023   */\n      dup3\n        /* \"#utility.yul\":2006:2015   */\n      dup8\n        /* \"#utility.yul\":2002:2024   */\n      add\n        /* \"#utility.yul\":1973:2034   */\n      tag_162\n      jump\t// in\n    tag_182:\n        /* \"#utility.yul\":1963:2034   */\n      swap2\n      pop\n        /* \"#utility.yul\":1918:2044   */\n      pop\n        /* \"#utility.yul\":1488:2051   */\n      swap3\n      pop\n      swap3\n      pop\n      swap3\n      jump\t// out\n        /* \"#utility.yul\":2057:2319   */\n    tag_20:\n      0x00\n        /* \"#utility.yul\":2165:2167   */\n      0x20\n        /* \"#utility.yul\":2153:2162   */\n      dup3\n        /* \"#utility.yul\":2144:2151   */\n      dup5\n        /* \"#utility.yul\":2140:2163   */\n      sub\n        /* \"#utility.yul\":2136:2168   */\n      slt\n        /* \"#utility.yul\":2133:2135   */\n      iszero\n      tag_184\n      jumpi\n        /* \"#utility.yul\":2181:2182   */\n      0x00\n        /* \"#utility.yul\":2178:2179   */\n      dup1\n        /* \"#utility.yul\":2171:2183   */\n      revert\n        /* \"#utility.yul\":2133:2135   */\n    tag_184:\n        /* \"#utility.yul\":2224:2225   */\n      0x00\n        /* \"#utility.yul\":2249:2302   */\n      tag_185\n        /* \"#utility.yul\":2294:2301   */\n      dup5\n        /* \"#utility.yul\":2285:2291   */\n      dup3\n        /* \"#utility.yul\":2274:2283   */\n      dup6\n        /* \"#utility.yul\":2270:2292   */\n      add\n        /* \"#utility.yul\":2249:2302   */\n      tag_170\n      jump\t// in\n    tag_185:\n        /* \"#utility.yul\":2239:2302   */\n      swap2\n      pop\n        /* \"#utility.yul\":2195:2312   */\n      pop\n        /* \"#utility.yul\":2123:2319   */\n      swap3\n      swap2\n      pop\n      pop\n      jump\t// out\n        /* \"#utility.yul\":2325:2573   */\n    tag_186:\n      0x00\n        /* \"#utility.yul\":2475:2567   */\n      tag_188\n        /* \"#utility.yul\":2563:2566   */\n      dup4\n        /* \"#utility.yul\":2555:2561   */\n      dup4\n        /* \"#utility.yul\":2475:2567   */\n      tag_189\n      jump\t// in\n    tag_188:\n        /* \"#utility.yul\":2461:2567   */\n      swap1\n      pop\n        /* \"#utility.yul\":2451:2573   */\n      swap3\n      swap2\n      pop\n      pop\n      jump\t// out\n        /* \"#utility.yul\":2579:2711   */\n    tag_190:\n        /* \"#utility.yul\":2672:2704   */\n      tag_192\n        /* \"#utility.yul\":2698:2703   */\n      dup2\n        /* \"#utility.yul\":2672:2704   */\n      tag_193\n      jump\t// in\n    tag_192:\n        /* \"#utility.yul\":2667:2670   */\n      dup3\n        /* \"#utility.yul\":2660:2705   */\n      mstore\n        /* \"#utility.yul\":2650:2711   */\n      pop\n      pop\n      jump\t// out\n        /* \"#utility.yul\":2717:2859   */\n    tag_194:\n        /* \"#utility.yul\":2820:2852   */\n      tag_196\n        /* \"#utility.yul\":2846:2851   */\n      dup2\n        /* \"#utility.yul\":2820:2852   */\n      tag_193\n      jump\t// in\n    tag_196:\n        /* \"#utility.yul\":2815:2818   */\n      dup3\n        /* \"#utility.yul\":2808:2853   */\n      mstore\n        /* \"#utility.yul\":2798:2859   */\n      pop\n      pop\n      jump\t// out\n        /* \"#utility.yul\":2865:2983   */\n    tag_197:\n        /* \"#utility.yul\":2952:2976   */\n      tag_199\n        /* \"#utility.yul\":2970:2975   */\n      dup2\n        /* \"#utility.yul\":2952:2976   */\n      tag_200\n      jump\t// in\n    tag_199:\n        /* \"#utility.yul\":2947:2950   */\n      dup3\n        /* \"#utility.yul\":2940:2977   */\n      mstore\n        /* \"#utility.yul\":2930:2983   */\n      pop\n      pop\n      jump\t// out\n        /* \"#utility.yul\":3051:4146   */\n    tag_201:\n      0x00\n        /* \"#utility.yul\":3245:3322   */\n      tag_203\n        /* \"#utility.yul\":3316:3321   */\n      dup3\n        /* \"#utility.yul\":3245:3322   */\n      tag_204\n      jump\t// in\n    tag_203:\n        /* \"#utility.yul\":3338:3447   */\n      tag_205\n        /* \"#utility.yul\":3440:3446   */\n      dup2\n        /* \"#utility.yul\":3435:3438   */\n      dup6\n        /* \"#utility.yul\":3338:3447   */\n      tag_206\n      jump\t// in\n    tag_205:\n        /* \"#utility.yul\":3331:3447   */\n      swap4\n      pop\n        /* \"#utility.yul\":3473:3476   */\n      dup4\n        /* \"#utility.yul\":3518:3522   */\n      0x20\n        /* \"#utility.yul\":3510:3516   */\n      dup3\n        /* \"#utility.yul\":3506:3523   */\n      mul\n        /* \"#utility.yul\":3501:3504   */\n      dup6\n        /* \"#utility.yul\":3497:3524   */\n      add\n        /* \"#utility.yul\":3548:3627   */\n      tag_207\n        /* \"#utility.yul\":3621:3626   */\n      dup6\n        /* \"#utility.yul\":3548:3627   */\n      tag_208\n      jump\t// in\n    tag_207:\n        /* \"#utility.yul\":3650:3657   */\n      dup1\n        /* \"#utility.yul\":3681:3682   */\n      0x00\n        /* \"#utility.yul\":3666:4101   */\n    tag_209:\n        /* \"#utility.yul\":3691:3697   */\n      dup6\n        /* \"#utility.yul\":3688:3689   */\n      dup2\n        /* \"#utility.yul\":3685:3698   */\n      lt\n        /* \"#utility.yul\":3666:4101   */\n      iszero\n      tag_211\n      jumpi\n        /* \"#utility.yul\":3762:3771   */\n      dup5\n        /* \"#utility.yul\":3756:3760   */\n      dup5\n        /* \"#utility.yul\":3752:3772   */\n      sub\n        /* \"#utility.yul\":3747:3750   */\n      dup10\n        /* \"#utility.yul\":3740:3773   */\n      mstore\n        /* \"#utility.yul\":3813:3819   */\n      dup2\n        /* \"#utility.yul\":3807:3820   */\n      mload\n        /* \"#utility.yul\":3841:3951   */\n      tag_212\n        /* \"#utility.yul\":3946:3950   */\n      dup6\n        /* \"#utility.yul\":3931:3944   */\n      dup3\n        /* \"#utility.yul\":3841:3951   */\n      tag_186\n      jump\t// in\n    tag_212:\n        /* \"#utility.yul\":3833:3951   */\n      swap5\n      pop\n        /* \"#utility.yul\":3974:4057   */\n      tag_213\n        /* \"#utility.yul\":4050:4056   */\n      dup4\n        /* \"#utility.yul\":3974:4057   */\n      tag_214\n      jump\t// in\n    tag_213:\n        /* \"#utility.yul\":3964:4057   */\n      swap3\n      pop\n        /* \"#utility.yul\":4086:4090   */\n      0x20\n        /* \"#utility.yul\":4081:4084   */\n      dup11\n        /* \"#utility.yul\":4077:4091   */\n      add\n        /* \"#utility.yul\":4070:4091   */\n      swap10\n      pop\n        /* \"#utility.yul\":3726:4101   */\n      pop\n        /* \"#utility.yul\":3713:3714   */\n      0x01\n        /* \"#utility.yul\":3710:3711   */\n      dup2\n        /* \"#utility.yul\":3706:3715   */\n      add\n        /* \"#utility.yul\":3701:3715   */\n      swap1\n      pop\n        /* \"#utility.yul\":3666:4101   */\n      jump(tag_209)\n    tag_211:\n        /* \"#utility.yul\":3670:3684   */\n      pop\n        /* \"#utility.yul\":4117:4121   */\n      dup3\n        /* \"#utility.yul\":4110:4121   */\n      swap8\n      pop\n        /* \"#utility.yul\":4137:4140   */\n      dup8\n        /* \"#utility.yul\":4130:4140   */\n      swap6\n      pop\n        /* \"#utility.yul\":3221:4146   */\n      pop\n      pop\n      pop\n      pop\n      pop\n      swap3\n      swap2\n      pop\n      pop\n      jump\t// out\n        /* \"#utility.yul\":4152:4251   */\n    tag_215:\n        /* \"#utility.yul\":4223:4244   */\n      tag_217\n        /* \"#utility.yul\":4238:4243   */\n      dup2\n        /* \"#utility.yul\":4223:4244   */\n      tag_218\n      jump\t// in\n    tag_217:\n        /* \"#utility.yul\":4218:4221   */\n      dup3\n        /* \"#utility.yul\":4211:4245   */\n      mstore\n        /* \"#utility.yul\":4201:4251   */\n      pop\n      pop\n      jump\t// out\n        /* \"#utility.yul\":4257:4366   */\n    tag_219:\n        /* \"#utility.yul\":4338:4359   */\n      tag_221\n        /* \"#utility.yul\":4353:4358   */\n      dup2\n        /* \"#utility.yul\":4338:4359   */\n      tag_218\n      jump\t// in\n    tag_221:\n        /* \"#utility.yul\":4333:4336   */\n      dup3\n        /* \"#utility.yul\":4326:4360   */\n      mstore\n        /* \"#utility.yul\":4316:4366   */\n      pop\n      pop\n      jump\t// out\n        /* \"#utility.yul\":4372:4716   */\n    tag_222:\n      0x00\n        /* \"#utility.yul\":4478:4517   */\n      tag_224\n        /* \"#utility.yul\":4511:4516   */\n      dup3\n        /* \"#utility.yul\":4478:4517   */\n      tag_225\n      jump\t// in\n    tag_224:\n        /* \"#utility.yul\":4533:4594   */\n      tag_226\n        /* \"#utility.yul\":4587:4593   */\n      dup2\n        /* \"#utility.yul\":4582:4585   */\n      dup6\n        /* \"#utility.yul\":4533:4594   */\n      tag_227\n      jump\t// in\n    tag_226:\n        /* \"#utility.yul\":4526:4594   */\n      swap4\n      pop\n        /* \"#utility.yul\":4603:4655   */\n      tag_228\n        /* \"#utility.yul\":4648:4654   */\n      dup2\n        /* \"#utility.yul\":4643:4646   */\n      dup6\n        /* \"#utility.yul\":4636:4640   */\n      0x20\n        /* \"#utility.yul\":4629:4634   */\n      dup7\n        /* \"#utility.yul\":4625:4641   */\n      add\n        /* \"#utility.yul\":4603:4655   */\n      tag_229\n      jump\t// in\n    tag_228:\n        /* \"#utility.yul\":4680:4709   */\n      tag_230\n        /* \"#utility.yul\":4702:4708   */\n      dup2\n        /* \"#utility.yul\":4680:4709   */\n      tag_231\n      jump\t// in\n    tag_230:\n        /* \"#utility.yul\":4675:4678   */\n      dup5\n        /* \"#utility.yul\":4671:4710   */\n      add\n        /* \"#utility.yul\":4664:4710   */\n      swap2\n      pop\n        /* \"#utility.yul\":4454:4716   */\n      pop\n      swap3\n      swap2\n      pop\n      pop\n      jump\t// out\n        /* \"#utility.yul\":4722:5086   */\n    tag_232:\n      0x00\n        /* \"#utility.yul\":4838:4877   */\n      tag_234\n        /* \"#utility.yul\":4871:4876   */\n      dup3\n        /* \"#utility.yul\":4838:4877   */\n      tag_225\n      jump\t// in\n    tag_234:\n        /* \"#utility.yul\":4893:4964   */\n      tag_235\n        /* \"#utility.yul\":4957:4963   */\n      dup2\n        /* \"#utility.yul\":4952:4955   */\n      dup6\n        /* \"#utility.yul\":4893:4964   */\n      tag_236\n      jump\t// in\n    tag_235:\n        /* \"#utility.yul\":4886:4964   */\n      swap4\n      pop\n        /* \"#utility.yul\":4973:5025   */\n      tag_237\n        /* \"#utility.yul\":5018:5024   */\n      dup2\n        /* \"#utility.yul\":5013:5016   */\n      dup6\n        /* \"#utility.yul\":5006:5010   */\n      0x20\n        /* \"#utility.yul\":4999:5004   */\n      dup7\n        /* \"#utility.yul\":4995:5011   */\n      add\n        /* \"#utility.yul\":4973:5025   */\n      tag_229\n      jump\t// in\n    tag_237:\n        /* \"#utility.yul\":5050:5079   */\n      tag_238\n        /* \"#utility.yul\":5072:5078   */\n      dup2\n        /* \"#utility.yul\":5050:5079   */\n      tag_231\n      jump\t// in\n    tag_238:\n        /* \"#utility.yul\":5045:5048   */\n      dup5\n        /* \"#utility.yul\":5041:5080   */\n      add\n        /* \"#utility.yul\":5034:5080   */\n      swap2\n      pop\n        /* \"#utility.yul\":4814:5086   */\n      pop\n      swap3\n      swap2\n      pop\n      pop\n      jump\t// out\n        /* \"#utility.yul\":5092:5458   */\n    tag_239:\n      0x00\n        /* \"#utility.yul\":5255:5322   */\n      tag_241\n        /* \"#utility.yul\":5319:5321   */\n      0x14\n        /* \"#utility.yul\":5314:5317   */\n      dup4\n        /* \"#utility.yul\":5255:5322   */\n      tag_236\n      jump\t// in\n    tag_241:\n        /* \"#utility.yul\":5248:5322   */\n      swap2\n      pop\n        /* \"#utility.yul\":5331:5424   */\n      tag_242\n        /* \"#utility.yul\":5420:5423   */\n      dup3\n        /* \"#utility.yul\":5331:5424   */\n      tag_243\n      jump\t// in\n    tag_242:\n        /* \"#utility.yul\":5449:5451   */\n      0x20\n        /* \"#utility.yul\":5444:5447   */\n      dup3\n        /* \"#utility.yul\":5440:5452   */\n      add\n        /* \"#utility.yul\":5433:5452   */\n      swap1\n      pop\n        /* \"#utility.yul\":5238:5458   */\n      swap2\n      swap1\n      pop\n      jump\t// out\n        /* \"#utility.yul\":5464:5830   */\n    tag_244:\n      0x00\n        /* \"#utility.yul\":5627:5694   */\n      tag_246\n        /* \"#utility.yul\":5691:5693   */\n      0x1c\n        /* \"#utility.yul\":5686:5689   */\n      dup4\n        /* \"#utility.yul\":5627:5694   */\n      tag_236\n      jump\t// in\n    tag_246:\n        /* \"#utility.yul\":5620:5694   */\n      swap2\n      pop\n        /* \"#utility.yul\":5703:5796   */\n      tag_247\n        /* \"#utility.yul\":5792:5795   */\n      dup3\n        /* \"#utility.yul\":5703:5796   */\n      tag_248\n      jump\t// in\n    tag_247:\n        /* \"#utility.yul\":5821:5823   */\n      0x20\n        /* \"#utility.yul\":5816:5819   */\n      dup3\n        /* \"#utility.yul\":5812:5824   */\n      add\n        /* \"#utility.yul\":5805:5824   */\n      swap1\n      pop\n        /* \"#utility.yul\":5610:5830   */\n      swap2\n      swap1\n      pop\n      jump\t// out\n        /* \"#utility.yul\":5836:6202   */\n    tag_249:\n      0x00\n        /* \"#utility.yul\":5999:6066   */\n      tag_251\n        /* \"#utility.yul\":6063:6065   */\n      0x10\n        /* \"#utility.yul\":6058:6061   */\n      dup4\n        /* \"#utility.yul\":5999:6066   */\n      tag_236\n      jump\t// in\n    tag_251:\n        /* \"#utility.yul\":5992:6066   */\n      swap2\n      pop\n        /* \"#utility.yul\":6075:6168   */\n      tag_252\n        /* \"#utility.yul\":6164:6167   */\n      dup3\n        /* \"#utility.yul\":6075:6168   */\n      tag_253\n      jump\t// in\n    tag_252:\n        /* \"#utility.yul\":6193:6195   */\n      0x20\n        /* \"#utility.yul\":6188:6191   */\n      dup3\n        /* \"#utility.yul\":6184:6196   */\n      add\n        /* \"#utility.yul\":6177:6196   */\n      swap1\n      pop\n        /* \"#utility.yul\":5982:6202   */\n      swap2\n      swap1\n      pop\n      jump\t// out\n        /* \"#utility.yul\":6208:6574   */\n    tag_254:\n      0x00\n        /* \"#utility.yul\":6371:6438   */\n      tag_256\n        /* \"#utility.yul\":6435:6437   */\n      0x12\n        /* \"#utility.yul\":6430:6433   */\n      dup4\n        /* \"#utility.yul\":6371:6438   */\n      tag_236\n      jump\t// in\n    tag_256:\n        /* \"#utility.yul\":6364:6438   */\n      swap2\n      pop\n        /* \"#utility.yul\":6447:6540   */\n      tag_257\n        /* \"#utility.yul\":6536:6539   */\n      dup3\n        /* \"#utility.yul\":6447:6540   */\n      tag_258\n      jump\t// in\n    tag_257:\n        /* \"#utility.yul\":6565:6567   */\n      0x20\n        /* \"#utility.yul\":6560:6563   */\n      dup3\n        /* \"#utility.yul\":6556:6568   */\n      add\n        /* \"#utility.yul\":6549:6568   */\n      swap1\n      pop\n        /* \"#utility.yul\":6354:6574   */\n      swap2\n      swap1\n      pop\n      jump\t// out\n        /* \"#utility.yul\":6580:6946   */\n    tag_259:\n      0x00\n        /* \"#utility.yul\":6743:6810   */\n      tag_261\n        /* \"#utility.yul\":6807:6809   */\n      0x36\n        /* \"#utility.yul\":6802:6805   */\n      dup4\n        /* \"#utility.yul\":6743:6810   */\n      tag_236\n      jump\t// in\n    tag_261:\n        /* \"#utility.yul\":6736:6810   */\n      swap2\n      pop\n        /* \"#utility.yul\":6819:6912   */\n      tag_262\n        /* \"#utility.yul\":6908:6911   */\n      dup3\n        /* \"#utility.yul\":6819:6912   */\n      tag_263\n      jump\t// in\n    tag_262:\n        /* \"#utility.yul\":6937:6939   */\n      0x40\n        /* \"#utility.yul\":6932:6935   */\n      dup3\n        /* \"#utility.yul\":6928:6940   */\n      add\n        /* \"#utility.yul\":6921:6940   */\n      swap1\n      pop\n        /* \"#utility.yul\":6726:6946   */\n      swap2\n      swap1\n      pop\n      jump\t// out\n        /* \"#utility.yul\":6952:7318   */\n    tag_264:\n      0x00\n        /* \"#utility.yul\":7115:7182   */\n      tag_266\n        /* \"#utility.yul\":7179:7181   */\n      0x2e\n        /* \"#utility.yul\":7174:7177   */\n      dup4\n        /* \"#utility.yul\":7115:7182   */\n      tag_236\n      jump\t// in\n    tag_266:\n        /* \"#utility.yul\":7108:7182   */\n      swap2\n      pop\n        /* \"#utility.yul\":7191:7284   */\n      tag_267\n        /* \"#utility.yul\":7280:7283   */\n      dup3\n        /* \"#utility.yul\":7191:7284   */\n      tag_268\n      jump\t// in\n    tag_267:\n        /* \"#utility.yul\":7309:7311   */\n      0x40\n        /* \"#utility.yul\":7304:7307   */\n      dup3\n        /* \"#utility.yul\":7300:7312   */\n      add\n        /* \"#utility.yul\":7293:7312   */\n      swap1\n      pop\n        /* \"#utility.yul\":7098:7318   */\n      swap2\n      swap1\n      pop\n      jump\t// out\n        /* \"#utility.yul\":7382:8532   */\n    tag_189:\n      0x00\n        /* \"#utility.yul\":7523:7527   */\n      0xa0\n        /* \"#utility.yul\":7518:7521   */\n      dup4\n        /* \"#utility.yul\":7514:7528   */\n      add\n        /* \"#utility.yul\":7617:7621   */\n      0x00\n        /* \"#utility.yul\":7610:7615   */\n      dup4\n        /* \"#utility.yul\":7606:7622   */\n      add\n        /* \"#utility.yul\":7600:7623   */\n      mload\n        /* \"#utility.yul\":7670:7673   */\n      dup5\n        /* \"#utility.yul\":7664:7668   */\n      dup3\n        /* \"#utility.yul\":7660:7674   */\n      sub\n        /* \"#utility.yul\":7653:7657   */\n      0x00\n        /* \"#utility.yul\":7648:7651   */\n      dup7\n        /* \"#utility.yul\":7644:7658   */\n      add\n        /* \"#utility.yul\":7637:7675   */\n      mstore\n        /* \"#utility.yul\":7696:7769   */\n      tag_270\n        /* \"#utility.yul\":7764:7768   */\n      dup3\n        /* \"#utility.yul\":7750:7762   */\n      dup3\n        /* \"#utility.yul\":7696:7769   */\n      tag_222\n      jump\t// in\n    tag_270:\n        /* \"#utility.yul\":7688:7769   */\n      swap2\n      pop\n        /* \"#utility.yul\":7538:7780   */\n      pop\n        /* \"#utility.yul\":7863:7867   */\n      0x20\n        /* \"#utility.yul\":7856:7861   */\n      dup4\n        /* \"#utility.yul\":7852:7868   */\n      add\n        /* \"#utility.yul\":7846:7869   */\n      mload\n        /* \"#utility.yul\":7882:7945   */\n      tag_271\n        /* \"#utility.yul\":7939:7943   */\n      0x20\n        /* \"#utility.yul\":7934:7937   */\n      dup7\n        /* \"#utility.yul\":7930:7944   */\n      add\n        /* \"#utility.yul\":7916:7928   */\n      dup3\n        /* \"#utility.yul\":7882:7945   */\n      tag_272\n      jump\t// in\n    tag_271:\n        /* \"#utility.yul\":7790:7955   */\n      pop\n        /* \"#utility.yul\":8042:8046   */\n      0x40\n        /* \"#utility.yul\":8035:8040   */\n      dup4\n        /* \"#utility.yul\":8031:8047   */\n      add\n        /* \"#utility.yul\":8025:8048   */\n      mload\n        /* \"#utility.yul\":8061:8140   */\n      tag_273\n        /* \"#utility.yul\":8134:8138   */\n      0x40\n        /* \"#utility.yul\":8129:8132   */\n      dup7\n        /* \"#utility.yul\":8125:8139   */\n      add\n        /* \"#utility.yul\":8111:8123   */\n      dup3\n        /* \"#utility.yul\":8061:8140   */\n      tag_190\n      jump\t// in\n    tag_273:\n        /* \"#utility.yul\":7965:8150   */\n      pop\n        /* \"#utility.yul\":8236:8240   */\n      0x60\n        /* \"#utility.yul\":8229:8234   */\n      dup4\n        /* \"#utility.yul\":8225:8241   */\n      add\n        /* \"#utility.yul\":8219:8242   */\n      mload\n        /* \"#utility.yul\":8255:8312   */\n      tag_274\n        /* \"#utility.yul\":8306:8310   */\n      0x60\n        /* \"#utility.yul\":8301:8304   */\n      dup7\n        /* \"#utility.yul\":8297:8311   */\n      add\n        /* \"#utility.yul\":8283:8295   */\n      dup3\n        /* \"#utility.yul\":8255:8312   */\n      tag_215\n      jump\t// in\n    tag_274:\n        /* \"#utility.yul\":8160:8322   */\n      pop\n        /* \"#utility.yul\":8413:8417   */\n      0x80\n        /* \"#utility.yul\":8406:8411   */\n      dup4\n        /* \"#utility.yul\":8402:8418   */\n      add\n        /* \"#utility.yul\":8396:8419   */\n      mload\n        /* \"#utility.yul\":8432:8495   */\n      tag_275\n        /* \"#utility.yul\":8489:8493   */\n      0x80\n        /* \"#utility.yul\":8484:8487   */\n      dup7\n        /* \"#utility.yul\":8480:8494   */\n      add\n        /* \"#utility.yul\":8466:8478   */\n      dup3\n        /* \"#utility.yul\":8432:8495   */\n      tag_272\n      jump\t// in\n    tag_275:\n        /* \"#utility.yul\":8332:8505   */\n      pop\n        /* \"#utility.yul\":8522:8526   */\n      dup1\n        /* \"#utility.yul\":8515:8526   */\n      swap2\n      pop\n        /* \"#utility.yul\":7492:8532   */\n      pop\n      swap3\n      swap2\n      pop\n      pop\n      jump\t// out\n        /* \"#utility.yul\":8538:8646   */\n    tag_272:\n        /* \"#utility.yul\":8615:8639   */\n      tag_277\n        /* \"#utility.yul\":8633:8638   */\n      dup2\n        /* \"#utility.yul\":8615:8639   */\n      tag_278\n      jump\t// in\n    tag_277:\n        /* \"#utility.yul\":8610:8613   */\n      dup3\n        /* \"#utility.yul\":8603:8640   */\n      mstore\n        /* \"#utility.yul\":8593:8646   */\n      pop\n      pop\n      jump\t// out\n        /* \"#utility.yul\":8652:8770   */\n    tag_279:\n        /* \"#utility.yul\":8739:8763   */\n      tag_281\n        /* \"#utility.yul\":8757:8762   */\n      dup2\n        /* \"#utility.yul\":8739:8763   */\n      tag_278\n      jump\t// in\n    tag_281:\n        /* \"#utility.yul\":8734:8737   */\n      dup3\n        /* \"#utility.yul\":8727:8764   */\n      mstore\n        /* \"#utility.yul\":8717:8770   */\n      pop\n      pop\n      jump\t// out\n        /* \"#utility.yul\":8776:8998   */\n    tag_43:\n      0x00\n        /* \"#utility.yul\":8907:8909   */\n      0x20\n        /* \"#utility.yul\":8896:8905   */\n      dup3\n        /* \"#utility.yul\":8892:8910   */\n      add\n        /* \"#utility.yul\":8884:8910   */\n      swap1\n      pop\n        /* \"#utility.yul\":8920:8991   */\n      tag_283\n        /* \"#utility.yul\":8988:8989   */\n      0x00\n        /* \"#utility.yul\":8977:8986   */\n      dup4\n        /* \"#utility.yul\":8973:8990   */\n      add\n        /* \"#utility.yul\":8964:8970   */\n      dup5\n        /* \"#utility.yul\":8920:8991   */\n      tag_197\n      jump\t// in\n    tag_283:\n        /* \"#utility.yul\":8874:8998   */\n      swap3\n      swap2\n      pop\n      pop\n      jump\t// out\n        /* \"#utility.yul\":9004:9469   */\n    tag_78:\n      0x00\n        /* \"#utility.yul\":9231:9233   */\n      0x20\n        /* \"#utility.yul\":9220:9229   */\n      dup3\n        /* \"#utility.yul\":9216:9234   */\n      add\n        /* \"#utility.yul\":9208:9234   */\n      swap1\n      pop\n        /* \"#utility.yul\":9280:9289   */\n      dup2\n        /* \"#utility.yul\":9274:9278   */\n      dup2\n        /* \"#utility.yul\":9270:9290   */\n      sub\n        /* \"#utility.yul\":9266:9267   */\n      0x00\n        /* \"#utility.yul\":9255:9264   */\n      dup4\n        /* \"#utility.yul\":9251:9268   */\n      add\n        /* \"#utility.yul\":9244:9291   */\n      mstore\n        /* \"#utility.yul\":9308:9462   */\n      tag_285\n        /* \"#utility.yul\":9457:9461   */\n      dup2\n        /* \"#utility.yul\":9448:9454   */\n      dup5\n        /* \"#utility.yul\":9308:9462   */\n      tag_201\n      jump\t// in\n    tag_285:\n        /* \"#utility.yul\":9300:9462   */\n      swap1\n      pop\n        /* \"#utility.yul\":9198:9469   */\n      swap3\n      swap2\n      pop\n      pop\n      jump\t// out\n        /* \"#utility.yul\":9475:9685   */\n    tag_28:\n      0x00\n        /* \"#utility.yul\":9600:9602   */\n      0x20\n        /* \"#utility.yul\":9589:9598   */\n      dup3\n        /* \"#utility.yul\":9585:9603   */\n      add\n        /* \"#utility.yul\":9577:9603   */\n      swap1\n      pop\n        /* \"#utility.yul\":9613:9678   */\n      tag_287\n        /* \"#utility.yul\":9675:9676   */\n      0x00\n        /* \"#utility.yul\":9664:9673   */\n      dup4\n        /* \"#utility.yul\":9660:9677   */\n      add\n        /* \"#utility.yul\":9651:9657   */\n      dup5\n        /* \"#utility.yul\":9613:9678   */\n      tag_219\n      jump\t// in\n    tag_287:\n        /* \"#utility.yul\":9567:9685   */\n      swap3\n      swap2\n      pop\n      pop\n      jump\t// out\n        /* \"#utility.yul\":9691:10466   */\n    tag_49:\n      0x00\n        /* \"#utility.yul\":9964:9967   */\n      0xa0\n        /* \"#utility.yul\":9953:9962   */\n      dup3\n        /* \"#utility.yul\":9949:9968   */\n      add\n        /* \"#utility.yul\":9941:9968   */\n      swap1\n      pop\n        /* \"#utility.yul\":10014:10023   */\n      dup2\n        /* \"#utility.yul\":10008:10012   */\n      dup2\n        /* \"#utility.yul\":10004:10024   */\n      sub\n        /* \"#utility.yul\":10000:10001   */\n      0x00\n        /* \"#utility.yul\":9989:9998   */\n      dup4\n        /* \"#utility.yul\":9985:10002   */\n      add\n        /* \"#utility.yul\":9978:10025   */\n      mstore\n        /* \"#utility.yul\":10042:10120   */\n      tag_289\n        /* \"#utility.yul\":10115:10119   */\n      dup2\n        /* \"#utility.yul\":10106:10112   */\n      dup9\n        /* \"#utility.yul\":10042:10120   */\n      tag_232\n      jump\t// in\n    tag_289:\n        /* \"#utility.yul\":10034:10120   */\n      swap1\n      pop\n        /* \"#utility.yul\":10130:10202   */\n      tag_290\n        /* \"#utility.yul\":10198:10200   */\n      0x20\n        /* \"#utility.yul\":10187:10196   */\n      dup4\n        /* \"#utility.yul\":10183:10201   */\n      add\n        /* \"#utility.yul\":10174:10180   */\n      dup8\n        /* \"#utility.yul\":10130:10202   */\n      tag_279\n      jump\t// in\n    tag_290:\n        /* \"#utility.yul\":10212:10300   */\n      tag_291\n        /* \"#utility.yul\":10296:10298   */\n      0x40\n        /* \"#utility.yul\":10285:10294   */\n      dup4\n        /* \"#utility.yul\":10281:10299   */\n      add\n        /* \"#utility.yul\":10272:10278   */\n      dup7\n        /* \"#utility.yul\":10212:10300   */\n      tag_194\n      jump\t// in\n    tag_291:\n        /* \"#utility.yul\":10310:10376   */\n      tag_292\n        /* \"#utility.yul\":10372:10374   */\n      0x60\n        /* \"#utility.yul\":10361:10370   */\n      dup4\n        /* \"#utility.yul\":10357:10375   */\n      add\n        /* \"#utility.yul\":10348:10354   */\n      dup6\n        /* \"#utility.yul\":10310:10376   */\n      tag_219\n      jump\t// in\n    tag_292:\n        /* \"#utility.yul\":10386:10459   */\n      tag_293\n        /* \"#utility.yul\":10454:10457   */\n      0x80\n        /* \"#utility.yul\":10443:10452   */\n      dup4\n        /* \"#utility.yul\":10439:10458   */\n      add\n        /* \"#utility.yul\":10430:10436   */\n      dup5\n        /* \"#utility.yul\":10386:10459   */\n      tag_279\n      jump\t// in\n    tag_293:\n        /* \"#utility.yul\":9931:10466   */\n      swap7\n      swap6\n      pop\n      pop\n      pop\n      pop\n      pop\n      pop\n      jump\t// out\n        /* \"#utility.yul\":10472:10891   */\n    tag_93:\n      0x00\n        /* \"#utility.yul\":10676:10678   */\n      0x20\n        /* \"#utility.yul\":10665:10674   */\n      dup3\n        /* \"#utility.yul\":10661:10679   */\n      add\n        /* \"#utility.yul\":10653:10679   */\n      swap1\n      pop\n        /* \"#utility.yul\":10725:10734   */\n      dup2\n        /* \"#utility.yul\":10719:10723   */\n      dup2\n        /* \"#utility.yul\":10715:10735   */\n      sub\n        /* \"#utility.yul\":10711:10712   */\n      0x00\n        /* \"#utility.yul\":10700:10709   */\n      dup4\n        /* \"#utility.yul\":10696:10713   */\n      add\n        /* \"#utility.yul\":10689:10736   */\n      mstore\n        /* \"#utility.yul\":10753:10884   */\n      tag_295\n        /* \"#utility.yul\":10879:10883   */\n      dup2\n        /* \"#utility.yul\":10753:10884   */\n      tag_239\n      jump\t// in\n    tag_295:\n        /* \"#utility.yul\":10745:10884   */\n      swap1\n      pop\n        /* \"#utility.yul\":10643:10891   */\n      swap2\n      swap1\n      pop\n      jump\t// out\n        /* \"#utility.yul\":10897:11316   */\n    tag_88:\n      0x00\n        /* \"#utility.yul\":11101:11103   */\n      0x20\n        /* \"#utility.yul\":11090:11099   */\n      dup3\n        /* \"#utility.yul\":11086:11104   */\n      add\n        /* \"#utility.yul\":11078:11104   */\n      swap1\n      pop\n        /* \"#utility.yul\":11150:11159   */\n      dup2\n        /* \"#utility.yul\":11144:11148   */\n      dup2\n        /* \"#utility.yul\":11140:11160   */\n      sub\n        /* \"#utility.yul\":11136:11137   */\n      0x00\n        /* \"#utility.yul\":11125:11134   */\n      dup4\n        /* \"#utility.yul\":11121:11138   */\n      add\n        /* \"#utility.yul\":11114:11161   */\n      mstore\n        /* \"#utility.yul\":11178:11309   */\n      tag_297\n        /* \"#utility.yul\":11304:11308   */\n      dup2\n        /* \"#utility.yul\":11178:11309   */\n      tag_244\n      jump\t// in\n    tag_297:\n        /* \"#utility.yul\":11170:11309   */\n      swap1\n      pop\n        /* \"#utility.yul\":11068:11316   */\n      swap2\n      swap1\n      pop\n      jump\t// out\n        /* \"#utility.yul\":11322:11741   */\n    tag_125:\n      0x00\n        /* \"#utility.yul\":11526:11528   */\n      0x20\n        /* \"#utility.yul\":11515:11524   */\n      dup3\n        /* \"#utility.yul\":11511:11529   */\n      add\n        /* \"#utility.yul\":11503:11529   */\n      swap1\n      pop\n        /* \"#utility.yul\":11575:11584   */\n      dup2\n        /* \"#utility.yul\":11569:11573   */\n      dup2\n        /* \"#utility.yul\":11565:11585   */\n      sub\n        /* \"#utility.yul\":11561:11562   */\n      0x00\n        /* \"#utility.yul\":11550:11559   */\n      dup4\n        /* \"#utility.yul\":11546:11563   */\n      add\n        /* \"#utility.yul\":11539:11586   */\n      mstore\n        /* \"#utility.yul\":11603:11734   */\n      tag_299\n        /* \"#utility.yul\":11729:11733   */\n      dup2\n        /* \"#utility.yul\":11603:11734   */\n      tag_249\n      jump\t// in\n    tag_299:\n        /* \"#utility.yul\":11595:11734   */\n      swap1\n      pop\n        /* \"#utility.yul\":11493:11741   */\n      swap2\n      swap1\n      pop\n      jump\t// out\n        /* \"#utility.yul\":11747:12166   */\n    tag_82:\n      0x00\n        /* \"#utility.yul\":11951:11953   */\n      0x20\n        /* \"#utility.yul\":11940:11949   */\n      dup3\n        /* \"#utility.yul\":11936:11954   */\n      add\n        /* \"#utility.yul\":11928:11954   */\n      swap1\n      pop\n        /* \"#utility.yul\":12000:12009   */\n      dup2\n        /* \"#utility.yul\":11994:11998   */\n      dup2\n        /* \"#utility.yul\":11990:12010   */\n      sub\n        /* \"#utility.yul\":11986:11987   */\n      0x00\n        /* \"#utility.yul\":11975:11984   */\n      dup4\n        /* \"#utility.yul\":11971:11988   */\n      add\n        /* \"#utility.yul\":11964:12011   */\n      mstore\n        /* \"#utility.yul\":12028:12159   */\n      tag_301\n        /* \"#utility.yul\":12154:12158   */\n      dup2\n        /* \"#utility.yul\":12028:12159   */\n      tag_254\n      jump\t// in\n    tag_301:\n        /* \"#utility.yul\":12020:12159   */\n      swap1\n      pop\n        /* \"#utility.yul\":11918:12166   */\n      swap2\n      swap1\n      pop\n      jump\t// out\n        /* \"#utility.yul\":12172:12591   */\n    tag_116:\n      0x00\n        /* \"#utility.yul\":12376:12378   */\n      0x20\n        /* \"#utility.yul\":12365:12374   */\n      dup3\n        /* \"#utility.yul\":12361:12379   */\n      add\n        /* \"#utility.yul\":12353:12379   */\n      swap1\n      pop\n        /* \"#utility.yul\":12425:12434   */\n      dup2\n        /* \"#utility.yul\":12419:12423   */\n      dup2\n        /* \"#utility.yul\":12415:12435   */\n      sub\n        /* \"#utility.yul\":12411:12412   */\n      0x00\n        /* \"#utility.yul\":12400:12409   */\n      dup4\n        /* \"#utility.yul\":12396:12413   */\n      add\n        /* \"#utility.yul\":12389:12436   */\n      mstore\n        /* \"#utility.yul\":12453:12584   */\n      tag_303\n        /* \"#utility.yul\":12579:12583   */\n      dup2\n        /* \"#utility.yul\":12453:12584   */\n      tag_259\n      jump\t// in\n    tag_303:\n        /* \"#utility.yul\":12445:12584   */\n      swap1\n      pop\n        /* \"#utility.yul\":12343:12591   */\n      swap2\n      swap1\n      pop\n      jump\t// out\n        /* \"#utility.yul\":12597:13016   */\n    tag_122:\n      0x00\n        /* \"#utility.yul\":12801:12803   */\n      0x20\n        /* \"#utility.yul\":12790:12799   */\n      dup3\n        /* \"#utility.yul\":12786:12804   */\n      add\n        /* \"#utility.yul\":12778:12804   */\n      swap1\n      pop\n        /* \"#utility.yul\":12850:12859   */\n      dup2\n        /* \"#utility.yul\":12844:12848   */\n      dup2\n        /* \"#utility.yul\":12840:12860   */\n      sub\n        /* \"#utility.yul\":12836:12837   */\n      0x00\n        /* \"#utility.yul\":12825:12834   */\n      dup4\n        /* \"#utility.yul\":12821:12838   */\n      add\n        /* \"#utility.yul\":12814:12861   */\n      mstore\n        /* \"#utility.yul\":12878:13009   */\n      tag_305\n        /* \"#utility.yul\":13004:13008   */\n      dup2\n        /* \"#utility.yul\":12878:13009   */\n      tag_264\n      jump\t// in\n    tag_305:\n        /* \"#utility.yul\":12870:13009   */\n      swap1\n      pop\n        /* \"#utility.yul\":12768:13016   */\n      swap2\n      swap1\n      pop\n      jump\t// out\n        /* \"#utility.yul\":13022:13244   */\n    tag_33:\n      0x00\n        /* \"#utility.yul\":13153:13155   */\n      0x20\n        /* \"#utility.yul\":13142:13151   */\n      dup3\n        /* \"#utility.yul\":13138:13156   */\n      add\n        /* \"#utility.yul\":13130:13156   */\n      swap1\n      pop\n        /* \"#utility.yul\":13166:13237   */\n      tag_307\n        /* \"#utility.yul\":13234:13235   */\n      0x00\n        /* \"#utility.yul\":13223:13232   */\n      dup4\n        /* \"#utility.yul\":13219:13236   */\n      add\n        /* \"#utility.yul\":13210:13216   */\n      dup5\n        /* \"#utility.yul\":13166:13237   */\n      tag_279\n      jump\t// in\n    tag_307:\n        /* \"#utility.yul\":13120:13244   */\n      swap3\n      swap2\n      pop\n      pop\n      jump\t// out\n        /* \"#utility.yul\":13250:13914   */\n    tag_38:\n      0x00\n        /* \"#utility.yul\":13493:13496   */\n      0xa0\n        /* \"#utility.yul\":13482:13491   */\n      dup3\n        /* \"#utility.yul\":13478:13497   */\n      add\n        /* \"#utility.yul\":13470:13497   */\n      swap1\n      pop\n        /* \"#utility.yul\":13507:13578   */\n      tag_309\n        /* \"#utility.yul\":13575:13576   */\n      0x00\n        /* \"#utility.yul\":13564:13573   */\n      dup4\n        /* \"#utility.yul\":13560:13577   */\n      add\n        /* \"#utility.yul\":13551:13557   */\n      dup9\n        /* \"#utility.yul\":13507:13578   */\n      tag_279\n      jump\t// in\n    tag_309:\n        /* \"#utility.yul\":13588:13660   */\n      tag_310\n        /* \"#utility.yul\":13656:13658   */\n      0x20\n        /* \"#utility.yul\":13645:13654   */\n      dup4\n        /* \"#utility.yul\":13641:13659   */\n      add\n        /* \"#utility.yul\":13632:13638   */\n      dup8\n        /* \"#utility.yul\":13588:13660   */\n      tag_279\n      jump\t// in\n    tag_310:\n        /* \"#utility.yul\":13670:13742   */\n      tag_311\n        /* \"#utility.yul\":13738:13740   */\n      0x40\n        /* \"#utility.yul\":13727:13736   */\n      dup4\n        /* \"#utility.yul\":13723:13741   */\n      add\n        /* \"#utility.yul\":13714:13720   */\n      dup7\n        /* \"#utility.yul\":13670:13742   */\n      tag_279\n      jump\t// in\n    tag_311:\n        /* \"#utility.yul\":13752:13824   */\n      tag_312\n        /* \"#utility.yul\":13820:13822   */\n      0x60\n        /* \"#utility.yul\":13809:13818   */\n      dup4\n        /* \"#utility.yul\":13805:13823   */\n      add\n        /* \"#utility.yul\":13796:13802   */\n      dup6\n        /* \"#utility.yul\":13752:13824   */\n      tag_279\n      jump\t// in\n    tag_312:\n        /* \"#utility.yul\":13834:13907   */\n      tag_313\n        /* \"#utility.yul\":13902:13905   */\n      0x80\n        /* \"#utility.yul\":13891:13900   */\n      dup4\n        /* \"#utility.yul\":13887:13906   */\n      add\n        /* \"#utility.yul\":13878:13884   */\n      dup5\n        /* \"#utility.yul\":13834:13907   */\n      tag_197\n      jump\t// in\n    tag_313:\n        /* \"#utility.yul\":13460:13914   */\n      swap7\n      swap6\n      pop\n      pop\n      pop\n      pop\n      pop\n      pop\n      jump\t// out\n        /* \"#utility.yul\":13920:14049   */\n    tag_154:\n      0x00\n        /* \"#utility.yul\":13981:14001   */\n      tag_315\n      tag_316\n      jump\t// in\n    tag_315:\n        /* \"#utility.yul\":13971:14001   */\n      swap1\n      pop\n        /* \"#utility.yul\":14010:14043   */\n      tag_317\n        /* \"#utility.yul\":14038:14042   */\n      dup3\n        /* \"#utility.yul\":14030:14036   */\n      dup3\n        /* \"#utility.yul\":14010:14043   */\n      tag_318\n      jump\t// in\n    tag_317:\n        /* \"#utility.yul\":13961:14049   */\n      swap2\n      swap1\n      pop\n      jump\t// out\n        /* \"#utility.yul\":14055:14130   */\n    tag_316:\n      0x00\n        /* \"#utility.yul\":14121:14123   */\n      0x40\n        /* \"#utility.yul\":14115:14124   */\n      mload\n        /* \"#utility.yul\":14105:14124   */\n      swap1\n      pop\n        /* \"#utility.yul\":14095:14130   */\n      swap1\n      jump\t// out\n        /* \"#utility.yul\":14136:14444   */\n    tag_153:\n      0x00\n        /* \"#utility.yul\":14288:14306   */\n      0xffffffffffffffff\n        /* \"#utility.yul\":14280:14286   */\n      dup3\n        /* \"#utility.yul\":14277:14307   */\n      gt\n        /* \"#utility.yul\":14274:14276   */\n      iszero\n      tag_321\n      jumpi\n        /* \"#utility.yul\":14310:14328   */\n      tag_322\n      tag_323\n      jump\t// in\n    tag_322:\n        /* \"#utility.yul\":14274:14276   */\n    tag_321:\n        /* \"#utility.yul\":14348:14377   */\n      tag_324\n        /* \"#utility.yul\":14370:14376   */\n      dup3\n        /* \"#utility.yul\":14348:14377   */\n      tag_231\n      jump\t// in\n    tag_324:\n        /* \"#utility.yul\":14340:14377   */\n      swap1\n      pop\n        /* \"#utility.yul\":14432:14436   */\n      0x20\n        /* \"#utility.yul\":14426:14430   */\n      dup2\n        /* \"#utility.yul\":14422:14437   */\n      add\n        /* \"#utility.yul\":14414:14437   */\n      swap1\n      pop\n        /* \"#utility.yul\":14203:14444   */\n      swap2\n      swap1\n      pop\n      jump\t// out\n        /* \"#utility.yul\":14450:14605   */\n    tag_208:\n      0x00\n        /* \"#utility.yul\":14563:14566   */\n      dup2\n        /* \"#utility.yul\":14555:14566   */\n      swap1\n      pop\n        /* \"#utility.yul\":14593:14597   */\n      0x20\n        /* \"#utility.yul\":14588:14591   */\n      dup3\n        /* \"#utility.yul\":14584:14598   */\n      add\n        /* \"#utility.yul\":14576:14598   */\n      swap1\n      pop\n        /* \"#utility.yul\":14545:14605   */\n      swap2\n      swap1\n      pop\n      jump\t// out\n        /* \"#utility.yul\":14611:14748   */\n    tag_204:\n      0x00\n        /* \"#utility.yul\":14735:14740   */\n      dup2\n        /* \"#utility.yul\":14729:14741   */\n      mload\n        /* \"#utility.yul\":14719:14741   */\n      swap1\n      pop\n        /* \"#utility.yul\":14708:14748   */\n      swap2\n      swap1\n      pop\n      jump\t// out\n        /* \"#utility.yul\":14754:14853   */\n    tag_225:\n      0x00\n        /* \"#utility.yul\":14840:14845   */\n      dup2\n        /* \"#utility.yul\":14834:14846   */\n      mload\n        /* \"#utility.yul\":14824:14846   */\n      swap1\n      pop\n        /* \"#utility.yul\":14813:14853   */\n      swap2\n      swap1\n      pop\n      jump\t// out\n        /* \"#utility.yul\":14859:14995   */\n    tag_214:\n      0x00\n        /* \"#utility.yul\":14984:14988   */\n      0x20\n        /* \"#utility.yul\":14979:14982   */\n      dup3\n        /* \"#utility.yul\":14975:14989   */\n      add\n        /* \"#utility.yul\":14967:14989   */\n      swap1\n      pop\n        /* \"#utility.yul\":14957:14995   */\n      swap2\n      swap1\n      pop\n      jump\t// out\n        /* \"#utility.yul\":15001:15208   */\n    tag_206:\n      0x00\n        /* \"#utility.yul\":15157:15163   */\n      dup3\n        /* \"#utility.yul\":15152:15155   */\n      dup3\n        /* \"#utility.yul\":15145:15164   */\n      mstore\n        /* \"#utility.yul\":15197:15201   */\n      0x20\n        /* \"#utility.yul\":15192:15195   */\n      dup3\n        /* \"#utility.yul\":15188:15202   */\n      add\n        /* \"#utility.yul\":15173:15202   */\n      swap1\n      pop\n        /* \"#utility.yul\":15135:15208   */\n      swap3\n      swap2\n      pop\n      pop\n      jump\t// out\n        /* \"#utility.yul\":15214:15373   */\n    tag_227:\n      0x00\n        /* \"#utility.yul\":15322:15328   */\n      dup3\n        /* \"#utility.yul\":15317:15320   */\n      dup3\n        /* \"#utility.yul\":15310:15329   */\n      mstore\n        /* \"#utility.yul\":15362:15366   */\n      0x20\n        /* \"#utility.yul\":15357:15360   */\n      dup3\n        /* \"#utility.yul\":15353:15367   */\n      add\n        /* \"#utility.yul\":15338:15367   */\n      swap1\n      pop\n        /* \"#utility.yul\":15300:15373   */\n      swap3\n      swap2\n      pop\n      pop\n      jump\t// out\n        /* \"#utility.yul\":15379:15548   */\n    tag_236:\n      0x00\n        /* \"#utility.yul\":15497:15503   */\n      dup3\n        /* \"#utility.yul\":15492:15495   */\n      dup3\n        /* \"#utility.yul\":15485:15504   */\n      mstore\n        /* \"#utility.yul\":15537:15541   */\n      0x20\n        /* \"#utility.yul\":15532:15535   */\n      dup3\n        /* \"#utility.yul\":15528:15542   */\n      add\n        /* \"#utility.yul\":15513:15542   */\n      swap1\n      pop\n        /* \"#utility.yul\":15475:15548   */\n      swap3\n      swap2\n      pop\n      pop\n      jump\t// out\n        /* \"#utility.yul\":15554:15739   */\n    tag_90:\n      0x00\n        /* \"#utility.yul\":15611:15631   */\n      tag_333\n        /* \"#utility.yul\":15629:15630   */\n      dup3\n        /* \"#utility.yul\":15611:15631   */\n      tag_278\n      jump\t// in\n    tag_333:\n        /* \"#utility.yul\":15606:15631   */\n      swap2\n      pop\n        /* \"#utility.yul\":15645:15665   */\n      tag_334\n        /* \"#utility.yul\":15663:15664   */\n      dup4\n        /* \"#utility.yul\":15645:15665   */\n      tag_278\n      jump\t// in\n    tag_334:\n        /* \"#utility.yul\":15640:15665   */\n      swap3\n      pop\n        /* \"#utility.yul\":15684:15685   */\n      dup3\n        /* \"#utility.yul\":15674:15676   */\n      tag_335\n      jumpi\n        /* \"#utility.yul\":15689:15707   */\n      tag_336\n      tag_337\n      jump\t// in\n    tag_336:\n        /* \"#utility.yul\":15674:15676   */\n    tag_335:\n        /* \"#utility.yul\":15731:15732   */\n      dup3\n        /* \"#utility.yul\":15728:15729   */\n      dup3\n        /* \"#utility.yul\":15724:15733   */\n      div\n        /* \"#utility.yul\":15719:15733   */\n      swap1\n      pop\n        /* \"#utility.yul\":15596:15739   */\n      swap3\n      swap2\n      pop\n      pop\n      jump\t// out\n        /* \"#utility.yul\":15745:15841   */\n    tag_200:\n      0x00\n        /* \"#utility.yul\":15811:15835   */\n      tag_339\n        /* \"#utility.yul\":15829:15834   */\n      dup3\n        /* \"#utility.yul\":15811:15835   */\n      tag_340\n      jump\t// in\n    tag_339:\n        /* \"#utility.yul\":15800:15835   */\n      swap1\n      pop\n        /* \"#utility.yul\":15790:15841   */\n      swap2\n      swap1\n      pop\n      jump\t// out\n        /* \"#utility.yul\":15847:15951   */\n    tag_193:\n      0x00\n        /* \"#utility.yul\":15921:15945   */\n      tag_342\n        /* \"#utility.yul\":15939:15944   */\n      dup3\n        /* \"#utility.yul\":15921:15945   */\n      tag_340\n      jump\t// in\n    tag_342:\n        /* \"#utility.yul\":15910:15945   */\n      swap1\n      pop\n        /* \"#utility.yul\":15900:15951   */\n      swap2\n      swap1\n      pop\n      jump\t// out\n        /* \"#utility.yul\":15957:16047   */\n    tag_218:\n      0x00\n        /* \"#utility.yul\":16034:16039   */\n      dup2\n        /* \"#utility.yul\":16027:16040   */\n      iszero\n        /* \"#utility.yul\":16020:16041   */\n      iszero\n        /* \"#utility.yul\":16009:16041   */\n      swap1\n      pop\n        /* \"#utility.yul\":15999:16047   */\n      swap2\n      swap1\n      pop\n      jump\t// out\n        /* \"#utility.yul\":16053:16179   */\n    tag_340:\n      0x00\n        /* \"#utility.yul\":16130:16172   */\n      0xffffffffffffffffffffffffffffffffffffffff\n        /* \"#utility.yul\":16123:16128   */\n      dup3\n        /* \"#utility.yul\":16119:16173   */\n      and\n        /* \"#utility.yul\":16108:16173   */\n      swap1\n      pop\n        /* \"#utility.yul\":16098:16179   */\n      swap2\n      swap1\n      pop\n      jump\t// out\n        /* \"#utility.yul\":16185:16262   */\n    tag_278:\n      0x00\n        /* \"#utility.yul\":16251:16256   */\n      dup2\n        /* \"#utility.yul\":16240:16256   */\n      swap1\n      pop\n        /* \"#utility.yul\":16230:16262   */\n      swap2\n      swap1\n      pop\n      jump\t// out\n        /* \"#utility.yul\":16268:16422   */\n    tag_157:\n        /* \"#utility.yul\":16352:16358   */\n      dup3\n        /* \"#utility.yul\":16347:16350   */\n      dup2\n        /* \"#utility.yul\":16342:16345   */\n      dup4\n        /* \"#utility.yul\":16329:16359   */\n      calldatacopy\n        /* \"#utility.yul\":16414:16415   */\n      0x00\n        /* \"#utility.yul\":16405:16411   */\n      dup4\n        /* \"#utility.yul\":16400:16403   */\n      dup4\n        /* \"#utility.yul\":16396:16412   */\n      add\n        /* \"#utility.yul\":16389:16416   */\n      mstore\n        /* \"#utility.yul\":16319:16422   */\n      pop\n      pop\n      pop\n      jump\t// out\n        /* \"#utility.yul\":16428:16735   */\n    tag_229:\n        /* \"#utility.yul\":16496:16497   */\n      0x00\n        /* \"#utility.yul\":16506:16619   */\n    tag_348:\n        /* \"#utility.yul\":16520:16526   */\n      dup4\n        /* \"#utility.yul\":16517:16518   */\n      dup2\n        /* \"#utility.yul\":16514:16527   */\n      lt\n        /* \"#utility.yul\":16506:16619   */\n      iszero\n      tag_350\n      jumpi\n        /* \"#utility.yul\":16605:16606   */\n      dup1\n        /* \"#utility.yul\":16600:16603   */\n      dup3\n        /* \"#utility.yul\":16596:16607   */\n      add\n        /* \"#utility.yul\":16590:16608   */\n      mload\n        /* \"#utility.yul\":16586:16587   */\n      dup2\n        /* \"#utility.yul\":16581:16584   */\n      dup5\n        /* \"#utility.yul\":16577:16588   */\n      add\n        /* \"#utility.yul\":16570:16609   */\n      mstore\n        /* \"#utility.yul\":16542:16544   */\n      0x20\n        /* \"#utility.yul\":16539:16540   */\n      dup2\n        /* \"#utility.yul\":16535:16545   */\n      add\n        /* \"#utility.yul\":16530:16545   */\n      swap1\n      pop\n        /* \"#utility.yul\":16506:16619   */\n      jump(tag_348)\n    tag_350:\n        /* \"#utility.yul\":16637:16643   */\n      dup4\n        /* \"#utility.yul\":16634:16635   */\n      dup2\n        /* \"#utility.yul\":16631:16644   */\n      gt\n        /* \"#utility.yul\":16628:16630   */\n      iszero\n      tag_351\n      jumpi\n        /* \"#utility.yul\":16717:16718   */\n      0x00\n        /* \"#utility.yul\":16708:16714   */\n      dup5\n        /* \"#utility.yul\":16703:16706   */\n      dup5\n        /* \"#utility.yul\":16699:16715   */\n      add\n        /* \"#utility.yul\":16692:16719   */\n      mstore\n        /* \"#utility.yul\":16628:16630   */\n    tag_351:\n        /* \"#utility.yul\":16477:16735   */\n      pop\n      pop\n      pop\n      pop\n      jump\t// out\n        /* \"#utility.yul\":16741:17061   */\n    tag_101:\n      0x00\n        /* \"#utility.yul\":16822:16823   */\n      0x02\n        /* \"#utility.yul\":16816:16820   */\n      dup3\n        /* \"#utility.yul\":16812:16824   */\n      div\n        /* \"#utility.yul\":16802:16824   */\n      swap1\n      pop\n        /* \"#utility.yul\":16869:16870   */\n      0x01\n        /* \"#utility.yul\":16863:16867   */\n      dup3\n        /* \"#utility.yul\":16859:16871   */\n      and\n        /* \"#utility.yul\":16890:16908   */\n      dup1\n        /* \"#utility.yul\":16880:16882   */\n      tag_353\n      jumpi\n        /* \"#utility.yul\":16946:16950   */\n      0x7f\n        /* \"#utility.yul\":16938:16944   */\n      dup3\n        /* \"#utility.yul\":16934:16951   */\n      and\n        /* \"#utility.yul\":16924:16951   */\n      swap2\n      pop\n        /* \"#utility.yul\":16880:16882   */\n    tag_353:\n        /* \"#utility.yul\":17008:17010   */\n      0x20\n        /* \"#utility.yul\":17000:17006   */\n      dup3\n        /* \"#utility.yul\":16997:17011   */\n      lt\n        /* \"#utility.yul\":16977:16995   */\n      dup2\n        /* \"#utility.yul\":16974:17012   */\n      eq\n        /* \"#utility.yul\":16971:16973   */\n      iszero\n      tag_354\n      jumpi\n        /* \"#utility.yul\":17027:17045   */\n      tag_355\n      tag_356\n      jump\t// in\n    tag_355:\n        /* \"#utility.yul\":16971:16973   */\n    tag_354:\n        /* \"#utility.yul\":16792:17061   */\n      pop\n      swap2\n      swap1\n      pop\n      jump\t// out\n        /* \"#utility.yul\":17067:17348   */\n    tag_318:\n        /* \"#utility.yul\":17150:17177   */\n      tag_358\n        /* \"#utility.yul\":17172:17176   */\n      dup3\n        /* \"#utility.yul\":17150:17177   */\n      tag_231\n      jump\t// in\n    tag_358:\n        /* \"#utility.yul\":17142:17148   */\n      dup2\n        /* \"#utility.yul\":17138:17178   */\n      add\n        /* \"#utility.yul\":17280:17286   */\n      dup2\n        /* \"#utility.yul\":17268:17278   */\n      dup2\n        /* \"#utility.yul\":17265:17287   */\n      lt\n        /* \"#utility.yul\":17244:17262   */\n      0xffffffffffffffff\n        /* \"#utility.yul\":17232:17242   */\n      dup3\n        /* \"#utility.yul\":17229:17263   */\n      gt\n        /* \"#utility.yul\":17226:17288   */\n      or\n        /* \"#utility.yul\":17223:17225   */\n      iszero\n      tag_359\n      jumpi\n        /* \"#utility.yul\":17291:17309   */\n      tag_360\n      tag_323\n      jump\t// in\n    tag_360:\n        /* \"#utility.yul\":17223:17225   */\n    tag_359:\n        /* \"#utility.yul\":17331:17341   */\n      dup1\n        /* \"#utility.yul\":17327:17329   */\n      0x40\n        /* \"#utility.yul\":17320:17342   */\n      mstore\n        /* \"#utility.yul\":17110:17348   */\n      pop\n      pop\n      pop\n      jump\t// out\n        /* \"#utility.yul\":17354:17587   */\n    tag_118:\n      0x00\n        /* \"#utility.yul\":17416:17440   */\n      tag_362\n        /* \"#utility.yul\":17434:17439   */\n      dup3\n        /* \"#utility.yul\":17416:17440   */\n      tag_278\n      jump\t// in\n    tag_362:\n        /* \"#utility.yul\":17407:17440   */\n      swap2\n      pop\n        /* \"#utility.yul\":17462:17528   */\n      0xffffffffffffffffffffffffffffffffffffffffffffffffffffffffffffffff\n        /* \"#utility.yul\":17455:17460   */\n      dup3\n        /* \"#utility.yul\":17452:17529   */\n      eq\n        /* \"#utility.yul\":17449:17451   */\n      iszero\n      tag_363\n      jumpi\n        /* \"#utility.yul\":17532:17550   */\n      tag_364\n      tag_365\n      jump\t// in\n    tag_364:\n        /* \"#utility.yul\":17449:17451   */\n    tag_363:\n        /* \"#utility.yul\":17579:17580   */\n      0x01\n        /* \"#utility.yul\":17572:17577   */\n      dup3\n        /* \"#utility.yul\":17568:17581   */\n      add\n        /* \"#utility.yul\":17561:17581   */\n      swap1\n      pop\n        /* \"#utility.yul\":17397:17587   */\n      swap2\n      swap1\n      pop\n      jump\t// out\n        /* \"#utility.yul\":17593:17773   */\n    tag_365:\n        /* \"#utility.yul\":17641:17718   */\n      0x4e487b7100000000000000000000000000000000000000000000000000000000\n        /* \"#utility.yul\":17638:17639   */\n      0x00\n        /* \"#utility.yul\":17631:17719   */\n      mstore\n        /* \"#utility.yul\":17738:17742   */\n      0x11\n        /* \"#utility.yul\":17735:17736   */\n      0x04\n        /* \"#utility.yul\":17728:17743   */\n      mstore\n        /* \"#utility.yul\":17762:17766   */\n      0x24\n        /* \"#utility.yul\":17759:17760   */\n      0x00\n        /* \"#utility.yul\":17752:17767   */\n      revert\n        /* \"#utility.yul\":17779:17959   */\n    tag_337:\n        /* \"#utility.yul\":17827:17904   */\n      0x4e487b7100000000000000000000000000000000000000000000000000000000\n        /* \"#utility.yul\":17824:17825   */\n      0x00\n        /* \"#utility.yul\":17817:17905   */\n      mstore\n        /* \"#utility.yul\":17924:17928   */\n      0x12\n        /* \"#utility.yul\":17921:17922   */\n      0x04\n        /* \"#utility.yul\":17914:17929   */\n      mstore\n        /* \"#utility.yul\":17948:17952   */\n      0x24\n        /* \"#utility.yul\":17945:17946   */\n      0x00\n        /* \"#utility.yul\":17938:17953   */\n      revert\n        /* \"#utility.yul\":17965:18145   */\n    tag_356:\n        /* \"#utility.yul\":18013:18090   */\n      0x4e487b7100000000000000000000000000000000000000000000000000000000\n        /* \"#utility.yul\":18010:18011   */\n      0x00\n        /* \"#utility.yul\":18003:18091   */\n      mstore\n        /* \"#utility.yul\":18110:18114   */\n      0x22\n        /* \"#utility.yul\":18107:18108   */\n      0x04\n        /* \"#utility.yul\":18100:18115   */\n      mstore\n        /* \"#utility.yul\":18134:18138   */\n      0x24\n        /* \"#utility.yul\":18131:18132   */\n      0x00\n        /* \"#utility.yul\":18124:18139   */\n      revert\n        /* \"#utility.yul\":18151:18331   */\n    tag_323:\n        /* \"#utility.yul\":18199:18276   */\n      0x4e487b7100000000000000000000000000000000000000000000000000000000\n        /* \"#utility.yul\":18196:18197   */\n      0x00\n        /* \"#utility.yul\":18189:18277   */\n      mstore\n        /* \"#utility.yul\":18296:18300   */\n      0x41\n        /* \"#utility.yul\":18293:18294   */\n      0x04\n        /* \"#utility.yul\":18286:18301   */\n      mstore\n        /* \"#utility.yul\":18320:18324   */\n      0x24\n        /* \"#utility.yul\":18317:18318   */\n      0x00\n        /* \"#utility.yul\":18310:18325   */\n      revert\n        /* \"#utility.yul\":18337:18439   */\n    tag_231:\n      0x00\n        /* \"#utility.yul\":18429:18431   */\n      0x1f\n        /* \"#utility.yul\":18425:18432   */\n      not\n        /* \"#utility.yul\":18420:18422   */\n      0x1f\n        /* \"#utility.yul\":18413:18418   */\n      dup4\n        /* \"#utility.yul\":18409:18423   */\n      add\n        /* \"#utility.yul\":18405:18433   */\n      and\n        /* \"#utility.yul\":18395:18433   */\n      swap1\n      pop\n        /* \"#utility.yul\":18385:18439   */\n      swap2\n      swap1\n      pop\n      jump\t// out\n        /* \"#utility.yul\":18445:18615   */\n    tag_243:\n        /* \"#utility.yul\":18585:18607   */\n      0x52657175657374206e6f7420617070726f766564000000000000000000000000\n        /* \"#utility.yul\":18581:18582   */\n      0x00\n        /* \"#utility.yul\":18573:18579   */\n      dup3\n        /* \"#utility.yul\":18569:18583   */\n      add\n        /* \"#utility.yul\":18562:18608   */\n      mstore\n        /* \"#utility.yul\":18551:18615   */\n      pop\n      jump\t// out\n        /* \"#utility.yul\":18621:18799   */\n    tag_248:\n        /* \"#utility.yul\":18761:18791   */\n      0x43616d706169676e20686173206265656e2066696e616c697a65642e00000000\n        /* \"#utility.yul\":18757:18758   */\n      0x00\n        /* \"#utility.yul\":18749:18755   */\n      dup3\n        /* \"#utility.yul\":18745:18759   */\n      add\n        /* \"#utility.yul\":18738:18792   */\n      mstore\n        /* \"#utility.yul\":18727:18799   */\n      pop\n      jump\t// out\n        /* \"#utility.yul\":18805:18971   */\n    tag_253:\n        /* \"#utility.yul\":18945:18963   */\n      0x566f6365206a61206170726f766f752e00000000000000000000000000000000\n        /* \"#utility.yul\":18941:18942   */\n      0x00\n        /* \"#utility.yul\":18933:18939   */\n      dup3\n        /* \"#utility.yul\":18929:18943   */\n      add\n        /* \"#utility.yul\":18922:18964   */\n      mstore\n        /* \"#utility.yul\":18911:18971   */\n      pop\n      jump\t// out\n        /* \"#utility.yul\":18977:19145   */\n    tag_258:\n        /* \"#utility.yul\":19117:19137   */\n      0x5065726d697373696f6e2064656e6965642e0000000000000000000000000000\n        /* \"#utility.yul\":19113:19114   */\n      0x00\n        /* \"#utility.yul\":19105:19111   */\n      dup3\n        /* \"#utility.yul\":19101:19115   */\n      add\n        /* \"#utility.yul\":19094:19138   */\n      mstore\n        /* \"#utility.yul\":19083:19145   */\n      pop\n      jump\t// out\n        /* \"#utility.yul\":19151:19392   */\n    tag_263:\n        /* \"#utility.yul\":19291:19325   */\n      0x56616c6f7220656e766961646f206d656e6f7220717565206f2076616c6f7220\n        /* \"#utility.yul\":19287:19288   */\n      0x00\n        /* \"#utility.yul\":19279:19285   */\n      dup3\n        /* \"#utility.yul\":19275:19289   */\n      add\n        /* \"#utility.yul\":19268:19326   */\n      mstore\n        /* \"#utility.yul\":19360:19384   */\n      0x6d696e696d6f20646520636f6e74726962756963616f00000000000000000000\n        /* \"#utility.yul\":19355:19357   */\n      0x20\n        /* \"#utility.yul\":19347:19353   */\n      dup3\n        /* \"#utility.yul\":19343:19358   */\n      add\n        /* \"#utility.yul\":19336:19385   */\n      mstore\n        /* \"#utility.yul\":19257:19392   */\n      pop\n      jump\t// out\n        /* \"#utility.yul\":19398:19631   */\n    tag_268:\n        /* \"#utility.yul\":19538:19572   */\n      0x566f6361206e616f2074656d207065726d697373616f2070617261206170726f\n        /* \"#utility.yul\":19534:19535   */\n      0x00\n        /* \"#utility.yul\":19526:19532   */\n      dup3\n        /* \"#utility.yul\":19522:19536   */\n      add\n        /* \"#utility.yul\":19515:19573   */\n      mstore\n        /* \"#utility.yul\":19607:19623   */\n      0x766172206f2070726f6a65746f2e000000000000000000000000000000000000\n        /* \"#utility.yul\":19602:19604   */\n      0x20\n        /* \"#utility.yul\":19594:19600   */\n      dup3\n        /* \"#utility.yul\":19590:19605   */\n      add\n        /* \"#utility.yul\":19583:19624   */\n      mstore\n        /* \"#utility.yul\":19504:19631   */\n      pop\n      jump\t// out\n        /* \"#utility.yul\":19637:19759   */\n    tag_161:\n        /* \"#utility.yul\":19710:19734   */\n      tag_378\n        /* \"#utility.yul\":19728:19733   */\n      dup2\n        /* \"#utility.yul\":19710:19734   */\n      tag_200\n      jump\t// in\n    tag_378:\n        /* \"#utility.yul\":19703:19708   */\n      dup2\n        /* \"#utility.yul\":19700:19735   */\n      eq\n        /* \"#utility.yul\":19690:19692   */\n      tag_379\n      jumpi\n        /* \"#utility.yul\":19749:19750   */\n      0x00\n        /* \"#utility.yul\":19746:19747   */\n      dup1\n        /* \"#utility.yul\":19739:19751   */\n      revert\n        /* \"#utility.yul\":19690:19692   */\n    tag_379:\n        /* \"#utility.yul\":19680:19759   */\n      pop\n      jump\t// out\n        /* \"#utility.yul\":19765:19903   */\n    tag_165:\n        /* \"#utility.yul\":19846:19878   */\n      tag_381\n        /* \"#utility.yul\":19872:19877   */\n      dup2\n        /* \"#utility.yul\":19846:19878   */\n      tag_193\n      jump\t// in\n    tag_381:\n        /* \"#utility.yul\":19839:19844   */\n      dup2\n        /* \"#utility.yul\":19836:19879   */\n      eq\n        /* \"#utility.yul\":19826:19828   */\n      tag_382\n      jumpi\n        /* \"#utility.yul\":19893:19894   */\n      0x00\n        /* \"#utility.yul\":19890:19891   */\n      dup1\n        /* \"#utility.yul\":19883:19895   */\n      revert\n        /* \"#utility.yul\":19826:19828   */\n    tag_382:\n        /* \"#utility.yul\":19816:19903   */\n      pop\n      jump\t// out\n        /* \"#utility.yul\":19909:20031   */\n    tag_173:\n        /* \"#utility.yul\":19982:20006   */\n      tag_384\n        /* \"#utility.yul\":20000:20005   */\n      dup2\n        /* \"#utility.yul\":19982:20006   */\n      tag_278\n      jump\t// in\n    tag_384:\n        /* \"#utility.yul\":19975:19980   */\n      dup2\n        /* \"#utility.yul\":19972:20007   */\n      eq\n        /* \"#utility.yul\":19962:19964   */\n      tag_385\n      jumpi\n        /* \"#utility.yul\":20021:20022   */\n      0x00\n        /* \"#utility.yul\":20018:20019   */\n      dup1\n        /* \"#utility.yul\":20011:20023   */\n      revert\n        /* \"#utility.yul\":19962:19964   */\n    tag_385:\n        /* \"#utility.yul\":19952:20031   */\n      pop\n      jump\t// out\n\n    auxdata: 0xa26469706673582212200be42fbccf439c8e1f123e9e2412e50695bfb073023743b848a9c7a21d2e557264736f6c63430008030033\n}\n","bytecode":{"linkReferences":{},"object":"60806040523480156200001157600080fd5b5060405162001964380380620019648339818101604052810190620000379190620000b4565b806000806101000a81548173ffffffffffffffffffffffffffffffffffffffff021916908373ffffffffffffffffffffffffffffffffffffffff16021790555081600181905550505062000167565b600081519050620000978162000133565b92915050565b600081519050620000ae816200014d565b92915050565b60008060408385031215620000c857600080fd5b6000620000d8858286016200009d565b9250506020620000eb8582860162000086565b9150509250929050565b6000620001028262000109565b9050919050565b600073ffffffffffffffffffffffffffffffffffffffff82169050919050565b6000819050919050565b6200013e81620000f5565b81146200014a57600080fd5b50565b620001588162000129565b81146200016457600080fd5b50565b6117ed80620001776000396000f3fe6080604052600436106100c25760003560e01c806382fde0931161007f57806399395a0f1161005957806399395a0f14610272578063d7bb99ba146102af578063d7d1bbdb146102b9578063fb1a002a146102e2576100c2565b806382fde093146101f35780638a9cfd551461021e578063937e09b114610247576100c2565b806303441006146100c75780630a144391146100f05780633410452a1461012d5780634051ddac14610158578063481c6a751461018757806381d12c58146101b2575b600080fd5b3480156100d357600080fd5b506100ee60048036038101906100e99190610e79565b61030d565b005b3480156100fc57600080fd5b5061011760048036038101906101129190610de9565b61051d565b604051610124919061118b565b60405180910390f35b34801561013957600080fd5b5061014261053d565b60405161014f91906112c0565b60405180910390f35b34801561016457600080fd5b5061016d61054a565b60405161017e9594939291906112db565b60405180910390f35b34801561019357600080fd5b5061019c610591565b6040516101a9919061114e565b60405180910390f35b3480156101be57600080fd5b506101d960048036038101906101d49190610e79565b6105b5565b6040516101ea9594939291906111a6565b60405180910390f35b3480156101ff57600080fd5b506102086106b0565b60405161021591906112c0565b60405180910390f35b34801561022a57600080fd5b5061024560048036038101906102409190610e12565b6106b6565b005b34801561025357600080fd5b5061025c610855565b60405161026991906112c0565b60405180910390f35b34801561027e57600080fd5b5061029960048036038101906102949190610e79565b61085b565b6040516102a6919061114e565b60405180910390f35b6102b761088e565b005b3480156102c557600080fd5b506102e060048036038101906102db9190610e79565b610945565b005b3480156102ee57600080fd5b506102f7610b29565b6040516103049190611169565b60405180910390f35b60008054906101000a900473ffffffffffffffffffffffffffffffffffffffff1673ffffffffffffffffffffffffffffffffffffffff163373ffffffffffffffffffffffffffffffffffffffff161461039b576040517f08c379a000000000000000000000000000000000000000000000000000000000815260040161039290611260565b60405180910390fd5b6000600282815481106103d7577f4e487b7100000000000000000000000000000000000000000000000000000000600052603260045260246000fd5b906000526020600020906004020190508060020160149054906101000a900460ff1615610439576040517f08c379a000000000000000000000000000000000000000000000000000000000815260040161043090611220565b60405180910390fd5b600260055461044891906113ea565b81600301541161048d576040517f08c379a000000000000000000000000000000000000000000000000000000000815260040161048490611200565b60405180910390fd5b8060020160009054906101000a900473ffffffffffffffffffffffffffffffffffffffff1673ffffffffffffffffffffffffffffffffffffffff166108fc82600101549081150290604051600060405180830381858888f193505050501580156104fb573d6000803e3d6000fd5b5060018160020160146101000a81548160ff0219169083151502179055505050565b60036020528060005260406000206000915054906101000a900460ff1681565b6000600280549050905090565b60008060008060006001544760028054905060055460008054906101000a900473ffffffffffffffffffffffffffffffffffffffff16945094509450945094509091929394565b60008054906101000a900473ffffffffffffffffffffffffffffffffffffffff1681565b600281815481106105c557600080fd5b90600052602060002090600402016000915090508060000180546105e8906114b7565b80601f0160208091040260200160405190810160405280929190818152602001828054610614906114b7565b80156106615780601f1061063657610100808354040283529160200191610661565b820191906000526020600020905b81548152906001019060200180831161064457829003601f168201915b5050505050908060010154908060020160009054906101000a900473ffffffffffffffffffffffffffffffffffffffff16908060020160149054906101000a900460ff16908060030154905085565b60055481565b60008054906101000a900473ffffffffffffffffffffffffffffffffffffffff1673ffffffffffffffffffffffffffffffffffffffff163373ffffffffffffffffffffffffffffffffffffffff1614610744576040517f08c379a000000000000000000000000000000000000000000000000000000000815260040161073b90611260565b60405180910390fd5b60006040518060a001604052808581526020018481526020018373ffffffffffffffffffffffffffffffffffffffff16815260200160001515815260200160008152509050600281908060018154018082558091505060019003906000526020600020906004020160009091909190915060008201518160000190805190602001906107d1929190610c9f565b506020820151816001015560408201518160020160006101000a81548173ffffffffffffffffffffffffffffffffffffffff021916908373ffffffffffffffffffffffffffffffffffffffff16021790555060608201518160020160146101000a81548160ff02191690831515021790555060808201518160030155505050505050565b60015481565b60046020528060005260406000206000915054906101000a900473ffffffffffffffffffffffffffffffffffffffff1681565b6001543410156108d3576040517f08c379a00000000000000000000000000000000000000000000000000000000081526004016108ca90611280565b60405180910390fd5b6001600360003373ffffffffffffffffffffffffffffffffffffffff1673ffffffffffffffffffffffffffffffffffffffff16815260200190815260200160002060006101000a81548160ff0219169083151502179055506005600081548092919061093e9061151a565b9190505550565b600360003373ffffffffffffffffffffffffffffffffffffffff1673ffffffffffffffffffffffffffffffffffffffff16815260200190815260200160002060009054906101000a900460ff166109d1576040517f08c379a00000000000000000000000000000000000000000000000000000000081526004016109c8906112a0565b60405180910390fd5b3373ffffffffffffffffffffffffffffffffffffffff166004600083815260200190815260200160002060009054906101000a900473ffffffffffffffffffffffffffffffffffffffff1673ffffffffffffffffffffffffffffffffffffffff161415610a73576040517f08c379a0000000000000000000000000000000000000000000000000000000008152600401610a6a90611240565b60405180910390fd5b60028181548110610aad577f4e487b7100000000000000000000000000000000000000000000000000000000600052603260045260246000fd5b90600052602060002090600402016003016000815480929190610acf9061151a565b9190505550336004600083815260200190815260200160002060006101000a81548173ffffffffffffffffffffffffffffffffffffffff021916908373ffffffffffffffffffffffffffffffffffffffff16021790555050565b60606002805480602002602001604051908101604052809291908181526020016000905b82821015610c9657838290600052602060002090600402016040518060a0016040529081600082018054610b80906114b7565b80601f0160208091040260200160405190810160405280929190818152602001828054610bac906114b7565b8015610bf95780601f10610bce57610100808354040283529160200191610bf9565b820191906000526020600020905b815481529060010190602001808311610bdc57829003601f168201915b50505050508152602001600182015481526020016002820160009054906101000a900473ffffffffffffffffffffffffffffffffffffffff1673ffffffffffffffffffffffffffffffffffffffff1673ffffffffffffffffffffffffffffffffffffffff1681526020016002820160149054906101000a900460ff1615151515815260200160038201548152505081526020019060010190610b4d565b50505050905090565b828054610cab906114b7565b90600052602060002090601f016020900481019282610ccd5760008555610d14565b82601f10610ce657805160ff1916838001178555610d14565b82800160010185558215610d14579182015b82811115610d13578251825591602001919060010190610cf8565b5b509050610d219190610d25565b5090565b5b80821115610d3e576000816000905550600101610d26565b5090565b6000610d55610d5084611353565b61132e565b905082815260208101848484011115610d6d57600080fd5b610d78848285611475565b509392505050565b600081359050610d8f81611772565b92915050565b600081359050610da481611789565b92915050565b600082601f830112610dbb57600080fd5b8135610dcb848260208601610d42565b91505092915050565b600081359050610de3816117a0565b92915050565b600060208284031215610dfb57600080fd5b6000610e0984828501610d80565b91505092915050565b600080600060608486031215610e2757600080fd5b600084013567ffffffffffffffff811115610e4157600080fd5b610e4d86828701610daa565b9350506020610e5e86828701610dd4565b9250506040610e6f86828701610d95565b9150509250925092565b600060208284031215610e8b57600080fd5b6000610e9984828501610dd4565b91505092915050565b6000610eae83836110ba565b905092915050565b610ebf8161142d565b82525050565b610ece8161142d565b82525050565b610edd8161141b565b82525050565b6000610eee82611394565b610ef881856113b7565b935083602082028501610f0a85611384565b8060005b85811015610f465784840389528151610f278582610ea2565b9450610f32836113aa565b925060208a01995050600181019050610f0e565b50829750879550505050505092915050565b610f618161143f565b82525050565b610f708161143f565b82525050565b6000610f818261139f565b610f8b81856113c8565b9350610f9b818560208601611484565b610fa48161161f565b840191505092915050565b6000610fba8261139f565b610fc481856113d9565b9350610fd4818560208601611484565b610fdd8161161f565b840191505092915050565b6000610ff56014836113d9565b915061100082611630565b602082019050919050565b6000611018601c836113d9565b915061102382611659565b602082019050919050565b600061103b6010836113d9565b915061104682611682565b602082019050919050565b600061105e6012836113d9565b9150611069826116ab565b602082019050919050565b60006110816036836113d9565b915061108c826116d4565b604082019050919050565b60006110a4602e836113d9565b91506110af82611723565b604082019050919050565b600060a08301600083015184820360008601526110d78282610f76565b91505060208301516110ec6020860182611130565b5060408301516110ff6040860182610eb6565b5060608301516111126060860182610f58565b5060808301516111256080860182611130565b508091505092915050565b6111398161146b565b82525050565b6111488161146b565b82525050565b60006020820190506111636000830184610ed4565b92915050565b600060208201905081810360008301526111838184610ee3565b905092915050565b60006020820190506111a06000830184610f67565b92915050565b600060a08201905081810360008301526111c08188610faf565b90506111cf602083018761113f565b6111dc6040830186610ec5565b6111e96060830185610f67565b6111f6608083018461113f565b9695505050505050565b6000602082019050818103600083015261121981610fe8565b9050919050565b600060208201905081810360008301526112398161100b565b9050919050565b600060208201905081810360008301526112598161102e565b9050919050565b6000602082019050818103600083015261127981611051565b9050919050565b6000602082019050818103600083015261129981611074565b9050919050565b600060208201905081810360008301526112b981611097565b9050919050565b60006020820190506112d5600083018461113f565b92915050565b600060a0820190506112f0600083018861113f565b6112fd602083018761113f565b61130a604083018661113f565b611317606083018561113f565b6113246080830184610ed4565b9695505050505050565b6000611338611349565b905061134482826114e9565b919050565b6000604051905090565b600067ffffffffffffffff82111561136e5761136d6115f0565b5b6113778261161f565b9050602081019050919050565b6000819050602082019050919050565b600081519050919050565b600081519050919050565b6000602082019050919050565b600082825260208201905092915050565b600082825260208201905092915050565b600082825260208201905092915050565b60006113f58261146b565b91506114008361146b565b9250826114105761140f611592565b5b828204905092915050565b60006114268261144b565b9050919050565b60006114388261144b565b9050919050565b60008115159050919050565b600073ffffffffffffffffffffffffffffffffffffffff82169050919050565b6000819050919050565b82818337600083830152505050565b60005b838110156114a2578082015181840152602081019050611487565b838111156114b1576000848401525b50505050565b600060028204905060018216806114cf57607f821691505b602082108114156114e3576114e26115c1565b5b50919050565b6114f28261161f565b810181811067ffffffffffffffff82111715611511576115106115f0565b5b80604052505050565b60006115258261146b565b91507fffffffffffffffffffffffffffffffffffffffffffffffffffffffffffffffff82141561155857611557611563565b5b600182019050919050565b7f4e487b7100000000000000000000000000000000000000000000000000000000600052601160045260246000fd5b7f4e487b7100000000000000000000000000000000000000000000000000000000600052601260045260246000fd5b7f4e487b7100000000000000000000000000000000000000000000000000000000600052602260045260246000fd5b7f4e487b7100000000000000000000000000000000000000000000000000000000600052604160045260246000fd5b6000601f19601f8301169050919050565b7f52657175657374206e6f7420617070726f766564000000000000000000000000600082015250565b7f43616d706169676e20686173206265656e2066696e616c697a65642e00000000600082015250565b7f566f6365206a61206170726f766f752e00000000000000000000000000000000600082015250565b7f5065726d697373696f6e2064656e6965642e0000000000000000000000000000600082015250565b7f56616c6f7220656e766961646f206d656e6f7220717565206f2076616c6f722060008201527f6d696e696d6f20646520636f6e74726962756963616f00000000000000000000602082015250565b7f566f6361206e616f2074656d207065726d697373616f2070617261206170726f60008201527f766172206f2070726f6a65746f2e000000000000000000000000000000000000602082015250565b61177b8161141b565b811461178657600080fd5b50565b6117928161142d565b811461179d57600080fd5b50565b6117a98161146b565b81146117b457600080fd5b5056fea26469706673582212200be42fbccf439c8e1f123e9e2412e50695bfb073023743b848a9c7a21d2e557264736f6c63430008030033","opcodes":"PUSH1 0x80 PUSH1 0x40 MSTORE CALLVALUE DUP1 ISZERO PUSH3 0x11 JUMPI PUSH1 0x0 DUP1 REVERT JUMPDEST POP PUSH1 0x40 MLOAD PUSH3 0x1964 CODESIZE SUB DUP1 PUSH3 0x1964 DUP4 CODECOPY DUP2 DUP2 ADD PUSH1 0x40 MSTORE DUP2 ADD SWAP1 PUSH3 0x37 SWAP2 SWAP1 PUSH3 0xB4 JUMP JUMPDEST DUP1 PUSH1 0x0 DUP1 PUSH2 0x100 EXP DUP2 SLOAD DUP2 PUSH20 0xFFFFFFFFFFFFFFFFFFFFFFFFFFFFFFFFFFFFFFFF MUL NOT AND SWAP1 DUP4 PUSH20 0xFFFFFFFFFFFFFFFFFFFFFFFFFFFFFFFFFFFFFFFF AND MUL OR SWAP1 SSTORE POP DUP2 PUSH1 0x1 DUP2 SWAP1 SSTORE POP POP POP PUSH3 0x167 JUMP JUMPDEST PUSH1 0x0 DUP2 MLOAD SWAP1 POP PUSH3 0x97 DUP2 PUSH3 0x133 JUMP JUMPDEST SWAP3 SWAP2 POP POP JUMP JUMPDEST PUSH1 0x0 DUP2 MLOAD SWAP1 POP PUSH3 0xAE DUP2 PUSH3 0x14D JUMP JUMPDEST SWAP3 SWAP2 POP POP JUMP JUMPDEST PUSH1 0x0 DUP1 PUSH1 0x40 DUP4 DUP6 SUB SLT ISZERO PUSH3 0xC8 JUMPI PUSH1 0x0 DUP1 REVERT JUMPDEST PUSH1 0x0 PUSH3 0xD8 DUP6 DUP3 DUP7 ADD PUSH3 0x9D JUMP JUMPDEST SWAP3 POP POP PUSH1 0x20 PUSH3 0xEB DUP6 DUP3 DUP7 ADD PUSH3 0x86 JUMP JUMPDEST SWAP2 POP POP SWAP3 POP SWAP3 SWAP1 POP JUMP JUMPDEST PUSH1 0x0 PUSH3 0x102 DUP3 PUSH3 0x109 JUMP JUMPDEST SWAP1 POP SWAP2 SWAP1 POP JUMP JUMPDEST PUSH1 0x0 PUSH20 0xFFFFFFFFFFFFFFFFFFFFFFFFFFFFFFFFFFFFFFFF DUP3 AND SWAP1 POP SWAP2 SWAP1 POP JUMP JUMPDEST PUSH1 0x0 DUP2 SWAP1 POP SWAP2 SWAP1 POP JUMP JUMPDEST PUSH3 0x13E DUP2 PUSH3 0xF5 JUMP JUMPDEST DUP2 EQ PUSH3 0x14A JUMPI PUSH1 0x0 DUP1 REVERT JUMPDEST POP JUMP JUMPDEST PUSH3 0x158 DUP2 PUSH3 0x129 JUMP JUMPDEST DUP2 EQ PUSH3 0x164 JUMPI PUSH1 0x0 DUP1 REVERT JUMPDEST POP JUMP JUMPDEST PUSH2 0x17ED DUP1 PUSH3 0x177 PUSH1 0x0 CODECOPY PUSH1 0x0 RETURN INVALID PUSH1 0x80 PUSH1 0x40 MSTORE PUSH1 0x4 CALLDATASIZE LT PUSH2 0xC2 JUMPI PUSH1 0x0 CALLDATALOAD PUSH1 0xE0 SHR DUP1 PUSH4 0x82FDE093 GT PUSH2 0x7F JUMPI DUP1 PUSH4 0x99395A0F GT PUSH2 0x59 JUMPI DUP1 PUSH4 0x99395A0F EQ PUSH2 0x272 JUMPI DUP1 PUSH4 0xD7BB99BA EQ PUSH2 0x2AF JUMPI DUP1 PUSH4 0xD7D1BBDB EQ PUSH2 0x2B9 JUMPI DUP1 PUSH4 0xFB1A002A EQ PUSH2 0x2E2 JUMPI PUSH2 0xC2 JUMP JUMPDEST DUP1 PUSH4 0x82FDE093 EQ PUSH2 0x1F3 JUMPI DUP1 PUSH4 0x8A9CFD55 EQ PUSH2 0x21E JUMPI DUP1 PUSH4 0x937E09B1 EQ PUSH2 0x247 JUMPI PUSH2 0xC2 JUMP JUMPDEST DUP1 PUSH4 0x3441006 EQ PUSH2 0xC7 JUMPI DUP1 PUSH4 0xA144391 EQ PUSH2 0xF0 JUMPI DUP1 PUSH4 0x3410452A EQ PUSH2 0x12D JUMPI DUP1 PUSH4 0x4051DDAC EQ PUSH2 0x158 JUMPI DUP1 PUSH4 0x481C6A75 EQ PUSH2 0x187 JUMPI DUP1 PUSH4 0x81D12C58 EQ PUSH2 0x1B2 JUMPI JUMPDEST PUSH1 0x0 DUP1 REVERT JUMPDEST CALLVALUE DUP1 ISZERO PUSH2 0xD3 JUMPI PUSH1 0x0 DUP1 REVERT JUMPDEST POP PUSH2 0xEE PUSH1 0x4 DUP1 CALLDATASIZE SUB DUP2 ADD SWAP1 PUSH2 0xE9 SWAP2 SWAP1 PUSH2 0xE79 JUMP JUMPDEST PUSH2 0x30D JUMP JUMPDEST STOP JUMPDEST CALLVALUE DUP1 ISZERO PUSH2 0xFC JUMPI PUSH1 0x0 DUP1 REVERT JUMPDEST POP PUSH2 0x117 PUSH1 0x4 DUP1 CALLDATASIZE SUB DUP2 ADD SWAP1 PUSH2 0x112 SWAP2 SWAP1 PUSH2 0xDE9 JUMP JUMPDEST PUSH2 0x51D JUMP JUMPDEST PUSH1 0x40 MLOAD PUSH2 0x124 SWAP2 SWAP1 PUSH2 0x118B JUMP JUMPDEST PUSH1 0x40 MLOAD DUP1 SWAP2 SUB SWAP1 RETURN JUMPDEST CALLVALUE DUP1 ISZERO PUSH2 0x139 JUMPI PUSH1 0x0 DUP1 REVERT JUMPDEST POP PUSH2 0x142 PUSH2 0x53D JUMP JUMPDEST PUSH1 0x40 MLOAD PUSH2 0x14F SWAP2 SWAP1 PUSH2 0x12C0 JUMP JUMPDEST PUSH1 0x40 MLOAD DUP1 SWAP2 SUB SWAP1 RETURN JUMPDEST CALLVALUE DUP1 ISZERO PUSH2 0x164 JUMPI PUSH1 0x0 DUP1 REVERT JUMPDEST POP PUSH2 0x16D PUSH2 0x54A JUMP JUMPDEST PUSH1 0x40 MLOAD PUSH2 0x17E SWAP6 SWAP5 SWAP4 SWAP3 SWAP2 SWAP1 PUSH2 0x12DB JUMP JUMPDEST PUSH1 0x40 MLOAD DUP1 SWAP2 SUB SWAP1 RETURN JUMPDEST CALLVALUE DUP1 ISZERO PUSH2 0x193 JUMPI PUSH1 0x0 DUP1 REVERT JUMPDEST POP PUSH2 0x19C PUSH2 0x591 JUMP JUMPDEST PUSH1 0x40 MLOAD PUSH2 0x1A9 SWAP2 SWAP1 PUSH2 0x114E JUMP JUMPDEST PUSH1 0x40 MLOAD DUP1 SWAP2 SUB SWAP1 RETURN JUMPDEST CALLVALUE DUP1 ISZERO PUSH2 0x1BE JUMPI PUSH1 0x0 DUP1 REVERT JUMPDEST POP PUSH2 0x1D9 PUSH1 0x4 DUP1 CALLDATASIZE SUB DUP2 ADD SWAP1 PUSH2 0x1D4 SWAP2 SWAP1 PUSH2 0xE79 JUMP JUMPDEST PUSH2 0x5B5 JUMP JUMPDEST PUSH1 0x40 MLOAD PUSH2 0x1EA SWAP6 SWAP5 SWAP4 SWAP3 SWAP2 SWAP1 PUSH2 0x11A6 JUMP JUMPDEST PUSH1 0x40 MLOAD DUP1 SWAP2 SUB SWAP1 RETURN JUMPDEST CALLVALUE DUP1 ISZERO PUSH2 0x1FF JUMPI PUSH1 0x0 DUP1 REVERT JUMPDEST POP PUSH2 0x208 PUSH2 0x6B0 JUMP JUMPDEST PUSH1 0x40 MLOAD PUSH2 0x215 SWAP2 SWAP1 PUSH2 0x12C0 JUMP JUMPDEST PUSH1 0x40 MLOAD DUP1 SWAP2 SUB SWAP1 RETURN JUMPDEST CALLVALUE DUP1 ISZERO PUSH2 0x22A JUMPI PUSH1 0x0 DUP1 REVERT JUMPDEST POP PUSH2 0x245 PUSH1 0x4 DUP1 CALLDATASIZE SUB DUP2 ADD SWAP1 PUSH2 0x240 SWAP2 SWAP1 PUSH2 0xE12 JUMP JUMPDEST PUSH2 0x6B6 JUMP JUMPDEST STOP JUMPDEST CALLVALUE DUP1 ISZERO PUSH2 0x253 JUMPI PUSH1 0x0 DUP1 REVERT JUMPDEST POP PUSH2 0x25C PUSH2 0x855 JUMP JUMPDEST PUSH1 0x40 MLOAD PUSH2 0x269 SWAP2 SWAP1 PUSH2 0x12C0 JUMP JUMPDEST PUSH1 0x40 MLOAD DUP1 SWAP2 SUB SWAP1 RETURN JUMPDEST CALLVALUE DUP1 ISZERO PUSH2 0x27E JUMPI PUSH1 0x0 DUP1 REVERT JUMPDEST POP PUSH2 0x299 PUSH1 0x4 DUP1 CALLDATASIZE SUB DUP2 ADD SWAP1 PUSH2 0x294 SWAP2 SWAP1 PUSH2 0xE79 JUMP JUMPDEST PUSH2 0x85B JUMP JUMPDEST PUSH1 0x40 MLOAD PUSH2 0x2A6 SWAP2 SWAP1 PUSH2 0x114E JUMP JUMPDEST PUSH1 0x40 MLOAD DUP1 SWAP2 SUB SWAP1 RETURN JUMPDEST PUSH2 0x2B7 PUSH2 0x88E JUMP JUMPDEST STOP JUMPDEST CALLVALUE DUP1 ISZERO PUSH2 0x2C5 JUMPI PUSH1 0x0 DUP1 REVERT JUMPDEST POP PUSH2 0x2E0 PUSH1 0x4 DUP1 CALLDATASIZE SUB DUP2 ADD SWAP1 PUSH2 0x2DB SWAP2 SWAP1 PUSH2 0xE79 JUMP JUMPDEST PUSH2 0x945 JUMP JUMPDEST STOP JUMPDEST CALLVALUE DUP1 ISZERO PUSH2 0x2EE JUMPI PUSH1 0x0 DUP1 REVERT JUMPDEST POP PUSH2 0x2F7 PUSH2 0xB29 JUMP JUMPDEST PUSH1 0x40 MLOAD PUSH2 0x304 SWAP2 SWAP1 PUSH2 0x1169 JUMP JUMPDEST PUSH1 0x40 MLOAD DUP1 SWAP2 SUB SWAP1 RETURN JUMPDEST PUSH1 0x0 DUP1 SLOAD SWAP1 PUSH2 0x100 EXP SWAP1 DIV PUSH20 0xFFFFFFFFFFFFFFFFFFFFFFFFFFFFFFFFFFFFFFFF AND PUSH20 0xFFFFFFFFFFFFFFFFFFFFFFFFFFFFFFFFFFFFFFFF AND CALLER PUSH20 0xFFFFFFFFFFFFFFFFFFFFFFFFFFFFFFFFFFFFFFFF AND EQ PUSH2 0x39B JUMPI PUSH1 0x40 MLOAD PUSH32 0x8C379A000000000000000000000000000000000000000000000000000000000 DUP2 MSTORE PUSH1 0x4 ADD PUSH2 0x392 SWAP1 PUSH2 0x1260 JUMP JUMPDEST PUSH1 0x40 MLOAD DUP1 SWAP2 SUB SWAP1 REVERT JUMPDEST PUSH1 0x0 PUSH1 0x2 DUP3 DUP2 SLOAD DUP2 LT PUSH2 0x3D7 JUMPI PUSH32 0x4E487B7100000000000000000000000000000000000000000000000000000000 PUSH1 0x0 MSTORE PUSH1 0x32 PUSH1 0x4 MSTORE PUSH1 0x24 PUSH1 0x0 REVERT JUMPDEST SWAP1 PUSH1 0x0 MSTORE PUSH1 0x20 PUSH1 0x0 KECCAK256 SWAP1 PUSH1 0x4 MUL ADD SWAP1 POP DUP1 PUSH1 0x2 ADD PUSH1 0x14 SWAP1 SLOAD SWAP1 PUSH2 0x100 EXP SWAP1 DIV PUSH1 0xFF AND ISZERO PUSH2 0x439 JUMPI PUSH1 0x40 MLOAD PUSH32 0x8C379A000000000000000000000000000000000000000000000000000000000 DUP2 MSTORE PUSH1 0x4 ADD PUSH2 0x430 SWAP1 PUSH2 0x1220 JUMP JUMPDEST PUSH1 0x40 MLOAD DUP1 SWAP2 SUB SWAP1 REVERT JUMPDEST PUSH1 0x2 PUSH1 0x5 SLOAD PUSH2 0x448 SWAP2 SWAP1 PUSH2 0x13EA JUMP JUMPDEST DUP2 PUSH1 0x3 ADD SLOAD GT PUSH2 0x48D JUMPI PUSH1 0x40 MLOAD PUSH32 0x8C379A000000000000000000000000000000000000000000000000000000000 DUP2 MSTORE PUSH1 0x4 ADD PUSH2 0x484 SWAP1 PUSH2 0x1200 JUMP JUMPDEST PUSH1 0x40 MLOAD DUP1 SWAP2 SUB SWAP1 REVERT JUMPDEST DUP1 PUSH1 0x2 ADD PUSH1 0x0 SWAP1 SLOAD SWAP1 PUSH2 0x100 EXP SWAP1 DIV PUSH20 0xFFFFFFFFFFFFFFFFFFFFFFFFFFFFFFFFFFFFFFFF AND PUSH20 0xFFFFFFFFFFFFFFFFFFFFFFFFFFFFFFFFFFFFFFFF AND PUSH2 0x8FC DUP3 PUSH1 0x1 ADD SLOAD SWAP1 DUP2 ISZERO MUL SWAP1 PUSH1 0x40 MLOAD PUSH1 0x0 PUSH1 0x40 MLOAD DUP1 DUP4 SUB DUP2 DUP6 DUP9 DUP9 CALL SWAP4 POP POP POP POP ISZERO DUP1 ISZERO PUSH2 0x4FB JUMPI RETURNDATASIZE PUSH1 0x0 DUP1 RETURNDATACOPY RETURNDATASIZE PUSH1 0x0 REVERT JUMPDEST POP PUSH1 0x1 DUP2 PUSH1 0x2 ADD PUSH1 0x14 PUSH2 0x100 EXP DUP2 SLOAD DUP2 PUSH1 0xFF MUL NOT AND SWAP1 DUP4 ISZERO ISZERO MUL OR SWAP1 SSTORE POP POP POP JUMP JUMPDEST PUSH1 0x3 PUSH1 0x20 MSTORE DUP1 PUSH1 0x0 MSTORE PUSH1 0x40 PUSH1 0x0 KECCAK256 PUSH1 0x0 SWAP2 POP SLOAD SWAP1 PUSH2 0x100 EXP SWAP1 DIV PUSH1 0xFF AND DUP2 JUMP JUMPDEST PUSH1 0x0 PUSH1 0x2 DUP1 SLOAD SWAP1 POP SWAP1 POP SWAP1 JUMP JUMPDEST PUSH1 0x0 DUP1 PUSH1 0x0 DUP1 PUSH1 0x0 PUSH1 0x1 SLOAD SELFBALANCE PUSH1 0x2 DUP1 SLOAD SWAP1 POP PUSH1 0x5 SLOAD PUSH1 0x0 DUP1 SLOAD SWAP1 PUSH2 0x100 EXP SWAP1 DIV PUSH20 0xFFFFFFFFFFFFFFFFFFFFFFFFFFFFFFFFFFFFFFFF AND SWAP5 POP SWAP5 POP SWAP5 POP SWAP5 POP SWAP5 POP SWAP1 SWAP2 SWAP3 SWAP4 SWAP5 JUMP JUMPDEST PUSH1 0x0 DUP1 SLOAD SWAP1 PUSH2 0x100 EXP SWAP1 DIV PUSH20 0xFFFFFFFFFFFFFFFFFFFFFFFFFFFFFFFFFFFFFFFF AND DUP2 JUMP JUMPDEST PUSH1 0x2 DUP2 DUP2 SLOAD DUP2 LT PUSH2 0x5C5 JUMPI PUSH1 0x0 DUP1 REVERT JUMPDEST SWAP1 PUSH1 0x0 MSTORE PUSH1 0x20 PUSH1 0x0 KECCAK256 SWAP1 PUSH1 0x4 MUL ADD PUSH1 0x0 SWAP2 POP SWAP1 POP DUP1 PUSH1 0x0 ADD DUP1 SLOAD PUSH2 0x5E8 SWAP1 PUSH2 0x14B7 JUMP JUMPDEST DUP1 PUSH1 0x1F ADD PUSH1 0x20 DUP1 SWAP2 DIV MUL PUSH1 0x20 ADD PUSH1 0x40 MLOAD SWAP1 DUP2 ADD PUSH1 0x40 MSTORE DUP1 SWAP3 SWAP2 SWAP1 DUP2 DUP2 MSTORE PUSH1 0x20 ADD DUP3 DUP1 SLOAD PUSH2 0x614 SWAP1 PUSH2 0x14B7 JUMP JUMPDEST DUP1 ISZERO PUSH2 0x661 JUMPI DUP1 PUSH1 0x1F LT PUSH2 0x636 JUMPI PUSH2 0x100 DUP1 DUP4 SLOAD DIV MUL DUP4 MSTORE SWAP2 PUSH1 0x20 ADD SWAP2 PUSH2 0x661 JUMP JUMPDEST DUP3 ADD SWAP2 SWAP1 PUSH1 0x0 MSTORE PUSH1 0x20 PUSH1 0x0 KECCAK256 SWAP1 JUMPDEST DUP2 SLOAD DUP2 MSTORE SWAP1 PUSH1 0x1 ADD SWAP1 PUSH1 0x20 ADD DUP1 DUP4 GT PUSH2 0x644 JUMPI DUP3 SWAP1 SUB PUSH1 0x1F AND DUP3 ADD SWAP2 JUMPDEST POP POP POP POP POP SWAP1 DUP1 PUSH1 0x1 ADD SLOAD SWAP1 DUP1 PUSH1 0x2 ADD PUSH1 0x0 SWAP1 SLOAD SWAP1 PUSH2 0x100 EXP SWAP1 DIV PUSH20 0xFFFFFFFFFFFFFFFFFFFFFFFFFFFFFFFFFFFFFFFF AND SWAP1 DUP1 PUSH1 0x2 ADD PUSH1 0x14 SWAP1 SLOAD SWAP1 PUSH2 0x100 EXP SWAP1 DIV PUSH1 0xFF AND SWAP1 DUP1 PUSH1 0x3 ADD SLOAD SWAP1 POP DUP6 JUMP JUMPDEST PUSH1 0x5 SLOAD DUP2 JUMP JUMPDEST PUSH1 0x0 DUP1 SLOAD SWAP1 PUSH2 0x100 EXP SWAP1 DIV PUSH20 0xFFFFFFFFFFFFFFFFFFFFFFFFFFFFFFFFFFFFFFFF AND PUSH20 0xFFFFFFFFFFFFFFFFFFFFFFFFFFFFFFFFFFFFFFFF AND CALLER PUSH20 0xFFFFFFFFFFFFFFFFFFFFFFFFFFFFFFFFFFFFFFFF AND EQ PUSH2 0x744 JUMPI PUSH1 0x40 MLOAD PUSH32 0x8C379A000000000000000000000000000000000000000000000000000000000 DUP2 MSTORE PUSH1 0x4 ADD PUSH2 0x73B SWAP1 PUSH2 0x1260 JUMP JUMPDEST PUSH1 0x40 MLOAD DUP1 SWAP2 SUB SWAP1 REVERT JUMPDEST PUSH1 0x0 PUSH1 0x40 MLOAD DUP1 PUSH1 0xA0 ADD PUSH1 0x40 MSTORE DUP1 DUP6 DUP2 MSTORE PUSH1 0x20 ADD DUP5 DUP2 MSTORE PUSH1 0x20 ADD DUP4 PUSH20 0xFFFFFFFFFFFFFFFFFFFFFFFFFFFFFFFFFFFFFFFF AND DUP2 MSTORE PUSH1 0x20 ADD PUSH1 0x0 ISZERO ISZERO DUP2 MSTORE PUSH1 0x20 ADD PUSH1 0x0 DUP2 MSTORE POP SWAP1 POP PUSH1 0x2 DUP2 SWAP1 DUP1 PUSH1 0x1 DUP2 SLOAD ADD DUP1 DUP3 SSTORE DUP1 SWAP2 POP POP PUSH1 0x1 SWAP1 SUB SWAP1 PUSH1 0x0 MSTORE PUSH1 0x20 PUSH1 0x0 KECCAK256 SWAP1 PUSH1 0x4 MUL ADD PUSH1 0x0 SWAP1 SWAP2 SWAP1 SWAP2 SWAP1 SWAP2 POP PUSH1 0x0 DUP3 ADD MLOAD DUP2 PUSH1 0x0 ADD SWAP1 DUP1 MLOAD SWAP1 PUSH1 0x20 ADD SWAP1 PUSH2 0x7D1 SWAP3 SWAP2 SWAP1 PUSH2 0xC9F JUMP JUMPDEST POP PUSH1 0x20 DUP3 ADD MLOAD DUP2 PUSH1 0x1 ADD SSTORE PUSH1 0x40 DUP3 ADD MLOAD DUP2 PUSH1 0x2 ADD PUSH1 0x0 PUSH2 0x100 EXP DUP2 SLOAD DUP2 PUSH20 0xFFFFFFFFFFFFFFFFFFFFFFFFFFFFFFFFFFFFFFFF MUL NOT AND SWAP1 DUP4 PUSH20 0xFFFFFFFFFFFFFFFFFFFFFFFFFFFFFFFFFFFFFFFF AND MUL OR SWAP1 SSTORE POP PUSH1 0x60 DUP3 ADD MLOAD DUP2 PUSH1 0x2 ADD PUSH1 0x14 PUSH2 0x100 EXP DUP2 SLOAD DUP2 PUSH1 0xFF MUL NOT AND SWAP1 DUP4 ISZERO ISZERO MUL OR SWAP1 SSTORE POP PUSH1 0x80 DUP3 ADD MLOAD DUP2 PUSH1 0x3 ADD SSTORE POP POP POP POP POP POP JUMP JUMPDEST PUSH1 0x1 SLOAD DUP2 JUMP JUMPDEST PUSH1 0x4 PUSH1 0x20 MSTORE DUP1 PUSH1 0x0 MSTORE PUSH1 0x40 PUSH1 0x0 KECCAK256 PUSH1 0x0 SWAP2 POP SLOAD SWAP1 PUSH2 0x100 EXP SWAP1 DIV PUSH20 0xFFFFFFFFFFFFFFFFFFFFFFFFFFFFFFFFFFFFFFFF AND DUP2 JUMP JUMPDEST PUSH1 0x1 SLOAD CALLVALUE LT ISZERO PUSH2 0x8D3 JUMPI PUSH1 0x40 MLOAD PUSH32 0x8C379A000000000000000000000000000000000000000000000000000000000 DUP2 MSTORE PUSH1 0x4 ADD PUSH2 0x8CA SWAP1 PUSH2 0x1280 JUMP JUMPDEST PUSH1 0x40 MLOAD DUP1 SWAP2 SUB SWAP1 REVERT JUMPDEST PUSH1 0x1 PUSH1 0x3 PUSH1 0x0 CALLER PUSH20 0xFFFFFFFFFFFFFFFFFFFFFFFFFFFFFFFFFFFFFFFF AND PUSH20 0xFFFFFFFFFFFFFFFFFFFFFFFFFFFFFFFFFFFFFFFF AND DUP2 MSTORE PUSH1 0x20 ADD SWAP1 DUP2 MSTORE PUSH1 0x20 ADD PUSH1 0x0 KECCAK256 PUSH1 0x0 PUSH2 0x100 EXP DUP2 SLOAD DUP2 PUSH1 0xFF MUL NOT AND SWAP1 DUP4 ISZERO ISZERO MUL OR SWAP1 SSTORE POP PUSH1 0x5 PUSH1 0x0 DUP2 SLOAD DUP1 SWAP3 SWAP2 SWAP1 PUSH2 0x93E SWAP1 PUSH2 0x151A JUMP JUMPDEST SWAP2 SWAP1 POP SSTORE POP JUMP JUMPDEST PUSH1 0x3 PUSH1 0x0 CALLER PUSH20 0xFFFFFFFFFFFFFFFFFFFFFFFFFFFFFFFFFFFFFFFF AND PUSH20 0xFFFFFFFFFFFFFFFFFFFFFFFFFFFFFFFFFFFFFFFF AND DUP2 MSTORE PUSH1 0x20 ADD SWAP1 DUP2 MSTORE PUSH1 0x20 ADD PUSH1 0x0 KECCAK256 PUSH1 0x0 SWAP1 SLOAD SWAP1 PUSH2 0x100 EXP SWAP1 DIV PUSH1 0xFF AND PUSH2 0x9D1 JUMPI PUSH1 0x40 MLOAD PUSH32 0x8C379A000000000000000000000000000000000000000000000000000000000 DUP2 MSTORE PUSH1 0x4 ADD PUSH2 0x9C8 SWAP1 PUSH2 0x12A0 JUMP JUMPDEST PUSH1 0x40 MLOAD DUP1 SWAP2 SUB SWAP1 REVERT JUMPDEST CALLER PUSH20 0xFFFFFFFFFFFFFFFFFFFFFFFFFFFFFFFFFFFFFFFF AND PUSH1 0x4 PUSH1 0x0 DUP4 DUP2 MSTORE PUSH1 0x20 ADD SWAP1 DUP2 MSTORE PUSH1 0x20 ADD PUSH1 0x0 KECCAK256 PUSH1 0x0 SWAP1 SLOAD SWAP1 PUSH2 0x100 EXP SWAP1 DIV PUSH20 0xFFFFFFFFFFFFFFFFFFFFFFFFFFFFFFFFFFFFFFFF AND PUSH20 0xFFFFFFFFFFFFFFFFFFFFFFFFFFFFFFFFFFFFFFFF AND EQ ISZERO PUSH2 0xA73 JUMPI PUSH1 0x40 MLOAD PUSH32 0x8C379A000000000000000000000000000000000000000000000000000000000 DUP2 MSTORE PUSH1 0x4 ADD PUSH2 0xA6A SWAP1 PUSH2 0x1240 JUMP JUMPDEST PUSH1 0x40 MLOAD DUP1 SWAP2 SUB SWAP1 REVERT JUMPDEST PUSH1 0x2 DUP2 DUP2 SLOAD DUP2 LT PUSH2 0xAAD JUMPI PUSH32 0x4E487B7100000000000000000000000000000000000000000000000000000000 PUSH1 0x0 MSTORE PUSH1 0x32 PUSH1 0x4 MSTORE PUSH1 0x24 PUSH1 0x0 REVERT JUMPDEST SWAP1 PUSH1 0x0 MSTORE PUSH1 0x20 PUSH1 0x0 KECCAK256 SWAP1 PUSH1 0x4 MUL ADD PUSH1 0x3 ADD PUSH1 0x0 DUP2 SLOAD DUP1 SWAP3 SWAP2 SWAP1 PUSH2 0xACF SWAP1 PUSH2 0x151A JUMP JUMPDEST SWAP2 SWAP1 POP SSTORE POP CALLER PUSH1 0x4 PUSH1 0x0 DUP4 DUP2 MSTORE PUSH1 0x20 ADD SWAP1 DUP2 MSTORE PUSH1 0x20 ADD PUSH1 0x0 KECCAK256 PUSH1 0x0 PUSH2 0x100 EXP DUP2 SLOAD DUP2 PUSH20 0xFFFFFFFFFFFFFFFFFFFFFFFFFFFFFFFFFFFFFFFF MUL NOT AND SWAP1 DUP4 PUSH20 0xFFFFFFFFFFFFFFFFFFFFFFFFFFFFFFFFFFFFFFFF AND MUL OR SWAP1 SSTORE POP POP JUMP JUMPDEST PUSH1 0x60 PUSH1 0x2 DUP1 SLOAD DUP1 PUSH1 0x20 MUL PUSH1 0x20 ADD PUSH1 0x40 MLOAD SWAP1 DUP2 ADD PUSH1 0x40 MSTORE DUP1 SWAP3 SWAP2 SWAP1 DUP2 DUP2 MSTORE PUSH1 0x20 ADD PUSH1 0x0 SWAP1 JUMPDEST DUP3 DUP3 LT ISZERO PUSH2 0xC96 JUMPI DUP4 DUP3 SWAP1 PUSH1 0x0 MSTORE PUSH1 0x20 PUSH1 0x0 KECCAK256 SWAP1 PUSH1 0x4 MUL ADD PUSH1 0x40 MLOAD DUP1 PUSH1 0xA0 ADD PUSH1 0x40 MSTORE SWAP1 DUP2 PUSH1 0x0 DUP3 ADD DUP1 SLOAD PUSH2 0xB80 SWAP1 PUSH2 0x14B7 JUMP JUMPDEST DUP1 PUSH1 0x1F ADD PUSH1 0x20 DUP1 SWAP2 DIV MUL PUSH1 0x20 ADD PUSH1 0x40 MLOAD SWAP1 DUP2 ADD PUSH1 0x40 MSTORE DUP1 SWAP3 SWAP2 SWAP1 DUP2 DUP2 MSTORE PUSH1 0x20 ADD DUP3 DUP1 SLOAD PUSH2 0xBAC SWAP1 PUSH2 0x14B7 JUMP JUMPDEST DUP1 ISZERO PUSH2 0xBF9 JUMPI DUP1 PUSH1 0x1F LT PUSH2 0xBCE JUMPI PUSH2 0x100 DUP1 DUP4 SLOAD DIV MUL DUP4 MSTORE SWAP2 PUSH1 0x20 ADD SWAP2 PUSH2 0xBF9 JUMP JUMPDEST DUP3 ADD SWAP2 SWAP1 PUSH1 0x0 MSTORE PUSH1 0x20 PUSH1 0x0 KECCAK256 SWAP1 JUMPDEST DUP2 SLOAD DUP2 MSTORE SWAP1 PUSH1 0x1 ADD SWAP1 PUSH1 0x20 ADD DUP1 DUP4 GT PUSH2 0xBDC JUMPI DUP3 SWAP1 SUB PUSH1 0x1F AND DUP3 ADD SWAP2 JUMPDEST POP POP POP POP POP DUP2 MSTORE PUSH1 0x20 ADD PUSH1 0x1 DUP3 ADD SLOAD DUP2 MSTORE PUSH1 0x20 ADD PUSH1 0x2 DUP3 ADD PUSH1 0x0 SWAP1 SLOAD SWAP1 PUSH2 0x100 EXP SWAP1 DIV PUSH20 0xFFFFFFFFFFFFFFFFFFFFFFFFFFFFFFFFFFFFFFFF AND PUSH20 0xFFFFFFFFFFFFFFFFFFFFFFFFFFFFFFFFFFFFFFFF AND PUSH20 0xFFFFFFFFFFFFFFFFFFFFFFFFFFFFFFFFFFFFFFFF AND DUP2 MSTORE PUSH1 0x20 ADD PUSH1 0x2 DUP3 ADD PUSH1 0x14 SWAP1 SLOAD SWAP1 PUSH2 0x100 EXP SWAP1 DIV PUSH1 0xFF AND ISZERO ISZERO ISZERO ISZERO DUP2 MSTORE PUSH1 0x20 ADD PUSH1 0x3 DUP3 ADD SLOAD DUP2 MSTORE POP POP DUP2 MSTORE PUSH1 0x20 ADD SWAP1 PUSH1 0x1 ADD SWAP1 PUSH2 0xB4D JUMP JUMPDEST POP POP POP POP SWAP1 POP SWAP1 JUMP JUMPDEST DUP3 DUP1 SLOAD PUSH2 0xCAB SWAP1 PUSH2 0x14B7 JUMP JUMPDEST SWAP1 PUSH1 0x0 MSTORE PUSH1 0x20 PUSH1 0x0 KECCAK256 SWAP1 PUSH1 0x1F ADD PUSH1 0x20 SWAP1 DIV DUP2 ADD SWAP3 DUP3 PUSH2 0xCCD JUMPI PUSH1 0x0 DUP6 SSTORE PUSH2 0xD14 JUMP JUMPDEST DUP3 PUSH1 0x1F LT PUSH2 0xCE6 JUMPI DUP1 MLOAD PUSH1 0xFF NOT AND DUP4 DUP1 ADD OR DUP6 SSTORE PUSH2 0xD14 JUMP JUMPDEST DUP3 DUP1 ADD PUSH1 0x1 ADD DUP6 SSTORE DUP3 ISZERO PUSH2 0xD14 JUMPI SWAP2 DUP3 ADD JUMPDEST DUP3 DUP2 GT ISZERO PUSH2 0xD13 JUMPI DUP3 MLOAD DUP3 SSTORE SWAP2 PUSH1 0x20 ADD SWAP2 SWAP1 PUSH1 0x1 ADD SWAP1 PUSH2 0xCF8 JUMP JUMPDEST JUMPDEST POP SWAP1 POP PUSH2 0xD21 SWAP2 SWAP1 PUSH2 0xD25 JUMP JUMPDEST POP SWAP1 JUMP JUMPDEST JUMPDEST DUP1 DUP3 GT ISZERO PUSH2 0xD3E JUMPI PUSH1 0x0 DUP2 PUSH1 0x0 SWAP1 SSTORE POP PUSH1 0x1 ADD PUSH2 0xD26 JUMP JUMPDEST POP SWAP1 JUMP JUMPDEST PUSH1 0x0 PUSH2 0xD55 PUSH2 0xD50 DUP5 PUSH2 0x1353 JUMP JUMPDEST PUSH2 0x132E JUMP JUMPDEST SWAP1 POP DUP3 DUP2 MSTORE PUSH1 0x20 DUP2 ADD DUP5 DUP5 DUP5 ADD GT ISZERO PUSH2 0xD6D JUMPI PUSH1 0x0 DUP1 REVERT JUMPDEST PUSH2 0xD78 DUP5 DUP3 DUP6 PUSH2 0x1475 JUMP JUMPDEST POP SWAP4 SWAP3 POP POP POP JUMP JUMPDEST PUSH1 0x0 DUP2 CALLDATALOAD SWAP1 POP PUSH2 0xD8F DUP2 PUSH2 0x1772 JUMP JUMPDEST SWAP3 SWAP2 POP POP JUMP JUMPDEST PUSH1 0x0 DUP2 CALLDATALOAD SWAP1 POP PUSH2 0xDA4 DUP2 PUSH2 0x1789 JUMP JUMPDEST SWAP3 SWAP2 POP POP JUMP JUMPDEST PUSH1 0x0 DUP3 PUSH1 0x1F DUP4 ADD SLT PUSH2 0xDBB JUMPI PUSH1 0x0 DUP1 REVERT JUMPDEST DUP2 CALLDATALOAD PUSH2 0xDCB DUP5 DUP3 PUSH1 0x20 DUP7 ADD PUSH2 0xD42 JUMP JUMPDEST SWAP2 POP POP SWAP3 SWAP2 POP POP JUMP JUMPDEST PUSH1 0x0 DUP2 CALLDATALOAD SWAP1 POP PUSH2 0xDE3 DUP2 PUSH2 0x17A0 JUMP JUMPDEST SWAP3 SWAP2 POP POP JUMP JUMPDEST PUSH1 0x0 PUSH1 0x20 DUP3 DUP5 SUB SLT ISZERO PUSH2 0xDFB JUMPI PUSH1 0x0 DUP1 REVERT JUMPDEST PUSH1 0x0 PUSH2 0xE09 DUP5 DUP3 DUP6 ADD PUSH2 0xD80 JUMP JUMPDEST SWAP2 POP POP SWAP3 SWAP2 POP POP JUMP JUMPDEST PUSH1 0x0 DUP1 PUSH1 0x0 PUSH1 0x60 DUP5 DUP7 SUB SLT ISZERO PUSH2 0xE27 JUMPI PUSH1 0x0 DUP1 REVERT JUMPDEST PUSH1 0x0 DUP5 ADD CALLDATALOAD PUSH8 0xFFFFFFFFFFFFFFFF DUP2 GT ISZERO PUSH2 0xE41 JUMPI PUSH1 0x0 DUP1 REVERT JUMPDEST PUSH2 0xE4D DUP7 DUP3 DUP8 ADD PUSH2 0xDAA JUMP JUMPDEST SWAP4 POP POP PUSH1 0x20 PUSH2 0xE5E DUP7 DUP3 DUP8 ADD PUSH2 0xDD4 JUMP JUMPDEST SWAP3 POP POP PUSH1 0x40 PUSH2 0xE6F DUP7 DUP3 DUP8 ADD PUSH2 0xD95 JUMP JUMPDEST SWAP2 POP POP SWAP3 POP SWAP3 POP SWAP3 JUMP JUMPDEST PUSH1 0x0 PUSH1 0x20 DUP3 DUP5 SUB SLT ISZERO PUSH2 0xE8B JUMPI PUSH1 0x0 DUP1 REVERT JUMPDEST PUSH1 0x0 PUSH2 0xE99 DUP5 DUP3 DUP6 ADD PUSH2 0xDD4 JUMP JUMPDEST SWAP2 POP POP SWAP3 SWAP2 POP POP JUMP JUMPDEST PUSH1 0x0 PUSH2 0xEAE DUP4 DUP4 PUSH2 0x10BA JUMP JUMPDEST SWAP1 POP SWAP3 SWAP2 POP POP JUMP JUMPDEST PUSH2 0xEBF DUP2 PUSH2 0x142D JUMP JUMPDEST DUP3 MSTORE POP POP JUMP JUMPDEST PUSH2 0xECE DUP2 PUSH2 0x142D JUMP JUMPDEST DUP3 MSTORE POP POP JUMP JUMPDEST PUSH2 0xEDD DUP2 PUSH2 0x141B JUMP JUMPDEST DUP3 MSTORE POP POP JUMP JUMPDEST PUSH1 0x0 PUSH2 0xEEE DUP3 PUSH2 0x1394 JUMP JUMPDEST PUSH2 0xEF8 DUP2 DUP6 PUSH2 0x13B7 JUMP JUMPDEST SWAP4 POP DUP4 PUSH1 0x20 DUP3 MUL DUP6 ADD PUSH2 0xF0A DUP6 PUSH2 0x1384 JUMP JUMPDEST DUP1 PUSH1 0x0 JUMPDEST DUP6 DUP2 LT ISZERO PUSH2 0xF46 JUMPI DUP5 DUP5 SUB DUP10 MSTORE DUP2 MLOAD PUSH2 0xF27 DUP6 DUP3 PUSH2 0xEA2 JUMP JUMPDEST SWAP5 POP PUSH2 0xF32 DUP4 PUSH2 0x13AA JUMP JUMPDEST SWAP3 POP PUSH1 0x20 DUP11 ADD SWAP10 POP POP PUSH1 0x1 DUP2 ADD SWAP1 POP PUSH2 0xF0E JUMP JUMPDEST POP DUP3 SWAP8 POP DUP8 SWAP6 POP POP POP POP POP POP SWAP3 SWAP2 POP POP JUMP JUMPDEST PUSH2 0xF61 DUP2 PUSH2 0x143F JUMP JUMPDEST DUP3 MSTORE POP POP JUMP JUMPDEST PUSH2 0xF70 DUP2 PUSH2 0x143F JUMP JUMPDEST DUP3 MSTORE POP POP JUMP JUMPDEST PUSH1 0x0 PUSH2 0xF81 DUP3 PUSH2 0x139F JUMP JUMPDEST PUSH2 0xF8B DUP2 DUP6 PUSH2 0x13C8 JUMP JUMPDEST SWAP4 POP PUSH2 0xF9B DUP2 DUP6 PUSH1 0x20 DUP7 ADD PUSH2 0x1484 JUMP JUMPDEST PUSH2 0xFA4 DUP2 PUSH2 0x161F JUMP JUMPDEST DUP5 ADD SWAP2 POP POP SWAP3 SWAP2 POP POP JUMP JUMPDEST PUSH1 0x0 PUSH2 0xFBA DUP3 PUSH2 0x139F JUMP JUMPDEST PUSH2 0xFC4 DUP2 DUP6 PUSH2 0x13D9 JUMP JUMPDEST SWAP4 POP PUSH2 0xFD4 DUP2 DUP6 PUSH1 0x20 DUP7 ADD PUSH2 0x1484 JUMP JUMPDEST PUSH2 0xFDD DUP2 PUSH2 0x161F JUMP JUMPDEST DUP5 ADD SWAP2 POP POP SWAP3 SWAP2 POP POP JUMP JUMPDEST PUSH1 0x0 PUSH2 0xFF5 PUSH1 0x14 DUP4 PUSH2 0x13D9 JUMP JUMPDEST SWAP2 POP PUSH2 0x1000 DUP3 PUSH2 0x1630 JUMP JUMPDEST PUSH1 0x20 DUP3 ADD SWAP1 POP SWAP2 SWAP1 POP JUMP JUMPDEST PUSH1 0x0 PUSH2 0x1018 PUSH1 0x1C DUP4 PUSH2 0x13D9 JUMP JUMPDEST SWAP2 POP PUSH2 0x1023 DUP3 PUSH2 0x1659 JUMP JUMPDEST PUSH1 0x20 DUP3 ADD SWAP1 POP SWAP2 SWAP1 POP JUMP JUMPDEST PUSH1 0x0 PUSH2 0x103B PUSH1 0x10 DUP4 PUSH2 0x13D9 JUMP JUMPDEST SWAP2 POP PUSH2 0x1046 DUP3 PUSH2 0x1682 JUMP JUMPDEST PUSH1 0x20 DUP3 ADD SWAP1 POP SWAP2 SWAP1 POP JUMP JUMPDEST PUSH1 0x0 PUSH2 0x105E PUSH1 0x12 DUP4 PUSH2 0x13D9 JUMP JUMPDEST SWAP2 POP PUSH2 0x1069 DUP3 PUSH2 0x16AB JUMP JUMPDEST PUSH1 0x20 DUP3 ADD SWAP1 POP SWAP2 SWAP1 POP JUMP JUMPDEST PUSH1 0x0 PUSH2 0x1081 PUSH1 0x36 DUP4 PUSH2 0x13D9 JUMP JUMPDEST SWAP2 POP PUSH2 0x108C DUP3 PUSH2 0x16D4 JUMP JUMPDEST PUSH1 0x40 DUP3 ADD SWAP1 POP SWAP2 SWAP1 POP JUMP JUMPDEST PUSH1 0x0 PUSH2 0x10A4 PUSH1 0x2E DUP4 PUSH2 0x13D9 JUMP JUMPDEST SWAP2 POP PUSH2 0x10AF DUP3 PUSH2 0x1723 JUMP JUMPDEST PUSH1 0x40 DUP3 ADD SWAP1 POP SWAP2 SWAP1 POP JUMP JUMPDEST PUSH1 0x0 PUSH1 0xA0 DUP4 ADD PUSH1 0x0 DUP4 ADD MLOAD DUP5 DUP3 SUB PUSH1 0x0 DUP7 ADD MSTORE PUSH2 0x10D7 DUP3 DUP3 PUSH2 0xF76 JUMP JUMPDEST SWAP2 POP POP PUSH1 0x20 DUP4 ADD MLOAD PUSH2 0x10EC PUSH1 0x20 DUP7 ADD DUP3 PUSH2 0x1130 JUMP JUMPDEST POP PUSH1 0x40 DUP4 ADD MLOAD PUSH2 0x10FF PUSH1 0x40 DUP7 ADD DUP3 PUSH2 0xEB6 JUMP JUMPDEST POP PUSH1 0x60 DUP4 ADD MLOAD PUSH2 0x1112 PUSH1 0x60 DUP7 ADD DUP3 PUSH2 0xF58 JUMP JUMPDEST POP PUSH1 0x80 DUP4 ADD MLOAD PUSH2 0x1125 PUSH1 0x80 DUP7 ADD DUP3 PUSH2 0x1130 JUMP JUMPDEST POP DUP1 SWAP2 POP POP SWAP3 SWAP2 POP POP JUMP JUMPDEST PUSH2 0x1139 DUP2 PUSH2 0x146B JUMP JUMPDEST DUP3 MSTORE POP POP JUMP JUMPDEST PUSH2 0x1148 DUP2 PUSH2 0x146B JUMP JUMPDEST DUP3 MSTORE POP POP JUMP JUMPDEST PUSH1 0x0 PUSH1 0x20 DUP3 ADD SWAP1 POP PUSH2 0x1163 PUSH1 0x0 DUP4 ADD DUP5 PUSH2 0xED4 JUMP JUMPDEST SWAP3 SWAP2 POP POP JUMP JUMPDEST PUSH1 0x0 PUSH1 0x20 DUP3 ADD SWAP1 POP DUP2 DUP2 SUB PUSH1 0x0 DUP4 ADD MSTORE PUSH2 0x1183 DUP2 DUP5 PUSH2 0xEE3 JUMP JUMPDEST SWAP1 POP SWAP3 SWAP2 POP POP JUMP JUMPDEST PUSH1 0x0 PUSH1 0x20 DUP3 ADD SWAP1 POP PUSH2 0x11A0 PUSH1 0x0 DUP4 ADD DUP5 PUSH2 0xF67 JUMP JUMPDEST SWAP3 SWAP2 POP POP JUMP JUMPDEST PUSH1 0x0 PUSH1 0xA0 DUP3 ADD SWAP1 POP DUP2 DUP2 SUB PUSH1 0x0 DUP4 ADD MSTORE PUSH2 0x11C0 DUP2 DUP9 PUSH2 0xFAF JUMP JUMPDEST SWAP1 POP PUSH2 0x11CF PUSH1 0x20 DUP4 ADD DUP8 PUSH2 0x113F JUMP JUMPDEST PUSH2 0x11DC PUSH1 0x40 DUP4 ADD DUP7 PUSH2 0xEC5 JUMP JUMPDEST PUSH2 0x11E9 PUSH1 0x60 DUP4 ADD DUP6 PUSH2 0xF67 JUMP JUMPDEST PUSH2 0x11F6 PUSH1 0x80 DUP4 ADD DUP5 PUSH2 0x113F JUMP JUMPDEST SWAP7 SWAP6 POP POP POP POP POP POP JUMP JUMPDEST PUSH1 0x0 PUSH1 0x20 DUP3 ADD SWAP1 POP DUP2 DUP2 SUB PUSH1 0x0 DUP4 ADD MSTORE PUSH2 0x1219 DUP2 PUSH2 0xFE8 JUMP JUMPDEST SWAP1 POP SWAP2 SWAP1 POP JUMP JUMPDEST PUSH1 0x0 PUSH1 0x20 DUP3 ADD SWAP1 POP DUP2 DUP2 SUB PUSH1 0x0 DUP4 ADD MSTORE PUSH2 0x1239 DUP2 PUSH2 0x100B JUMP JUMPDEST SWAP1 POP SWAP2 SWAP1 POP JUMP JUMPDEST PUSH1 0x0 PUSH1 0x20 DUP3 ADD SWAP1 POP DUP2 DUP2 SUB PUSH1 0x0 DUP4 ADD MSTORE PUSH2 0x1259 DUP2 PUSH2 0x102E JUMP JUMPDEST SWAP1 POP SWAP2 SWAP1 POP JUMP JUMPDEST PUSH1 0x0 PUSH1 0x20 DUP3 ADD SWAP1 POP DUP2 DUP2 SUB PUSH1 0x0 DUP4 ADD MSTORE PUSH2 0x1279 DUP2 PUSH2 0x1051 JUMP JUMPDEST SWAP1 POP SWAP2 SWAP1 POP JUMP JUMPDEST PUSH1 0x0 PUSH1 0x20 DUP3 ADD SWAP1 POP DUP2 DUP2 SUB PUSH1 0x0 DUP4 ADD MSTORE PUSH2 0x1299 DUP2 PUSH2 0x1074 JUMP JUMPDEST SWAP1 POP SWAP2 SWAP1 POP JUMP JUMPDEST PUSH1 0x0 PUSH1 0x20 DUP3 ADD SWAP1 POP DUP2 DUP2 SUB PUSH1 0x0 DUP4 ADD MSTORE PUSH2 0x12B9 DUP2 PUSH2 0x1097 JUMP JUMPDEST SWAP1 POP SWAP2 SWAP1 POP JUMP JUMPDEST PUSH1 0x0 PUSH1 0x20 DUP3 ADD SWAP1 POP PUSH2 0x12D5 PUSH1 0x0 DUP4 ADD DUP5 PUSH2 0x113F JUMP JUMPDEST SWAP3 SWAP2 POP POP JUMP JUMPDEST PUSH1 0x0 PUSH1 0xA0 DUP3 ADD SWAP1 POP PUSH2 0x12F0 PUSH1 0x0 DUP4 ADD DUP9 PUSH2 0x113F JUMP JUMPDEST PUSH2 0x12FD PUSH1 0x20 DUP4 ADD DUP8 PUSH2 0x113F JUMP JUMPDEST PUSH2 0x130A PUSH1 0x40 DUP4 ADD DUP7 PUSH2 0x113F JUMP JUMPDEST PUSH2 0x1317 PUSH1 0x60 DUP4 ADD DUP6 PUSH2 0x113F JUMP JUMPDEST PUSH2 0x1324 PUSH1 0x80 DUP4 ADD DUP5 PUSH2 0xED4 JUMP JUMPDEST SWAP7 SWAP6 POP POP POP POP POP POP JUMP JUMPDEST PUSH1 0x0 PUSH2 0x1338 PUSH2 0x1349 JUMP JUMPDEST SWAP1 POP PUSH2 0x1344 DUP3 DUP3 PUSH2 0x14E9 JUMP JUMPDEST SWAP2 SWAP1 POP JUMP JUMPDEST PUSH1 0x0 PUSH1 0x40 MLOAD SWAP1 POP SWAP1 JUMP JUMPDEST PUSH1 0x0 PUSH8 0xFFFFFFFFFFFFFFFF DUP3 GT ISZERO PUSH2 0x136E JUMPI PUSH2 0x136D PUSH2 0x15F0 JUMP JUMPDEST JUMPDEST PUSH2 0x1377 DUP3 PUSH2 0x161F JUMP JUMPDEST SWAP1 POP PUSH1 0x20 DUP2 ADD SWAP1 POP SWAP2 SWAP1 POP JUMP JUMPDEST PUSH1 0x0 DUP2 SWAP1 POP PUSH1 0x20 DUP3 ADD SWAP1 POP SWAP2 SWAP1 POP JUMP JUMPDEST PUSH1 0x0 DUP2 MLOAD SWAP1 POP SWAP2 SWAP1 POP JUMP JUMPDEST PUSH1 0x0 DUP2 MLOAD SWAP1 POP SWAP2 SWAP1 POP JUMP JUMPDEST PUSH1 0x0 PUSH1 0x20 DUP3 ADD SWAP1 POP SWAP2 SWAP1 POP JUMP JUMPDEST PUSH1 0x0 DUP3 DUP3 MSTORE PUSH1 0x20 DUP3 ADD SWAP1 POP SWAP3 SWAP2 POP POP JUMP JUMPDEST PUSH1 0x0 DUP3 DUP3 MSTORE PUSH1 0x20 DUP3 ADD SWAP1 POP SWAP3 SWAP2 POP POP JUMP JUMPDEST PUSH1 0x0 DUP3 DUP3 MSTORE PUSH1 0x20 DUP3 ADD SWAP1 POP SWAP3 SWAP2 POP POP JUMP JUMPDEST PUSH1 0x0 PUSH2 0x13F5 DUP3 PUSH2 0x146B JUMP JUMPDEST SWAP2 POP PUSH2 0x1400 DUP4 PUSH2 0x146B JUMP JUMPDEST SWAP3 POP DUP3 PUSH2 0x1410 JUMPI PUSH2 0x140F PUSH2 0x1592 JUMP JUMPDEST JUMPDEST DUP3 DUP3 DIV SWAP1 POP SWAP3 SWAP2 POP POP JUMP JUMPDEST PUSH1 0x0 PUSH2 0x1426 DUP3 PUSH2 0x144B JUMP JUMPDEST SWAP1 POP SWAP2 SWAP1 POP JUMP JUMPDEST PUSH1 0x0 PUSH2 0x1438 DUP3 PUSH2 0x144B JUMP JUMPDEST SWAP1 POP SWAP2 SWAP1 POP JUMP JUMPDEST PUSH1 0x0 DUP2 ISZERO ISZERO SWAP1 POP SWAP2 SWAP1 POP JUMP JUMPDEST PUSH1 0x0 PUSH20 0xFFFFFFFFFFFFFFFFFFFFFFFFFFFFFFFFFFFFFFFF DUP3 AND SWAP1 POP SWAP2 SWAP1 POP JUMP JUMPDEST PUSH1 0x0 DUP2 SWAP1 POP SWAP2 SWAP1 POP JUMP JUMPDEST DUP3 DUP2 DUP4 CALLDATACOPY PUSH1 0x0 DUP4 DUP4 ADD MSTORE POP POP POP JUMP JUMPDEST PUSH1 0x0 JUMPDEST DUP4 DUP2 LT ISZERO PUSH2 0x14A2 JUMPI DUP1 DUP3 ADD MLOAD DUP2 DUP5 ADD MSTORE PUSH1 0x20 DUP2 ADD SWAP1 POP PUSH2 0x1487 JUMP JUMPDEST DUP4 DUP2 GT ISZERO PUSH2 0x14B1 JUMPI PUSH1 0x0 DUP5 DUP5 ADD MSTORE JUMPDEST POP POP POP POP JUMP JUMPDEST PUSH1 0x0 PUSH1 0x2 DUP3 DIV SWAP1 POP PUSH1 0x1 DUP3 AND DUP1 PUSH2 0x14CF JUMPI PUSH1 0x7F DUP3 AND SWAP2 POP JUMPDEST PUSH1 0x20 DUP3 LT DUP2 EQ ISZERO PUSH2 0x14E3 JUMPI PUSH2 0x14E2 PUSH2 0x15C1 JUMP JUMPDEST JUMPDEST POP SWAP2 SWAP1 POP JUMP JUMPDEST PUSH2 0x14F2 DUP3 PUSH2 0x161F JUMP JUMPDEST DUP2 ADD DUP2 DUP2 LT PUSH8 0xFFFFFFFFFFFFFFFF DUP3 GT OR ISZERO PUSH2 0x1511 JUMPI PUSH2 0x1510 PUSH2 0x15F0 JUMP JUMPDEST JUMPDEST DUP1 PUSH1 0x40 MSTORE POP POP POP JUMP JUMPDEST PUSH1 0x0 PUSH2 0x1525 DUP3 PUSH2 0x146B JUMP JUMPDEST SWAP2 POP PUSH32 0xFFFFFFFFFFFFFFFFFFFFFFFFFFFFFFFFFFFFFFFFFFFFFFFFFFFFFFFFFFFFFFFF DUP3 EQ ISZERO PUSH2 0x1558 JUMPI PUSH2 0x1557 PUSH2 0x1563 JUMP JUMPDEST JUMPDEST PUSH1 0x1 DUP3 ADD SWAP1 POP SWAP2 SWAP1 POP JUMP JUMPDEST PUSH32 0x4E487B7100000000000000000000000000000000000000000000000000000000 PUSH1 0x0 MSTORE PUSH1 0x11 PUSH1 0x4 MSTORE PUSH1 0x24 PUSH1 0x0 REVERT JUMPDEST PUSH32 0x4E487B7100000000000000000000000000000000000000000000000000000000 PUSH1 0x0 MSTORE PUSH1 0x12 PUSH1 0x4 MSTORE PUSH1 0x24 PUSH1 0x0 REVERT JUMPDEST PUSH32 0x4E487B7100000000000000000000000000000000000000000000000000000000 PUSH1 0x0 MSTORE PUSH1 0x22 PUSH1 0x4 MSTORE PUSH1 0x24 PUSH1 0x0 REVERT JUMPDEST PUSH32 0x4E487B7100000000000000000000000000000000000000000000000000000000 PUSH1 0x0 MSTORE PUSH1 0x41 PUSH1 0x4 MSTORE PUSH1 0x24 PUSH1 0x0 REVERT JUMPDEST PUSH1 0x0 PUSH1 0x1F NOT PUSH1 0x1F DUP4 ADD AND SWAP1 POP SWAP2 SWAP1 POP JUMP JUMPDEST PUSH32 0x52657175657374206E6F7420617070726F766564000000000000000000000000 PUSH1 0x0 DUP3 ADD MSTORE POP JUMP JUMPDEST PUSH32 0x43616D706169676E20686173206265656E2066696E616C697A65642E00000000 PUSH1 0x0 DUP3 ADD MSTORE POP JUMP JUMPDEST PUSH32 0x566F6365206A61206170726F766F752E00000000000000000000000000000000 PUSH1 0x0 DUP3 ADD MSTORE POP JUMP JUMPDEST PUSH32 0x5065726D697373696F6E2064656E6965642E0000000000000000000000000000 PUSH1 0x0 DUP3 ADD MSTORE POP JUMP JUMPDEST PUSH32 0x56616C6F7220656E766961646F206D656E6F7220717565206F2076616C6F7220 PUSH1 0x0 DUP3 ADD MSTORE PUSH32 0x6D696E696D6F20646520636F6E74726962756963616F00000000000000000000 PUSH1 0x20 DUP3 ADD MSTORE POP JUMP JUMPDEST PUSH32 0x566F6361206E616F2074656D207065726D697373616F2070617261206170726F PUSH1 0x0 DUP3 ADD MSTORE PUSH32 0x766172206F2070726F6A65746F2E000000000000000000000000000000000000 PUSH1 0x20 DUP3 ADD MSTORE POP JUMP JUMPDEST PUSH2 0x177B DUP2 PUSH2 0x141B JUMP JUMPDEST DUP2 EQ PUSH2 0x1786 JUMPI PUSH1 0x0 DUP1 REVERT JUMPDEST POP JUMP JUMPDEST PUSH2 0x1792 DUP2 PUSH2 0x142D JUMP JUMPDEST DUP2 EQ PUSH2 0x179D JUMPI PUSH1 0x0 DUP1 REVERT JUMPDEST POP JUMP JUMPDEST PUSH2 0x17A9 DUP2 PUSH2 0x146B JUMP JUMPDEST DUP2 EQ PUSH2 0x17B4 JUMPI PUSH1 0x0 DUP1 REVERT JUMPDEST POP JUMP INVALID LOG2 PUSH5 0x6970667358 0x22 SLT KECCAK256 SIGNEXTEND 0xE4 0x2F 0xBC 0xCF NUMBER SWAP13 DUP15 0x1F SLT RETURNDATACOPY SWAP15 0x24 SLT 0xE5 MOD SWAP6 0xBF 0xB0 PUSH20 0x23743B848A9C7A21D2E557264736F6C63430008 SUB STOP CALLER "},"gasEstimates":{"creation":{"codeDepositCost":"1225000","executionCost":"infinite","totalCost":"infinite"},"external":{"approveRequest(uint256)":"infinite","approvers(address)":"1568","approversCount()":"1152","approversVoted(uint256)":"1561","contribute()":"42905","createRequest(string,uint256,address)":"infinite","finalizeRequest(uint256)":"infinite","getAllRequests()":"infinite","getRequestsCount()":"1190","getSummary()":"infinite","manager()":"1300","minimumContribution()":"1196","requests(uint256)":"infinite"}},"methodIdentifiers":{"approveRequest(uint256)":"d7d1bbdb","approvers(address)":"0a144391","approversCount()":"82fde093","approversVoted(uint256)":"99395a0f","contribute()":"d7bb99ba","createRequest(string,uint256,address)":"8a9cfd55","finalizeRequest(uint256)":"03441006","getAllRequests()":"fb1a002a","getRequestsCount()":"3410452a","getSummary()":"4051ddac","manager()":"481c6a75","minimumContribution()":"937e09b1","requests(uint256)":"81d12c58"}},"storageLayout":{"storage":[{"astId":14,"contract":"Campaign.sol:Campaign","label":"manager","offset":0,"slot":"0","type":"t_address"},{"astId":16,"contract":"Campaign.sol:Campaign","label":"minimumContribution","offset":0,"slot":"1","type":"t_uint256"},{"astId":20,"contract":"Campaign.sol:Campaign","label":"requests","offset":0,"slot":"2","type":"t_array(t_struct(Request)12_storage)dyn_storage"},{"astId":24,"contract":"Campaign.sol:Campaign","label":"approvers","offset":0,"slot":"3","type":"t_mapping(t_address,t_bool)"},{"astId":28,"contract":"Campaign.sol:Campaign","label":"approversVoted","offset":0,"slot":"4","type":"t_mapping(t_uint256,t_address)"},{"astId":30,"contract":"Campaign.sol:Campaign","label":"approversCount","offset":0,"slot":"5","type":"t_uint256"}],"types":{"t_address":{"encoding":"inplace","label":"address","numberOfBytes":"20"},"t_address_payable":{"encoding":"inplace","label":"address payable","numberOfBytes":"20"},"t_array(t_struct(Request)12_storage)dyn_storage":{"base":"t_struct(Request)12_storage","encoding":"dynamic_array","label":"struct Campaign.Request[]","numberOfBytes":"32"},"t_bool":{"encoding":"inplace","label":"bool","numberOfBytes":"1"},"t_mapping(t_address,t_bool)":{"encoding":"mapping","key":"t_address","label":"mapping(address => bool)","numberOfBytes":"32","value":"t_bool"},"t_mapping(t_uint256,t_address)":{"encoding":"mapping","key":"t_uint256","label":"mapping(uint256 => address)","numberOfBytes":"32","value":"t_address"},"t_string_storage":{"encoding":"bytes","label":"string","numberOfBytes":"32"},"t_struct(Request)12_storage":{"encoding":"inplace","label":"struct Campaign.Request","members":[{"astId":3,"contract":"Campaign.sol:Campaign","label":"description","offset":0,"slot":"0","type":"t_string_storage"},{"astId":5,"contract":"Campaign.sol:Campaign","label":"value","offset":0,"slot":"1","type":"t_uint256"},{"astId":7,"contract":"Campaign.sol:Campaign","label":"recipient","offset":0,"slot":"2","type":"t_address_payable"},{"astId":9,"contract":"Campaign.sol:Campaign","label":"complete","offset":20,"slot":"2","type":"t_bool"},{"astId":11,"contract":"Campaign.sol:Campaign","label":"approvalCount","offset":0,"slot":"3","type":"t_uint256"}],"numberOfBytes":"128"},"t_uint256":{"encoding":"inplace","label":"uint256","numberOfBytes":"32"}}},"userdoc":{"kind":"user","methods":{},"version":1}}